{
 "cells": [
  {
   "cell_type": "code",
   "execution_count": 1,
   "id": "1cae06cc-230b-440c-8930-1acfa658b85e",
   "metadata": {},
   "outputs": [],
   "source": [
    "from blockscout import Blockscout\n",
    "from blockscout import Net\n",
    "from blockscout import API\n",
    "\n",
    "vitalik_addr = '0xd8da6bf26964af9d7eed9e03e53415d37aa96045'\n",
    "usdc_addr = '0xaf88d065e77c8cC2239327C5EDb3A432268e5831'\n",
    "\n",
    "eth_rest = Blockscout(Net.ARB, API.REST) "
   ]
  },
  {
   "cell_type": "code",
   "execution_count": 2,
   "id": "3134c5e7-9997-419f-9655-53406ba2c38b",
   "metadata": {},
   "outputs": [
    {
     "name": "stdout",
     "output_type": "stream",
     "text": [
      "url: https://arbitrum.blockscout.com/api/v2/main-page/blocks\n"
     ]
    },
    {
     "data": {
      "text/plain": [
       "[{'base_fee_per_gas': '10000000',\n",
       "  'burnt_fees': '321050000000',\n",
       "  'burnt_fees_percentage': 100.0,\n",
       "  'difficulty': '1',\n",
       "  'gas_limit': '1125899906842624',\n",
       "  'gas_target_percentage': -99.999999994297,\n",
       "  'gas_used': '32105',\n",
       "  'gas_used_percentage': 2.851496816447252e-09,\n",
       "  'hash': '0x67b56879da6a1b5545609d1ecd951ecf021866c60a9a18c1168d6ac982572158',\n",
       "  'height': 236026105,\n",
       "  'miner': {'ens_domain_name': None,\n",
       "   'hash': '0xA4b000000000000000000073657175656e636572',\n",
       "   'implementations': [],\n",
       "   'is_contract': False,\n",
       "   'is_verified': False,\n",
       "   'metadata': None,\n",
       "   'name': None,\n",
       "   'private_tags': [],\n",
       "   'public_tags': [],\n",
       "   'watchlist_names': []},\n",
       "  'nonce': '0x000000000018cf68',\n",
       "  'parent_hash': '0x086a17ea8ebe92370586f310dd885cc54858ac855480f31288322944fcf9bc1c',\n",
       "  'priority_fee': '0',\n",
       "  'rewards': [],\n",
       "  'size': 807,\n",
       "  'timestamp': '2024-07-25T21:11:34.000000Z',\n",
       "  'total_difficulty': '213818289',\n",
       "  'tx_count': 2,\n",
       "  'tx_fees': '321050000000',\n",
       "  'type': 'block',\n",
       "  'uncles_hashes': [],\n",
       "  'withdrawals_count': None},\n",
       " {'base_fee_per_gas': '10000000',\n",
       "  'burnt_fees': '575360000000',\n",
       "  'burnt_fees_percentage': 100.0,\n",
       "  'difficulty': '1',\n",
       "  'gas_limit': '1125899906842624',\n",
       "  'gas_target_percentage': -99.99999998977955,\n",
       "  'gas_used': '57536',\n",
       "  'gas_used_percentage': 5.1102233555866405e-09,\n",
       "  'hash': '0x1ec7ecc8886aa404d560a8c91bb927ffee3c8621b9200648db93a74d7f77509a',\n",
       "  'height': 236026100,\n",
       "  'miner': {'ens_domain_name': None,\n",
       "   'hash': '0xA4b000000000000000000073657175656e636572',\n",
       "   'implementations': [],\n",
       "   'is_contract': False,\n",
       "   'is_verified': False,\n",
       "   'metadata': None,\n",
       "   'name': None,\n",
       "   'private_tags': [],\n",
       "   'public_tags': [],\n",
       "   'watchlist_names': []},\n",
       "  'nonce': '0x000000000018cf68',\n",
       "  'parent_hash': '0x8e0d4c62afb94dd39947008f20387324decdb7252c9f402fac2945e087f0c663',\n",
       "  'priority_fee': '0',\n",
       "  'rewards': [],\n",
       "  'size': 873,\n",
       "  'timestamp': '2024-07-25T21:11:33.000000Z',\n",
       "  'total_difficulty': '213818284',\n",
       "  'tx_count': 2,\n",
       "  'tx_fees': '575360000000',\n",
       "  'type': 'block',\n",
       "  'uncles_hashes': [],\n",
       "  'withdrawals_count': None},\n",
       " {'base_fee_per_gas': '10000000',\n",
       "  'burnt_fees': '326890000000',\n",
       "  'burnt_fees_percentage': 100.0,\n",
       "  'difficulty': '1',\n",
       "  'gas_limit': '1125899906842624',\n",
       "  'gas_target_percentage': -99.99999999419327,\n",
       "  'gas_used': '32689',\n",
       "  'gas_used_percentage': 2.9033664361577394e-09,\n",
       "  'hash': '0x197546931eb16a2bc962549cab460dd6c3524337fb7ac4021baa257aead9a1a2',\n",
       "  'height': 236026095,\n",
       "  'miner': {'ens_domain_name': None,\n",
       "   'hash': '0xA4b000000000000000000073657175656e636572',\n",
       "   'implementations': [],\n",
       "   'is_contract': False,\n",
       "   'is_verified': False,\n",
       "   'metadata': None,\n",
       "   'name': None,\n",
       "   'private_tags': [],\n",
       "   'public_tags': [],\n",
       "   'watchlist_names': []},\n",
       "  'nonce': '0x000000000018cf68',\n",
       "  'parent_hash': '0x048cadac1bf0ae68640878b4a6aefe02c4ef197ef85d14c947593a68e38babb3',\n",
       "  'priority_fee': '32689',\n",
       "  'rewards': [],\n",
       "  'size': 816,\n",
       "  'timestamp': '2024-07-25T21:11:31.000000Z',\n",
       "  'total_difficulty': '213818279',\n",
       "  'tx_count': 2,\n",
       "  'tx_fees': '326890000000',\n",
       "  'type': 'block',\n",
       "  'uncles_hashes': [],\n",
       "  'withdrawals_count': None},\n",
       " {'base_fee_per_gas': '10000000',\n",
       "  'burnt_fees': '465250000000',\n",
       "  'burnt_fees_percentage': 100.0,\n",
       "  'difficulty': '1',\n",
       "  'gas_limit': '1125899906842624',\n",
       "  'gas_target_percentage': -99.99999999173549,\n",
       "  'gas_used': '46525',\n",
       "  'gas_used_percentage': 4.132250097654833e-09,\n",
       "  'hash': '0x048cadac1bf0ae68640878b4a6aefe02c4ef197ef85d14c947593a68e38babb3',\n",
       "  'height': 236026094,\n",
       "  'miner': {'ens_domain_name': None,\n",
       "   'hash': '0xA4b000000000000000000073657175656e636572',\n",
       "   'implementations': [],\n",
       "   'is_contract': False,\n",
       "   'is_verified': False,\n",
       "   'metadata': None,\n",
       "   'name': None,\n",
       "   'private_tags': [],\n",
       "   'public_tags': [],\n",
       "   'watchlist_names': []},\n",
       "  'nonce': '0x000000000018cf68',\n",
       "  'parent_hash': '0x98ede5ef5507130d295117af521ed536e76f102ee5a5219380ae4ee7a91cd13d',\n",
       "  'priority_fee': '0',\n",
       "  'rewards': [],\n",
       "  'size': 810,\n",
       "  'timestamp': '2024-07-25T21:11:31.000000Z',\n",
       "  'total_difficulty': '213818278',\n",
       "  'tx_count': 2,\n",
       "  'tx_fees': '465250000000',\n",
       "  'type': 'block',\n",
       "  'uncles_hashes': [],\n",
       "  'withdrawals_count': None}]"
      ]
     },
     "execution_count": 2,
     "metadata": {},
     "output_type": "execute_result"
    }
   ],
   "source": [
    "eth_rest.get_main_page_blocks()"
   ]
  },
  {
   "cell_type": "code",
   "execution_count": 3,
   "id": "73e62452-e3fc-40f4-b5d9-aa614a7a3afe",
   "metadata": {},
   "outputs": [
    {
     "name": "stdout",
     "output_type": "stream",
     "text": [
      "url: https://arbitrum.blockscout.com/api/v2/blocks/236025318/withdrawals\n"
     ]
    },
    {
     "data": {
      "text/plain": [
       "{'items': [], 'next_page_params': None}"
      ]
     },
     "execution_count": 3,
     "metadata": {},
     "output_type": "execute_result"
    }
   ],
   "source": [
    "eth_rest.get_block_withdrawals(block_number = \"236025318\")"
   ]
  },
  {
   "cell_type": "code",
   "execution_count": 4,
   "id": "70440165-0710-4e7f-babe-79c2954b06fe",
   "metadata": {},
   "outputs": [
    {
     "name": "stdout",
     "output_type": "stream",
     "text": [
      "url: https://arbitrum.blockscout.com/api/v2/blocks/236025318/transactions\n"
     ]
    },
    {
     "data": {
      "text/plain": [
       "{'items': [{'timestamp': '2024-07-25T21:08:17.000000Z',\n",
       "   'fee': {'type': 'actual', 'value': '0'},\n",
       "   'gas_limit': '0',\n",
       "   'block': 236025318,\n",
       "   'status': 'ok',\n",
       "   'method': 'startBlock',\n",
       "   'confirmations': 886,\n",
       "   'type': 106,\n",
       "   'exchange_rate': '3154.65',\n",
       "   'to': {'ens_domain_name': None,\n",
       "    'hash': '0x00000000000000000000000000000000000A4B05',\n",
       "    'implementations': [],\n",
       "    'is_contract': True,\n",
       "    'is_verified': True,\n",
       "    'metadata': None,\n",
       "    'name': 'ArbOS',\n",
       "    'private_tags': [],\n",
       "    'public_tags': [],\n",
       "    'watchlist_names': []},\n",
       "   'tx_burnt_fee': None,\n",
       "   'max_fee_per_gas': None,\n",
       "   'result': 'success',\n",
       "   'hash': '0x155d1cdee9808b154c7b1d830143266499b2b38b00c18dec5360344dca4e0fd2',\n",
       "   'gas_price': '10000000',\n",
       "   'priority_fee': None,\n",
       "   'base_fee_per_gas': '10000000',\n",
       "   'from': {'ens_domain_name': None,\n",
       "    'hash': '0x00000000000000000000000000000000000A4B05',\n",
       "    'implementations': [],\n",
       "    'is_contract': True,\n",
       "    'is_verified': True,\n",
       "    'metadata': None,\n",
       "    'name': 'ArbOS',\n",
       "    'private_tags': [],\n",
       "    'public_tags': [],\n",
       "    'watchlist_names': []},\n",
       "   'token_transfers': None,\n",
       "   'tx_types': ['contract_call'],\n",
       "   'gas_used': '0',\n",
       "   'created_contract': None,\n",
       "   'position': 0,\n",
       "   'nonce': 0,\n",
       "   'has_error_in_internal_txs': False,\n",
       "   'actions': [],\n",
       "   'decoded_input': {'method_call': 'startBlock(uint256 l1BaseFee, uint64 l1BlockNumber, uint64 l2BlockNumber, uint64 timePassed)',\n",
       "    'method_id': '6bf6a42d',\n",
       "    'parameters': [{'name': 'l1BaseFee', 'type': 'uint256', 'value': '0'},\n",
       "     {'name': 'l1BlockNumber', 'type': 'uint64', 'value': '20386148'},\n",
       "     {'name': 'l2BlockNumber', 'type': 'uint64', 'value': '236025318'},\n",
       "     {'name': 'timePassed', 'type': 'uint64', 'value': '0'}]},\n",
       "   'token_transfers_overflow': None,\n",
       "   'raw_input': '0x6bf6a42d00000000000000000000000000000000000000000000000000000000000000000000000000000000000000000000000000000000000000000000000001371164000000000000000000000000000000000000000000000000000000000e1175e60000000000000000000000000000000000000000000000000000000000000000',\n",
       "   'value': '0',\n",
       "   'max_priority_fee_per_gas': None,\n",
       "   'revert_reason': None,\n",
       "   'confirmation_duration': [0, 143.0],\n",
       "   'tx_tag': None},\n",
       "  {'timestamp': '2024-07-25T21:08:17.000000Z',\n",
       "   'fee': {'type': 'actual', 'value': '675110000000'},\n",
       "   'gas_limit': '252259',\n",
       "   'block': 236025318,\n",
       "   'status': 'ok',\n",
       "   'method': '0x095ea7b3',\n",
       "   'confirmations': 886,\n",
       "   'type': 2,\n",
       "   'exchange_rate': '3154.65',\n",
       "   'to': {'ens_domain_name': None,\n",
       "    'hash': '0xFd086bC7CD5C481DCC9C85ebE478A1C0b69FCbb9',\n",
       "    'implementations': [{'address': '0xf31e1AE27e7cd057C1D6795a5a083E0453D39B50',\n",
       "      'name': None}],\n",
       "    'is_contract': True,\n",
       "    'is_verified': True,\n",
       "    'metadata': None,\n",
       "    'name': 'TransparentUpgradeableProxy',\n",
       "    'private_tags': [],\n",
       "    'public_tags': [],\n",
       "    'watchlist_names': []},\n",
       "   'tx_burnt_fee': '675110000000',\n",
       "   'max_fee_per_gas': '15000000',\n",
       "   'result': 'success',\n",
       "   'hash': '0x5509f7f1ed812528777fbfcf638b0ee4a5d194b21d47e5ebeaf7b220d7fbd84f',\n",
       "   'gas_price': '10000000',\n",
       "   'priority_fee': '0',\n",
       "   'base_fee_per_gas': '10000000',\n",
       "   'from': {'ens_domain_name': None,\n",
       "    'hash': '0xBA239cb58d1dbe32da1d08bA182A488E79149982',\n",
       "    'implementations': [],\n",
       "    'is_contract': False,\n",
       "    'is_verified': False,\n",
       "    'metadata': None,\n",
       "    'name': None,\n",
       "    'private_tags': [],\n",
       "    'public_tags': [],\n",
       "    'watchlist_names': []},\n",
       "   'token_transfers': None,\n",
       "   'tx_types': ['contract_call'],\n",
       "   'gas_used': '67511',\n",
       "   'created_contract': None,\n",
       "   'position': 1,\n",
       "   'nonce': 20,\n",
       "   'has_error_in_internal_txs': False,\n",
       "   'actions': [],\n",
       "   'decoded_input': None,\n",
       "   'token_transfers_overflow': None,\n",
       "   'raw_input': '0x095ea7b3000000000000000000000000fd918f19a99fd9226c6301fc6ff1dd5682a4b94200000000000000000000000000000000000000000000000000000000060cb13c',\n",
       "   'value': '0',\n",
       "   'max_priority_fee_per_gas': '0',\n",
       "   'revert_reason': None,\n",
       "   'confirmation_duration': [0, 143.0],\n",
       "   'tx_tag': None},\n",
       "  {'timestamp': '2024-07-25T21:08:17.000000Z',\n",
       "   'fee': {'type': 'actual', 'value': '307660000000'},\n",
       "   'gas_limit': '67652',\n",
       "   'block': 236025318,\n",
       "   'status': 'ok',\n",
       "   'method': None,\n",
       "   'confirmations': 886,\n",
       "   'type': 2,\n",
       "   'exchange_rate': '3154.65',\n",
       "   'to': {'ens_domain_name': None,\n",
       "    'hash': '0x60D4D93f5aedDe143ab93C5223C3c62AfcAe0859',\n",
       "    'implementations': [],\n",
       "    'is_contract': False,\n",
       "    'is_verified': False,\n",
       "    'metadata': {'tags': [{'meta': {'bgColor': '#8465CB',\n",
       "        'tagIcon': 'data:image/svg+xml;utf8,%3Csvg%20xmlns%3D%22http%3A%2F%2Fwww.w3.org%2F2000%2Fsvg%22%20xmlns%3Axlink%3D%22http%3A%2F%2Fwww.w3.org%2F1999%2Fxlink%22%20viewBox%3D%220%200%2032%2029%22%3E%3Cpath%20d%3D%22M%205.507%200.072%20L%2026.097%200.072%20L%2026.097%204.167%20L%2031.952%204.167%20L%2030.725%208.263%20L%2029.686%208.263%20L%2029.686%2024.833%20C%2030.207%2024.833%2030.63%2025.249%2030.63%2025.763%20L%2030.63%2026.88%20L%2030.819%2026.88%20C%2031.341%2026.88%2031.764%2027.297%2031.764%2027.811%20L%2031.764%2028.928%20L%2021.185%2028.928%20L%2021.185%2027.811%20C%2021.185%2027.297%2021.608%2026.88%2022.13%2026.88%20L%2022.319%2026.88%20L%2022.319%2025.763%20C%2022.319%2025.316%2022.639%2024.943%2023.065%2024.853%20L%2023.045%2015.71%20C%2022.711%2012.057%2019.596%209.194%2015.802%209.194%20C%2012.008%209.194%208.893%2012.057%208.559%2015.71%20L%208.539%2024.845%20C%209.043%2024.919%209.663%2025.302%209.663%2025.763%20L%209.663%2026.88%20L%209.852%2026.88%20C%2010.373%2026.88%2010.796%2027.297%2010.796%2027.811%20L%2010.796%2028.928%20L%200.218%2028.928%20L%200.218%2027.811%20C%200.218%2027.297%200.641%2026.88%201.162%2026.88%20L%201.351%2026.88%20L%201.351%2025.763%20C%201.351%2025.249%201.774%2024.833%202.296%2024.833%20L%202.296%208.263%20L%201.257%208.263%20L%200.029%204.167%20L%205.507%204.167%20L%205.507%200.072%20Z%22%20fill%3D%22rgb(255%2C%20255%2C%20255)%22%3E%3C%2Fpath%3E%3Cpath%20d%3D%22M%2026.097%200.072%20L%2026.166%200.072%20L%2026.166%200.004%20L%2026.097%200.004%20Z%20M%205.507%200.072%20L%205.507%200.004%20L%205.438%200.004%20L%205.438%200.072%20Z%20M%2026.097%204.167%20L%2026.028%204.167%20L%2026.028%204.235%20L%2026.097%204.235%20Z%20M%2031.952%204.167%20L%2032.019%204.187%20L%2032.045%204.099%20L%2031.952%204.099%20L%2031.952%204.167%20Z%20M%2030.725%208.263%20L%2030.725%208.331%20L%2030.776%208.331%20L%2030.791%208.282%20Z%20M%2029.686%208.263%20L%2029.686%208.195%20L%2029.617%208.195%20L%2029.617%208.263%20Z%20M%2029.686%2024.833%20L%2029.617%2024.833%20L%2029.617%2024.901%20L%2029.686%2024.901%20Z%20M%2030.63%2026.88%20L%2030.561%2026.88%20L%2030.561%2026.948%20L%2030.63%2026.948%20Z%20M%2031.764%2028.928%20L%2031.764%2028.996%20L%2031.832%2028.996%20L%2031.832%2028.928%20Z%20M%2021.185%2028.928%20L%2021.116%2028.928%20L%2021.116%2028.996%20L%2021.185%2028.996%20Z%20M%2022.319%2026.88%20L%2022.319%2026.948%20L%2022.388%2026.948%20L%2022.388%2026.88%20Z%20M%2023.065%2024.853%20L%2023.08%2024.919%20L%2023.134%2024.908%20L%2023.134%2024.853%20Z%20M%2023.045%2015.71%20L%2023.114%2015.71%20L%2023.114%2015.707%20L%2023.113%2015.704%20Z%20M%208.559%2015.71%20L%208.49%2015.704%20L%208.49%2015.707%20L%208.49%2015.71%20Z%20M%208.539%2024.845%20L%208.47%2024.845%20L%208.469%2024.904%20L%208.528%2024.913%20Z%20M%209.663%2026.88%20L%209.594%2026.88%20L%209.594%2026.948%20L%209.663%2026.948%20Z%20M%2010.796%2028.928%20L%2010.796%2028.996%20L%2010.865%2028.996%20L%2010.865%2028.928%20Z%20M%200.218%2028.928%20L%200.149%2028.928%20L%200.149%2028.996%20L%200.218%2028.996%20Z%20M%201.351%2026.88%20L%201.351%2026.948%20L%201.42%2026.948%20L%201.42%2026.88%20Z%20M%202.296%2024.833%20L%202.296%2024.901%20L%202.365%2024.901%20L%202.365%2024.833%20Z%20M%202.296%208.263%20L%202.365%208.263%20L%202.365%208.195%20L%202.296%208.195%20Z%20M%201.257%208.263%20L%201.191%208.282%20L%201.205%208.331%20L%201.257%208.331%20Z%20M%200.029%204.167%20L%200.029%204.1%20L%20-0.063%204.1%20L%20-0.037%204.187%20L%200.029%204.167%20Z%20M%205.507%204.167%20L%205.507%204.235%20L%205.576%204.235%20L%205.576%204.167%20Z%20M%2026.097%200.004%20L%205.507%200.004%20L%205.507%200.139%20L%2026.097%200.139%20Z%20M%2026.166%204.167%20L%2026.166%200.072%20L%2026.028%200.072%20L%2026.028%204.167%20L%2026.166%204.167%20Z%20M%2031.952%204.099%20L%2026.097%204.099%20L%2026.097%204.235%20L%2031.952%204.235%20Z%20M%2030.791%208.282%20L%2032.019%204.187%20L%2031.886%204.148%20L%2030.658%208.244%20Z%20M%2029.686%208.331%20L%2030.725%208.331%20L%2030.725%208.195%20L%2029.686%208.195%20Z%20M%2029.755%2024.833%20L%2029.755%208.263%20L%2029.617%208.263%20L%2029.617%2024.833%20Z%20M%2030.699%2025.763%20C%2030.699%2025.212%2030.245%2024.765%2029.686%2024.765%20L%2029.686%2024.9%20C%2030.169%2024.9%2030.561%2025.287%2030.561%2025.763%20Z%20M%2030.699%2026.88%20L%2030.699%2025.763%20L%2030.561%2025.763%20L%2030.561%2026.88%20Z%20M%2030.819%2026.813%20L%2030.63%2026.813%20L%2030.63%2026.948%20L%2030.819%2026.948%20Z%20M%2031.832%2027.811%20C%2031.832%2027.26%2031.379%2026.813%2030.819%2026.813%20L%2030.819%2026.948%20C%2031.303%2026.948%2031.695%2027.335%2031.695%2027.811%20Z%20M%2031.832%2028.928%20L%2031.832%2027.811%20L%2031.695%2027.811%20L%2031.695%2028.928%20Z%20M%2026.097%2028.996%20L%2031.764%2028.996%20L%2031.764%2028.86%20L%2026.097%2028.86%20Z%20M%2023.074%2028.996%20L%2026.097%2028.996%20L%2026.097%2028.86%20L%2023.074%2028.86%20Z%20M%2021.185%2028.996%20L%2023.074%2028.996%20L%2023.074%2028.86%20L%2021.185%2028.86%20Z%20M%2021.116%2027.811%20L%2021.116%2028.928%20L%2021.254%2028.928%20L%2021.254%2027.811%20Z%20M%2022.13%2026.813%20C%2021.57%2026.813%2021.116%2027.26%2021.116%2027.811%20L%2021.254%2027.811%20C%2021.254%2027.335%2021.646%2026.948%2022.13%2026.948%20Z%20M%2022.319%2026.813%20L%2022.13%2026.813%20L%2022.13%2026.948%20L%2022.319%2026.948%20Z%20M%2022.25%2025.763%20L%2022.25%2026.88%20L%2022.388%2026.88%20L%2022.388%2025.763%20Z%20M%2023.051%2024.787%20C%2022.593%2024.883%2022.25%2025.284%2022.25%2025.763%20L%2022.388%2025.763%20C%2022.388%2025.349%2022.684%2025.003%2023.08%2024.919%20Z%20M%2022.976%2015.71%20L%2022.996%2024.853%20L%2023.134%2024.853%20L%2023.114%2015.71%20Z%20M%2015.802%209.262%20C%2019.559%209.262%2022.645%2012.098%2022.976%2015.716%20L%2023.113%2015.704%20C%2022.776%2012.016%2019.632%209.126%2015.802%209.126%20Z%20M%208.628%2015.716%20C%208.959%2012.098%2012.044%209.262%2015.802%209.262%20L%2015.802%209.126%20C%2011.972%209.126%208.828%2012.016%208.49%2015.704%20Z%20M%208.608%2024.845%20L%208.628%2015.71%20L%208.49%2015.71%20L%208.47%2024.845%20Z%20M%209.732%2025.763%20C%209.732%2025.502%209.557%2025.273%209.331%2025.105%20C%209.104%2024.935%208.812%2024.817%208.549%2024.778%20L%208.528%2024.912%20C%208.769%2024.948%209.039%2025.057%209.248%2025.213%20C%209.459%2025.37%209.594%2025.563%209.594%2025.763%20Z%20M%209.732%2026.88%20L%209.732%2025.763%20L%209.594%2025.763%20L%209.594%2026.88%20Z%20M%209.852%2026.813%20L%209.663%2026.813%20L%209.663%2026.948%20L%209.852%2026.948%20Z%20M%2010.865%2027.811%20C%2010.865%2027.26%2010.411%2026.813%209.852%2026.813%20L%209.852%2026.948%20C%2010.335%2026.948%2010.727%2027.335%2010.727%2027.811%20Z%20M%2010.865%2028.928%20L%2010.865%2027.811%20L%2010.727%2027.811%20L%2010.727%2028.928%20Z%20M%208.529%2028.996%20L%2010.796%2028.996%20L%2010.796%2028.86%20L%208.529%2028.86%20Z%20M%208.372%2028.996%20L%208.529%2028.996%20L%208.529%2028.86%20L%208.372%2028.86%20Z%20M%205.507%2028.996%20L%208.372%2028.996%20L%208.372%2028.86%20L%205.507%2028.86%20Z%20M%200.218%2028.996%20L%205.507%2028.996%20L%205.507%2028.86%20L%200.218%2028.86%20Z%20M%200.149%2027.811%20L%200.149%2028.928%20L%200.287%2028.928%20L%200.287%2027.811%20Z%20M%201.162%2026.813%20C%200.603%2026.813%200.149%2027.26%200.149%2027.811%20L%200.287%2027.811%20C%200.287%2027.335%200.679%2026.948%201.162%2026.948%20Z%20M%201.351%2026.813%20L%201.162%2026.813%20L%201.162%2026.948%20L%201.351%2026.948%20Z%20M%201.282%2025.763%20L%201.282%2026.88%20L%201.42%2026.88%20L%201.42%2025.763%20Z%20M%202.296%2024.765%20C%201.736%2024.765%201.282%2025.212%201.282%2025.763%20L%201.42%2025.763%20C%201.42%2025.287%201.812%2024.9%202.296%2024.9%20Z%20M%202.227%208.263%20L%202.227%2024.833%20L%202.365%2024.833%20L%202.365%208.263%20Z%20M%201.257%208.331%20L%202.296%208.331%20L%202.296%208.195%20L%201.257%208.195%20Z%20M%20-0.037%204.187%20L%201.191%208.282%20L%201.323%208.244%20L%200.095%204.148%20Z%20M%205.507%204.099%20L%200.029%204.099%20L%200.029%204.235%20L%205.507%204.235%20L%205.507%204.099%20Z%20M%205.438%200.072%20L%205.438%204.167%20L%205.576%204.167%20L%205.576%200.072%20Z%22%20fill%3D%22rgb(255%2C255%2C255)%22%3E%3C%2Fpath%3E%3C%2Fsvg%3E',\n",
       "        'tagUrl': 'https://warpcast.com/kanampater',\n",
       "        'textColor': '#FFFFFF',\n",
       "        'tooltipDescription': 'This address is linked to a Farcaster account',\n",
       "        'warpcastHandle': 'kanampater'},\n",
       "       'name': 'Farcaster',\n",
       "       'ordinal': 0,\n",
       "       'slug': 'warpcast-account',\n",
       "       'tagType': 'classifier'},\n",
       "      {'meta': {},\n",
       "       'name': 'kanampater.eth',\n",
       "       'ordinal': 10,\n",
       "       'slug': 'kanampatereth',\n",
       "       'tagType': 'name'}]},\n",
       "    'name': None,\n",
       "    'private_tags': [],\n",
       "    'public_tags': [],\n",
       "    'watchlist_names': []},\n",
       "   'tx_burnt_fee': '307660000000',\n",
       "   'max_fee_per_gas': '1200000000',\n",
       "   'result': 'success',\n",
       "   'hash': '0xfb6adbd7657c7d7d78d3710a08321d84f5b6631ae54a8c816b3d024bedbf29a9',\n",
       "   'gas_price': '10000000',\n",
       "   'priority_fee': '36611540000000',\n",
       "   'base_fee_per_gas': '10000000',\n",
       "   'from': {'ens_domain_name': None,\n",
       "    'hash': '0x25681Ab599B4E2CEea31F8B498052c53FC2D74db',\n",
       "    'implementations': [],\n",
       "    'is_contract': False,\n",
       "    'is_verified': False,\n",
       "    'metadata': None,\n",
       "    'name': None,\n",
       "    'private_tags': [],\n",
       "    'public_tags': [],\n",
       "    'watchlist_names': []},\n",
       "   'token_transfers': None,\n",
       "   'tx_types': ['coin_transfer'],\n",
       "   'gas_used': '30766',\n",
       "   'created_contract': None,\n",
       "   'position': 2,\n",
       "   'nonce': 146041,\n",
       "   'has_error_in_internal_txs': False,\n",
       "   'actions': [],\n",
       "   'decoded_input': None,\n",
       "   'token_transfers_overflow': None,\n",
       "   'raw_input': '0x',\n",
       "   'value': '47422500000000000',\n",
       "   'max_priority_fee_per_gas': '2000000000',\n",
       "   'revert_reason': None,\n",
       "   'confirmation_duration': [0, 143.0],\n",
       "   'tx_tag': None}],\n",
       " 'next_page_params': None}"
      ]
     },
     "execution_count": 4,
     "metadata": {},
     "output_type": "execute_result"
    }
   ],
   "source": [
    "eth_rest.get_block_transactions(block_number = \"236025318\")"
   ]
  },
  {
   "cell_type": "code",
   "execution_count": 5,
   "id": "6d2715e5-fe56-4d47-a671-70d8fa065cb3",
   "metadata": {},
   "outputs": [
    {
     "name": "stdout",
     "output_type": "stream",
     "text": [
      "url: https://arbitrum.blockscout.com/api/v2/blocks/236025318\n"
     ]
    },
    {
     "data": {
      "text/plain": [
       "{'arbitrum': {'batch_data_container': 'in_blob4844',\n",
       "  'batch_number': 655901,\n",
       "  'commitment_transaction': {'hash': '0xaa345ab80151eb6e1560c7d42ed79e20de9ea52bea4d608af83526fdb2590d5b',\n",
       "   'status': 'unfinalized',\n",
       "   'timestamp': '2024-07-25T21:08:47.000000Z'},\n",
       "  'confirmation_transaction': {'hash': None,\n",
       "   'status': None,\n",
       "   'timestamp': None},\n",
       "  'delayed_messages': 1625953,\n",
       "  'l1_block_height': 20386148,\n",
       "  'send_count': 124945,\n",
       "  'send_root': '0x8292f00aced28bd88a3116392f8a21fe0591cf335aaab0e5156fb3e1faf37045',\n",
       "  'status': 'Sent to base'},\n",
       " 'base_fee_per_gas': '10000000',\n",
       " 'burnt_fees': '982770000000',\n",
       " 'burnt_fees_percentage': 100.0,\n",
       " 'difficulty': '1',\n",
       " 'gas_limit': '1125899906842624',\n",
       " 'gas_target_percentage': -99.9999999825425,\n",
       " 'gas_used': '98277',\n",
       " 'gas_used_percentage': 8.72875105528692e-09,\n",
       " 'hash': '0xee29d2796ab09a59115b2ee34ec6d8f2984242f7cf960c446d67892b02cef9f9',\n",
       " 'height': 236025318,\n",
       " 'miner': {'ens_domain_name': None,\n",
       "  'hash': '0xA4b000000000000000000073657175656e636572',\n",
       "  'implementations': [],\n",
       "  'is_contract': False,\n",
       "  'is_verified': False,\n",
       "  'metadata': None,\n",
       "  'name': None,\n",
       "  'private_tags': [],\n",
       "  'public_tags': [],\n",
       "  'watchlist_names': []},\n",
       " 'nonce': '0x000000000018cf61',\n",
       " 'parent_hash': '0x751f3112a5e1e4929ca1fbdfe47154f57c42854542bc0a5ee0e482ce6b192c2c',\n",
       " 'priority_fee': '36611540000000',\n",
       " 'rewards': [],\n",
       " 'size': 1001,\n",
       " 'timestamp': '2024-07-25T21:08:17.000000Z',\n",
       " 'total_difficulty': '213817502',\n",
       " 'tx_count': 3,\n",
       " 'tx_fees': '982770000000',\n",
       " 'type': 'block',\n",
       " 'uncles_hashes': [],\n",
       " 'withdrawals_count': 0}"
      ]
     },
     "execution_count": 5,
     "metadata": {},
     "output_type": "execute_result"
    }
   ],
   "source": [
    "eth_rest.get_block_info(block_number = \"236025318\")"
   ]
  }
 ],
 "metadata": {
  "kernelspec": {
   "display_name": "Python 3 (ipykernel)",
   "language": "python",
   "name": "python3"
  },
  "language_info": {
   "codemirror_mode": {
    "name": "ipython",
    "version": 3
   },
   "file_extension": ".py",
   "mimetype": "text/x-python",
   "name": "python",
   "nbconvert_exporter": "python",
   "pygments_lexer": "ipython3",
   "version": "3.10.0rc2"
  }
 },
 "nbformat": 4,
 "nbformat_minor": 5
}
