{
 "cells": [
  {
   "cell_type": "code",
   "execution_count": 13,
   "id": "1cae06cc-230b-440c-8930-1acfa658b85e",
   "metadata": {},
   "outputs": [],
   "source": [
    "from blockscout import Blockscout\n",
    "from blockscout import TokenTransfers\n",
    "from blockscout import Net\n",
    "from blockscout import API\n",
    "\n",
    "vitalik_addr = '0xd8da6bf26964af9d7eed9e03e53415d37aa96045'\n",
    "usdc_addr = '0x0b2C639c533813f4Aa9D7837CAf62653d097Ff85'\n",
    "\n",
    "eth_rest = Blockscout(Net.OP, API.REST) "
   ]
  },
  {
   "cell_type": "code",
   "execution_count": 15,
   "id": "3134c5e7-9997-419f-9655-53406ba2c38b",
   "metadata": {},
   "outputs": [],
   "source": [
    "#eth_rest.get_main_page_blocks()"
   ]
  },
  {
   "cell_type": "code",
   "execution_count": 16,
   "id": "73e62452-e3fc-40f4-b5d9-aa614a7a3afe",
   "metadata": {},
   "outputs": [
    {
     "name": "stdout",
     "output_type": "stream",
     "text": [
      "url: https://optimism.blockscout.com/api/v2/blocks/123172305/withdrawals\n"
     ]
    },
    {
     "data": {
      "text/plain": [
       "{'items': [], 'next_page_params': None}"
      ]
     },
     "execution_count": 16,
     "metadata": {},
     "output_type": "execute_result"
    }
   ],
   "source": [
    "eth_rest.get_block_withdrawals(block_number = \"123172305\")"
   ]
  },
  {
   "cell_type": "code",
   "execution_count": 17,
   "id": "70440165-0710-4e7f-babe-79c2954b06fe",
   "metadata": {},
   "outputs": [
    {
     "name": "stdout",
     "output_type": "stream",
     "text": [
      "url: https://optimism.blockscout.com/api/v2/blocks/123172305/transactions\n"
     ]
    },
    {
     "data": {
      "text/plain": [
       "{'items': [{'timestamp': '2024-07-25T21:36:27.000000Z',\n",
       "   'fee': {'type': 'actual', 'value': '0'},\n",
       "   'gas_limit': '1000000',\n",
       "   'block': 123172305,\n",
       "   'status': 'ok',\n",
       "   'method': 'setL1BlockValuesEcotone',\n",
       "   'confirmations': 16,\n",
       "   'type': 126,\n",
       "   'exchange_rate': '3178.21',\n",
       "   'to': {'ens_domain_name': None,\n",
       "    'hash': '0x4200000000000000000000000000000000000015',\n",
       "    'implementations': [{'address': '0x07dbe8500fc591d1852B76feE44d5a05e13097Ff',\n",
       "      'name': 'L1Block'}],\n",
       "    'is_contract': True,\n",
       "    'is_verified': True,\n",
       "    'metadata': None,\n",
       "    'name': 'Proxy',\n",
       "    'private_tags': [],\n",
       "    'public_tags': [],\n",
       "    'watchlist_names': []},\n",
       "   'tx_burnt_fee': None,\n",
       "   'max_fee_per_gas': None,\n",
       "   'result': 'success',\n",
       "   'hash': '0x36c63036f0a53dbc2e6884d0677ca658f80aced62d7102104c848bd58ed67e40',\n",
       "   'gas_price': '0',\n",
       "   'priority_fee': None,\n",
       "   'base_fee_per_gas': '720562',\n",
       "   'from': {'ens_domain_name': None,\n",
       "    'hash': '0xDeaDDEaDDeAdDeAdDEAdDEaddeAddEAdDEAd0001',\n",
       "    'implementations': [],\n",
       "    'is_contract': False,\n",
       "    'is_verified': False,\n",
       "    'metadata': None,\n",
       "    'name': None,\n",
       "    'private_tags': [],\n",
       "    'public_tags': [],\n",
       "    'watchlist_names': []},\n",
       "   'token_transfers': None,\n",
       "   'tx_types': ['contract_call'],\n",
       "   'gas_used': '43851',\n",
       "   'created_contract': None,\n",
       "   'position': 0,\n",
       "   'nonce': 17937243,\n",
       "   'has_error_in_internal_txs': False,\n",
       "   'actions': [],\n",
       "   'decoded_input': {'method_call': 'setL1BlockValuesEcotone()',\n",
       "    'method_id': '440a5e20',\n",
       "    'parameters': []},\n",
       "   'token_transfers_overflow': None,\n",
       "   'raw_input': '0x440a5e200000146b000f79c500000000000000050000000066a2c4c700000000013711e3000000000000000000000000000000000000000000000000000000012c059866000000000000000000000000000000000000000000000000000000000000000129e8a3d9602679cc0c2711774d1d6b46fc46bff3ca9792e8c229e6cde4dcd8a50000000000000000000000006887246668a3b87f54deb3b94ba47a6f63f32985',\n",
       "   'value': '0',\n",
       "   'max_priority_fee_per_gas': None,\n",
       "   'revert_reason': None,\n",
       "   'confirmation_duration': [0, 2000.0],\n",
       "   'tx_tag': None},\n",
       "  {'timestamp': '2024-07-25T21:36:27.000000Z',\n",
       "   'fee': {'type': 'actual', 'value': '29617898341375'},\n",
       "   'gas_limit': '600000',\n",
       "   'block': 123172305,\n",
       "   'status': 'ok',\n",
       "   'method': '0xa00597a0',\n",
       "   'confirmations': 16,\n",
       "   'type': 2,\n",
       "   'exchange_rate': '3178.21',\n",
       "   'to': {'ens_domain_name': None,\n",
       "    'hash': '0x802b65b5d9016621E66003aeD0b16615093f328b',\n",
       "    'implementations': [],\n",
       "    'is_contract': True,\n",
       "    'is_verified': False,\n",
       "    'metadata': None,\n",
       "    'name': None,\n",
       "    'private_tags': [],\n",
       "    'public_tags': [],\n",
       "    'watchlist_names': []},\n",
       "   'tx_burnt_fee': '124761707490',\n",
       "   'max_fee_per_gas': '170936730',\n",
       "   'result': 'success',\n",
       "   'hash': '0xd86b3113148a498c78177077b50e6be4d2da9ceddfb4c182328177b7faa421cd',\n",
       "   'gas_price': '170720562',\n",
       "   'priority_fee': '29434650000000',\n",
       "   'base_fee_per_gas': '720562',\n",
       "   'from': {'ens_domain_name': None,\n",
       "    'hash': '0x989ebD9437371FaCd601281b8a56d87962131567',\n",
       "    'implementations': [],\n",
       "    'is_contract': False,\n",
       "    'is_verified': False,\n",
       "    'metadata': None,\n",
       "    'name': None,\n",
       "    'private_tags': [],\n",
       "    'public_tags': [],\n",
       "    'watchlist_names': []},\n",
       "   'token_transfers': None,\n",
       "   'tx_types': ['contract_call', 'token_transfer'],\n",
       "   'gas_used': '173145',\n",
       "   'created_contract': None,\n",
       "   'position': 1,\n",
       "   'nonce': 68948,\n",
       "   'has_error_in_internal_txs': False,\n",
       "   'actions': [],\n",
       "   'decoded_input': None,\n",
       "   'token_transfers_overflow': None,\n",
       "   'raw_input': '0xa00597a000000000000000000000000000000000000000000000000000000000214d249700000000000000000000000000000000000045554c07dfef164e4c0fb303ba470000000000000000000000000b2c639c533813f4aa9d7837caf62653d097ff850000000000000000000000000000000000000000000000000000000000000001000000000000000000000000478946bcd4a5a22b316470f5486fafb928c0ba250000000000000000000000000000000000000000000000000000000066a2c60e',\n",
       "   'value': '0',\n",
       "   'max_priority_fee_per_gas': '170000000',\n",
       "   'revert_reason': None,\n",
       "   'confirmation_duration': [0, 2000.0],\n",
       "   'tx_tag': None},\n",
       "  {'timestamp': '2024-07-25T21:36:27.000000Z',\n",
       "   'fee': {'type': 'actual', 'value': '18633652422002'},\n",
       "   'gas_limit': '250000',\n",
       "   'block': 123172305,\n",
       "   'status': 'ok',\n",
       "   'method': 'execTransaction',\n",
       "   'confirmations': 16,\n",
       "   'type': 2,\n",
       "   'exchange_rate': '3178.21',\n",
       "   'to': {'ens_domain_name': None,\n",
       "    'hash': '0x65ad84A548dEEA54D07C697d3106396FE13415C0',\n",
       "    'implementations': [{'address': '0xd9Db270c1B5E3Bd161E8c8503c55cEABeE709552',\n",
       "      'name': 'GnosisSafe'}],\n",
       "    'is_contract': True,\n",
       "    'is_verified': True,\n",
       "    'metadata': None,\n",
       "    'name': 'GnosisSafeProxy',\n",
       "    'private_tags': [],\n",
       "    'public_tags': [],\n",
       "    'watchlist_names': []},\n",
       "   'tx_burnt_fee': '133292441008',\n",
       "   'max_fee_per_gas': '100000000',\n",
       "   'result': 'success',\n",
       "   'hash': '0xe88f33e60482525d1bbc51dcd9b690ce74323b6b96cb115f918d2fb9135c6cdc',\n",
       "   'gas_price': '100000000',\n",
       "   'priority_fee': '18365107558992',\n",
       "   'base_fee_per_gas': '720562',\n",
       "   'from': {'ens_domain_name': None,\n",
       "    'hash': '0x8e310B9D3361C93A2A64e5dB4123345FC375894d',\n",
       "    'implementations': [],\n",
       "    'is_contract': False,\n",
       "    'is_verified': False,\n",
       "    'metadata': None,\n",
       "    'name': None,\n",
       "    'private_tags': [],\n",
       "    'public_tags': [],\n",
       "    'watchlist_names': []},\n",
       "   'token_transfers': None,\n",
       "   'tx_types': ['contract_call', 'token_transfer'],\n",
       "   'gas_used': '184984',\n",
       "   'created_contract': None,\n",
       "   'position': 2,\n",
       "   'nonce': 16231,\n",
       "   'has_error_in_internal_txs': False,\n",
       "   'actions': [],\n",
       "   'decoded_input': {'method_call': 'execTransaction(address to, uint256 value, bytes data, uint8 operation, uint256 safeTxGas, uint256 baseGas, uint256 gasPrice, address gasToken, address refundReceiver, bytes signatures)',\n",
       "    'method_id': '6a761202',\n",
       "    'parameters': [{'name': 'to',\n",
       "      'type': 'address',\n",
       "      'value': '0x087000a300de7200382b55d40045000000e5d60e'},\n",
       "     {'name': 'value', 'type': 'uint256', 'value': '0'},\n",
       "     {'name': 'data',\n",
       "      'type': 'bytes',\n",
       "      'value': '0x82ad56cb00000000000000000000000000000000000000000000000000000000000000200000000000000000000000000000000000000000000000000000000000000003000000000000000000000000000000000000000000000000000000000000006000000000000000000000000000000000000000000000000000000000000001400000000000000000000000000000000000000000000000000000000000000200000000000000000000000000dc6ff44d5d932cbd77b52e5612ba0529dc6226f1000000000000000000000000000000000000000000000000000000000000000000000000000000000000000000000000000000000000000000000000000000600000000000000000000000000000000000000000000000000000000000000044095ea7b300000000000000000000000021c4928109acb0659a88ae5329b5374a3024694c0000000000000000000000000000000000000000000000012373d55b80d217170000000000000000000000000000000000000000000000000000000000000000000000000000000021c4928109acb0659a88ae5329b5374a3024694c000000000000000000000000000000000000000000000000000000000000000000000000000000000000000000000000000000000000000000000000000000600000000000000000000000000000000000000000000000000000000000000024b6b55f250000000000000000000000000000000000000000000000012373d55b80d217170000000000000000000000000000000000000000000000000000000000000000000000000000000065ad84a548deea54d07c697d3106396fe13415c0000000000000000000000000000000000000000000000000000000000000000000000000000000000000000000000000000000000000000000000000000000600000000000000000000000000000000000000000000000000000000000000024f08a032300000000000000000000000075cf11467937ce3f2f357ce24ffc3dbf8fd5c22600000000000000000000000000000000000000000000000000000000'},\n",
       "     {'name': 'operation', 'type': 'uint8', 'value': '1'},\n",
       "     {'name': 'safeTxGas', 'type': 'uint256', 'value': '0'},\n",
       "     {'name': 'baseGas', 'type': 'uint256', 'value': '0'},\n",
       "     {'name': 'gasPrice', 'type': 'uint256', 'value': '0'},\n",
       "     {'name': 'gasToken',\n",
       "      'type': 'address',\n",
       "      'value': '0x0000000000000000000000000000000000000000'},\n",
       "     {'name': 'refundReceiver',\n",
       "      'type': 'address',\n",
       "      'value': '0x0000000000000000000000000000000000000000'},\n",
       "     {'name': 'signatures',\n",
       "      'type': 'bytes',\n",
       "      'value': '0x508f1cc3ee02978e3cccd8d624534aa23a9510b09b2794e3ff5c809ce30ce0613354d4331f6db38c0447afea1a8fba7b08a4f9a4170b1560982c411c4595abe41c'}]},\n",
       "   'token_transfers_overflow': None,\n",
       "   'raw_input': '0x6a761202000000000000000000000000087000a300de7200382b55d40045000000e5d60e000000000000000000000000000000000000000000000000000000000000000000000000000000000000000000000000000000000000000000000000000001400000000000000000000000000000000000000000000000000000000000000001000000000000000000000000000000000000000000000000000000000000000000000000000000000000000000000000000000000000000000000000000000000000000000000000000000000000000000000000000000000000000000000000000000000000000000000000000000000000000000000000000000000000000000000000000000000000000000000000000000000000000000000000000000000000000000000000000000000000000000000000000000000000000000000480000000000000000000000000000000000000000000000000000000000000030482ad56cb00000000000000000000000000000000000000000000000000000000000000200000000000000000000000000000000000000000000000000000000000000003000000000000000000000000000000000000000000000000000000000000006000000000000000000000000000000000000000000000000000000000000001400000000000000000000000000000000000000000000000000000000000000200000000000000000000000000dc6ff44d5d932cbd77b52e5612ba0529dc6226f1000000000000000000000000000000000000000000000000000000000000000000000000000000000000000000000000000000000000000000000000000000600000000000000000000000000000000000000000000000000000000000000044095ea7b300000000000000000000000021c4928109acb0659a88ae5329b5374a3024694c0000000000000000000000000000000000000000000000012373d55b80d217170000000000000000000000000000000000000000000000000000000000000000000000000000000021c4928109acb0659a88ae5329b5374a3024694c000000000000000000000000000000000000000000000000000000000000000000000000000000000000000000000000000000000000000000000000000000600000000000000000000000000000000000000000000000000000000000000024b6b55f250000000000000000000000000000000000000000000000012373d55b80d217170000000000000000000000000000000000000000000000000000000000000000000000000000000065ad84a548deea54d07c697d3106396fe13415c0000000000000000000000000000000000000000000000000000000000000000000000000000000000000000000000000000000000000000000000000000000600000000000000000000000000000000000000000000000000000000000000024f08a032300000000000000000000000075cf11467937ce3f2f357ce24ffc3dbf8fd5c22600000000000000000000000000000000000000000000000000000000000000000000000000000000000000000000000000000000000000000000000000000000000000000000000000000000000000000000000000000041508f1cc3ee02978e3cccd8d624534aa23a9510b09b2794e3ff5c809ce30ce0613354d4331f6db38c0447afea1a8fba7b08a4f9a4170b1560982c411c4595abe41c00000000000000000000000000000000000000000000000000000000000000',\n",
       "   'value': '0',\n",
       "   'max_priority_fee_per_gas': '100000000',\n",
       "   'revert_reason': None,\n",
       "   'confirmation_duration': [0, 2000.0],\n",
       "   'tx_tag': None},\n",
       "  {'timestamp': '2024-07-25T21:36:27.000000Z',\n",
       "   'fee': {'type': 'actual', 'value': '2531583025032'},\n",
       "   'gas_limit': '400000',\n",
       "   'block': 123172305,\n",
       "   'status': 'error',\n",
       "   'method': '0xdbd2893a',\n",
       "   'confirmations': 16,\n",
       "   'type': 0,\n",
       "   'exchange_rate': '3178.21',\n",
       "   'to': {'ens_domain_name': None,\n",
       "    'hash': '0xacf1A11D720Ff5Cfff5de88eD325725bB357Cc11',\n",
       "    'implementations': [],\n",
       "    'is_contract': True,\n",
       "    'is_verified': False,\n",
       "    'metadata': None,\n",
       "    'name': None,\n",
       "    'private_tags': [],\n",
       "    'public_tags': [],\n",
       "    'watchlist_names': []},\n",
       "   'tx_burnt_fee': None,\n",
       "   'max_fee_per_gas': None,\n",
       "   'result': 'execution reverted',\n",
       "   'hash': '0xd478018d86ec5bab82b5e5eb1980ed8b751ad9832698932a840dcaf19fc80610',\n",
       "   'gas_price': '65165439',\n",
       "   'priority_fee': None,\n",
       "   'base_fee_per_gas': '720562',\n",
       "   'from': {'ens_domain_name': None,\n",
       "    'hash': '0x8D5579542a924C621AE9106D77eC4D9B42894602',\n",
       "    'implementations': [],\n",
       "    'is_contract': False,\n",
       "    'is_verified': False,\n",
       "    'metadata': None,\n",
       "    'name': None,\n",
       "    'private_tags': [],\n",
       "    'public_tags': [],\n",
       "    'watchlist_names': []},\n",
       "   'token_transfers': None,\n",
       "   'tx_types': ['contract_call'],\n",
       "   'gas_used': '38178',\n",
       "   'created_contract': None,\n",
       "   'position': 3,\n",
       "   'nonce': 146038,\n",
       "   'has_error_in_internal_txs': True,\n",
       "   'actions': [],\n",
       "   'decoded_input': None,\n",
       "   'token_transfers_overflow': None,\n",
       "   'raw_input': '0xdbd2893a000000000000000000000000000000000000000000000000000000007ee95709000000000000000000000000000000000000000000000000094e1677356907c00b2c639c533813f4aa9d7837caf62653d097ff8542000000000000000000000000000000000000060000640000000000004556f10000000000000000000000',\n",
       "   'value': '0',\n",
       "   'max_priority_fee_per_gas': None,\n",
       "   'revert_reason': {'method_call': 'Error(string reason)',\n",
       "    'method_id': '08c379a0',\n",
       "    'parameters': [{'name': 'reason', 'type': 'string', 'value': 'err32'}]},\n",
       "   'confirmation_duration': [0, 2000.0],\n",
       "   'tx_tag': None},\n",
       "  {'timestamp': '2024-07-25T21:36:27.000000Z',\n",
       "   'fee': {'type': 'actual', 'value': '435305203728'},\n",
       "   'gas_limit': '49857',\n",
       "   'block': 123172305,\n",
       "   'status': 'ok',\n",
       "   'method': 'transfer',\n",
       "   'confirmations': 16,\n",
       "   'type': 2,\n",
       "   'exchange_rate': '3178.21',\n",
       "   'to': {'ens_domain_name': None,\n",
       "    'hash': '0x7F5c764cBc14f9669B88837ca1490cCa17c31607',\n",
       "    'implementations': [],\n",
       "    'is_contract': True,\n",
       "    'is_verified': True,\n",
       "    'metadata': None,\n",
       "    'name': 'OVMFiatToken',\n",
       "    'private_tags': [],\n",
       "    'public_tags': [],\n",
       "    'watchlist_names': []},\n",
       "   'tx_burnt_fee': '26428773036',\n",
       "   'max_fee_per_gas': '10897232',\n",
       "   'result': 'success',\n",
       "   'hash': '0x87a64d2d8eb16a3764aba8d7ac4e1d09cc8b616282d1d11767b3d9194be05f34',\n",
       "   'gas_price': '10720562',\n",
       "   'priority_fee': '366780000000',\n",
       "   'base_fee_per_gas': '720562',\n",
       "   'from': {'ens_domain_name': None,\n",
       "    'hash': '0xD6000B8a96D8Cce46BdC79FeEF1F036bc5eb56a5',\n",
       "    'implementations': [],\n",
       "    'is_contract': False,\n",
       "    'is_verified': False,\n",
       "    'metadata': None,\n",
       "    'name': None,\n",
       "    'private_tags': [],\n",
       "    'public_tags': [],\n",
       "    'watchlist_names': []},\n",
       "   'token_transfers': None,\n",
       "   'tx_types': ['contract_call', 'token_transfer'],\n",
       "   'gas_used': '36678',\n",
       "   'created_contract': None,\n",
       "   'position': 4,\n",
       "   'nonce': 11,\n",
       "   'has_error_in_internal_txs': False,\n",
       "   'actions': [],\n",
       "   'decoded_input': {'method_call': 'transfer(address recipient, uint256 amount)',\n",
       "    'method_id': 'a9059cbb',\n",
       "    'parameters': [{'name': 'recipient',\n",
       "      'type': 'address',\n",
       "      'value': '0x253dd57300904225762960755b7662e6ae06492d'},\n",
       "     {'name': 'amount', 'type': 'uint256', 'value': '20000000'}]},\n",
       "   'token_transfers_overflow': None,\n",
       "   'raw_input': '0xa9059cbb000000000000000000000000253dd57300904225762960755b7662e6ae06492d0000000000000000000000000000000000000000000000000000000001312d00',\n",
       "   'value': '0',\n",
       "   'max_priority_fee_per_gas': '10000000',\n",
       "   'revert_reason': None,\n",
       "   'confirmation_duration': [0, 2000.0],\n",
       "   'tx_tag': None},\n",
       "  {'timestamp': '2024-07-25T21:36:27.000000Z',\n",
       "   'fee': {'type': 'actual', 'value': '267228232692'},\n",
       "   'gas_limit': '21000',\n",
       "   'block': 123172305,\n",
       "   'status': 'ok',\n",
       "   'method': None,\n",
       "   'confirmations': 16,\n",
       "   'type': 2,\n",
       "   'exchange_rate': '3178.21',\n",
       "   'to': {'ens_domain_name': None,\n",
       "    'hash': '0xce04D922B19b17265b8B54Dbc7ecd21e17441822',\n",
       "    'implementations': [],\n",
       "    'is_contract': False,\n",
       "    'is_verified': False,\n",
       "    'metadata': None,\n",
       "    'name': None,\n",
       "    'private_tags': [],\n",
       "    'public_tags': [],\n",
       "    'watchlist_names': []},\n",
       "   'tx_burnt_fee': '15131802000',\n",
       "   'max_fee_per_gas': '10897232',\n",
       "   'result': 'success',\n",
       "   'hash': '0x135b168219302031c98569c2e7351d58f0ffa90f5ae50cb0c4bbdb84c1d95ebb',\n",
       "   'gas_price': '10720562',\n",
       "   'priority_fee': '210000000000',\n",
       "   'base_fee_per_gas': '720562',\n",
       "   'from': {'ens_domain_name': None,\n",
       "    'hash': '0xD47ee3Fffd67312959d4Ce51C1d265ae49Ec76D8',\n",
       "    'implementations': [],\n",
       "    'is_contract': False,\n",
       "    'is_verified': False,\n",
       "    'metadata': None,\n",
       "    'name': None,\n",
       "    'private_tags': [],\n",
       "    'public_tags': [],\n",
       "    'watchlist_names': []},\n",
       "   'token_transfers': None,\n",
       "   'tx_types': ['coin_transfer'],\n",
       "   'gas_used': '21000',\n",
       "   'created_contract': None,\n",
       "   'position': 5,\n",
       "   'nonce': 38292,\n",
       "   'has_error_in_internal_txs': False,\n",
       "   'actions': [],\n",
       "   'decoded_input': None,\n",
       "   'token_transfers_overflow': None,\n",
       "   'raw_input': '0x',\n",
       "   'value': '20000000000000',\n",
       "   'max_priority_fee_per_gas': '10000000',\n",
       "   'revert_reason': None,\n",
       "   'confirmation_duration': [0, 2000.0],\n",
       "   'tx_tag': None},\n",
       "  {'timestamp': '2024-07-25T21:36:27.000000Z',\n",
       "   'fee': {'type': 'actual', 'value': '4399185329623'},\n",
       "   'gas_limit': '2000000',\n",
       "   'block': 123172305,\n",
       "   'status': 'ok',\n",
       "   'method': '0x3baf7491',\n",
       "   'confirmations': 16,\n",
       "   'type': 2,\n",
       "   'exchange_rate': '3178.21',\n",
       "   'to': {'ens_domain_name': None,\n",
       "    'hash': '0xeF4E57501e1bc4e72523DCa9f64B83b651c51079',\n",
       "    'implementations': [{'address': '0x279518b39760DDB1073671842Fd4448cCDEf660a',\n",
       "      'name': None}],\n",
       "    'is_contract': True,\n",
       "    'is_verified': True,\n",
       "    'metadata': None,\n",
       "    'name': 'TransparentUpgradeableProxy',\n",
       "    'private_tags': [],\n",
       "    'public_tags': [],\n",
       "    'watchlist_names': []},\n",
       "   'tx_burnt_fee': '1135095554104',\n",
       "   'max_fee_per_gas': '9378357',\n",
       "   'result': 'success',\n",
       "   'hash': '0x370e29ede0aaf44656b54f6ee976761efce8a8729c2003f3744ad10143befff9',\n",
       "   'gas_price': '2756606',\n",
       "   'priority_fee': '3207363824848',\n",
       "   'base_fee_per_gas': '720562',\n",
       "   'from': {'ens_domain_name': None,\n",
       "    'hash': '0x3FE8Df3c590204c5aFEfAE853e293BF1c33Be769',\n",
       "    'implementations': [],\n",
       "    'is_contract': False,\n",
       "    'is_verified': False,\n",
       "    'metadata': None,\n",
       "    'name': None,\n",
       "    'private_tags': [],\n",
       "    'public_tags': [],\n",
       "    'watchlist_names': []},\n",
       "   'token_transfers': None,\n",
       "   'tx_types': ['contract_call', 'token_transfer'],\n",
       "   'gas_used': '1575292',\n",
       "   'created_contract': None,\n",
       "   'position': 6,\n",
       "   'nonce': 139241,\n",
       "   'has_error_in_internal_txs': False,\n",
       "   'actions': [],\n",
       "   'decoded_input': None,\n",
       "   'token_transfers_overflow': None,\n",
       "   'raw_input': '0x3baf749100000000000000000000000000000000000000000000000000000000000000200000000000000000000000000000000000000000000000000000000000000053000b47dc4c6635b1000b47dc4c6635b1000b479bfaf9e0000c66a2c56d013af066a2c54900023a59075775d000000000000000385527d70cbe1da024f3320d3d00001b31a2e0f800fe9d05d11c14f3520c350000000000000000000000000000',\n",
       "   'value': '0',\n",
       "   'max_priority_fee_per_gas': '2036044',\n",
       "   'revert_reason': None,\n",
       "   'confirmation_duration': [0, 2000.0],\n",
       "   'tx_tag': None},\n",
       "  {'timestamp': '2024-07-25T21:36:27.000000Z',\n",
       "   'fee': {'type': 'actual', 'value': '303466495767'},\n",
       "   'gas_limit': '250530',\n",
       "   'block': 123172305,\n",
       "   'status': 'ok',\n",
       "   'method': '0x0508941e',\n",
       "   'confirmations': 16,\n",
       "   'type': 0,\n",
       "   'exchange_rate': '3178.21',\n",
       "   'to': {'ens_domain_name': None,\n",
       "    'hash': '0x81E792e5a9003CC1C8BF5569A00f34b65d75b017',\n",
       "    'implementations': [{'address': '0x9A4DF6D81309c8a583C28eD8e449E320043e7A97',\n",
       "      'name': None}],\n",
       "    'is_contract': True,\n",
       "    'is_verified': True,\n",
       "    'metadata': None,\n",
       "    'name': 'OptimizedTransparentUpgradeableProxy',\n",
       "    'private_tags': [],\n",
       "    'public_tags': [],\n",
       "    'watchlist_names': []},\n",
       "   'tx_burnt_fee': None,\n",
       "   'max_fee_per_gas': None,\n",
       "   'result': 'success',\n",
       "   'hash': '0xdfc0985b3330ba77b2585033a7d41f54622200855332344573f1666b370e8ebe',\n",
       "   'gas_price': '2065644',\n",
       "   'priority_fee': None,\n",
       "   'base_fee_per_gas': '720562',\n",
       "   'from': {'ens_domain_name': None,\n",
       "    'hash': '0xe93685f3bBA03016F02bD1828BaDD6195988D950',\n",
       "    'implementations': [],\n",
       "    'is_contract': False,\n",
       "    'is_verified': False,\n",
       "    'metadata': {'tags': [{'meta': {},\n",
       "       'name': 'Layer Zero: Executor',\n",
       "       'ordinal': 10,\n",
       "       'slug': 'layer-zero-executor',\n",
       "       'tagType': 'name'}]},\n",
       "    'name': None,\n",
       "    'private_tags': [],\n",
       "    'public_tags': [],\n",
       "    'watchlist_names': []},\n",
       "   'token_transfers': None,\n",
       "   'tx_types': ['coin_transfer', 'contract_call'],\n",
       "   'gas_used': '108028',\n",
       "   'created_contract': None,\n",
       "   'position': 7,\n",
       "   'nonce': 9315941,\n",
       "   'has_error_in_internal_txs': False,\n",
       "   'actions': [],\n",
       "   'decoded_input': None,\n",
       "   'token_transfers_overflow': None,\n",
       "   'raw_input': '0x0508941e0000000000000000000000000000000000000000000000000000000000000070000000000000000000000000222228060e7efbb1d78bb5d454581910e392222200000000000000000000000000000000000000000000000000000000000061a83bda49f3dcd67d05091c4803ad7c5ef32d8caef69c62e8e94ce9f34e11b0afbe3bda49f3dcd67d05091c4803ad7c5ef32d8caef69c62e8e94ce9f34e11b0afbe00000000000000000000000000000000000000000000000000000000000000e0000000000000000000000000c4a2d399e90971069f466e397dbf51c3b15c695b00000000000000000000000000000000000000000000000000000000000000540000000000000000000000004d73adb72bc3dd368966edd0f0b2148401a178e200000000000003af0070222228060e7efbb1d78bb5d454581910e3922222006f222228060e7efbb1d78bb5d454581910e3922222000000000000000000000000',\n",
       "   'value': '5840000000000',\n",
       "   'max_priority_fee_per_gas': None,\n",
       "   'revert_reason': None,\n",
       "   'confirmation_duration': [0, 2000.0],\n",
       "   'tx_tag': None},\n",
       "  {'timestamp': '2024-07-25T21:36:27.000000Z',\n",
       "   'fee': {'type': 'actual', 'value': '381350690322'},\n",
       "   'gas_limit': '1000000',\n",
       "   'block': 123172305,\n",
       "   'status': 'ok',\n",
       "   'method': '0x9c96eec5',\n",
       "   'confirmations': 16,\n",
       "   'type': 0,\n",
       "   'exchange_rate': '3178.21',\n",
       "   'to': {'ens_domain_name': None,\n",
       "    'hash': '0xA355c1991B69d5A8E1ce24A5EB90557c913Ce789',\n",
       "    'implementations': [],\n",
       "    'is_contract': True,\n",
       "    'is_verified': False,\n",
       "    'metadata': None,\n",
       "    'name': '! VELODROME',\n",
       "    'private_tags': [],\n",
       "    'public_tags': [],\n",
       "    'watchlist_names': []},\n",
       "   'tx_burnt_fee': None,\n",
       "   'max_fee_per_gas': None,\n",
       "   'result': 'success',\n",
       "   'hash': '0x5c2e86d470ab65b2d6d4d9d57a74dbe8b1a18769700fc07745a10d42680f2842',\n",
       "   'gas_price': '1721370',\n",
       "   'priority_fee': None,\n",
       "   'base_fee_per_gas': '720562',\n",
       "   'from': {'ens_domain_name': None,\n",
       "    'hash': '0x3C9D461bCcaDE0f05fcfBa90744277757d45A62a',\n",
       "    'implementations': [],\n",
       "    'is_contract': False,\n",
       "    'is_verified': False,\n",
       "    'metadata': None,\n",
       "    'name': None,\n",
       "    'private_tags': [],\n",
       "    'public_tags': [],\n",
       "    'watchlist_names': []},\n",
       "   'token_transfers': None,\n",
       "   'tx_types': ['contract_call', 'token_transfer'],\n",
       "   'gas_used': '85483',\n",
       "   'created_contract': None,\n",
       "   'position': 8,\n",
       "   'nonce': 1447,\n",
       "   'has_error_in_internal_txs': False,\n",
       "   'actions': [],\n",
       "   'decoded_input': None,\n",
       "   'token_transfers_overflow': None,\n",
       "   'raw_input': '0x9c96eec50000000000000000000000003c8b650257cfb5f272f799f5e2b4e65093a11a0500000000000000000000000000000000000000000000000000000000000000600000000000000000000000000000000000000000000000000000000000004b6400000000000000000000000000000000000000000000000000000000000000170000000000000000000000005037d819122f10b3c10ba0d8f236d89ec57a9e84000000000000000000000000a3bf91a131fccfecc43999c9ff4612a25a572859000000000000000000000000c08caf0901968be23742db54ca2eaf0d85db23690000000000000000000000009afed4e4098355cffa347fe3f8d4d701b718cbe000000000000000000000000008221d4d0786dd17ea0b4cafec53090e11ef094b00000000000000000000000094a0886aff6c22b0e87c78e71b13646fd94ea1dd0000000000000000000000007a2d1be19381b366706058235bf5f39858e9e583000000000000000000000000cd6e948ba2cbcf698bc3cae71f8450a27e1e527c000000000000000000000000b39c7afcfb71b47feffb56c6310099aaf492096d000000000000000000000000cef21b509143286fda37d1e49cdec915401effd60000000000000000000000008de4924d165062eb8487dc345202ee646e744138000000000000000000000000d0b7f6493346a033bd48b98ade15f06271d9bf020000000000000000000000002f26be8ee0cfcfc69602ff60562010832efdff1900000000000000000000000065fe1c30ce5292a1232f8b1c29a762a962f2347d0000000000000000000000008ff87bd53ea0409dc21cbbb15bf4e0108be35709000000000000000000000000164f9f0b584cfb668519b261d5efd1922eb3445e0000000000000000000000004636bcfd7a16c137633f519ae25a2bd767a2ef9d0000000000000000000000002b1e546c5d09b1bb3be3239aec238c8b806f3b5200000000000000000000000063e887c487b0b874b4be6b137f4de906d2e787ce0000000000000000000000004280d14770beb961f60bbabc4965af095f58422300000000000000000000000048231d260493036d922ea6c0dd0d708dc5cb653f0000000000000000000000000d557d38a9ecf4ac1eb329fbcfb5e5092b3ed99000000000000000000000000033b4a007ecc80bc99578c18da07da704c5403236',\n",
       "   'value': '0',\n",
       "   'max_priority_fee_per_gas': None,\n",
       "   'revert_reason': None,\n",
       "   'confirmation_duration': [0, 2000.0],\n",
       "   'tx_tag': None},\n",
       "  {'timestamp': '2024-07-25T21:36:27.000000Z',\n",
       "   'fee': {'type': 'actual', 'value': '78228232692'},\n",
       "   'gas_limit': '21000',\n",
       "   'block': 123172305,\n",
       "   'status': 'ok',\n",
       "   'method': None,\n",
       "   'confirmations': 16,\n",
       "   'type': 2,\n",
       "   'exchange_rate': '3178.21',\n",
       "   'to': {'ens_domain_name': None,\n",
       "    'hash': '0xE4eDb277e41dc89aB076a1F049f4a3EfA700bCE8',\n",
       "    'implementations': [],\n",
       "    'is_contract': False,\n",
       "    'is_verified': False,\n",
       "    'metadata': {'tags': [{'meta': {},\n",
       "       'name': 'Bridge',\n",
       "       'ordinal': 0,\n",
       "       'slug': 'bridge',\n",
       "       'tagType': 'note'},\n",
       "      {'meta': {},\n",
       "       'name': 'Orbiter Finance: Bridge 2',\n",
       "       'ordinal': 10,\n",
       "       'slug': 'orbiter-finance-bridge-2',\n",
       "       'tagType': 'name'}]},\n",
       "    'name': None,\n",
       "    'private_tags': [],\n",
       "    'public_tags': [],\n",
       "    'watchlist_names': []},\n",
       "   'tx_burnt_fee': '15131802000',\n",
       "   'max_fee_per_gas': '3582055',\n",
       "   'result': 'success',\n",
       "   'hash': '0xc70bc6a7cc1bb9351085cdb133a8092d0e94ed9d078dce8c077957736bbb6746',\n",
       "   'gas_price': '1720562',\n",
       "   'priority_fee': '21000000000',\n",
       "   'base_fee_per_gas': '720562',\n",
       "   'from': {'ens_domain_name': None,\n",
       "    'hash': '0x9642C38a314CA7f6ee8579d0b1919DcB809d17c9',\n",
       "    'implementations': [],\n",
       "    'is_contract': False,\n",
       "    'is_verified': False,\n",
       "    'metadata': None,\n",
       "    'name': None,\n",
       "    'private_tags': [],\n",
       "    'public_tags': [],\n",
       "    'watchlist_names': []},\n",
       "   'token_transfers': None,\n",
       "   'tx_types': ['coin_transfer'],\n",
       "   'gas_used': '21000',\n",
       "   'created_contract': None,\n",
       "   'position': 9,\n",
       "   'nonce': 1501,\n",
       "   'has_error_in_internal_txs': False,\n",
       "   'actions': [],\n",
       "   'decoded_input': None,\n",
       "   'token_transfers_overflow': None,\n",
       "   'raw_input': '0x',\n",
       "   'value': '1020000000009020',\n",
       "   'max_priority_fee_per_gas': '1000000',\n",
       "   'revert_reason': None,\n",
       "   'confirmation_duration': [0, 2000.0],\n",
       "   'tx_tag': None},\n",
       "  {'timestamp': '2024-07-25T21:36:27.000000Z',\n",
       "   'fee': {'type': 'actual', 'value': '136205477962'},\n",
       "   'gas_limit': '442713',\n",
       "   'block': 123172305,\n",
       "   'status': 'error',\n",
       "   'method': '0x00004200',\n",
       "   'confirmations': 16,\n",
       "   'type': 0,\n",
       "   'exchange_rate': '3178.21',\n",
       "   'to': {'ens_domain_name': None,\n",
       "    'hash': '0x99009E1c35c70c6C40731df12Dab928852999F3C',\n",
       "    'implementations': [],\n",
       "    'is_contract': True,\n",
       "    'is_verified': False,\n",
       "    'metadata': None,\n",
       "    'name': None,\n",
       "    'private_tags': [],\n",
       "    'public_tags': [],\n",
       "    'watchlist_names': []},\n",
       "   'tx_burnt_fee': None,\n",
       "   'max_fee_per_gas': None,\n",
       "   'result': 'execution reverted',\n",
       "   'hash': '0x2246198819aa9f6604ff5218b506db0313525851b90945c11fffc4be5231cbe4',\n",
       "   'gas_price': '809354',\n",
       "   'priority_fee': None,\n",
       "   'base_fee_per_gas': '720562',\n",
       "   'from': {'ens_domain_name': None,\n",
       "    'hash': '0xEE09884572187F86076c5c8Dc7ebd6b6e7Cc301e',\n",
       "    'implementations': [],\n",
       "    'is_contract': False,\n",
       "    'is_verified': False,\n",
       "    'metadata': None,\n",
       "    'name': None,\n",
       "    'private_tags': [],\n",
       "    'public_tags': [],\n",
       "    'watchlist_names': []},\n",
       "   'token_transfers': None,\n",
       "   'tx_types': ['contract_call'],\n",
       "   'gas_used': '55563',\n",
       "   'created_contract': None,\n",
       "   'position': 10,\n",
       "   'nonce': 49394,\n",
       "   'has_error_in_internal_txs': True,\n",
       "   'actions': [],\n",
       "   'decoded_input': None,\n",
       "   'token_transfers_overflow': None,\n",
       "   'raw_input': '0x00004200000000000000000000000003bbb3210000000100024880b84552452dd2c6be0000001993225b86d91c4949f368b2ac00000000000024ee0d7fcd20c913efc60000455595e3a6dd4aa777cebd5d8b23072b6b093a6c2aba51e078540ad89ed76a0c6716fa0100000000000000000000000003bb9efb01a7bb0d95c6ba0ed0aca70c503b34bc7108589a470000000000000000000000000003bba3c40185c31ffa3706d1cce9d525a00f1c7d4a2911754c00000000000000000000000000000175cf03478946bcd4a5a22b316470f5486fafb928c0ba25000000000000000000004621a433e366a3',\n",
       "   'value': '0',\n",
       "   'max_priority_fee_per_gas': None,\n",
       "   'revert_reason': {'method_call': 's()',\n",
       "    'method_id': '86b714e2',\n",
       "    'parameters': []},\n",
       "   'confirmation_duration': [0, 2000.0],\n",
       "   'tx_tag': None}],\n",
       " 'next_page_params': None}"
      ]
     },
     "execution_count": 17,
     "metadata": {},
     "output_type": "execute_result"
    }
   ],
   "source": [
    "eth_rest.get_block_transactions(block_number = \"123172305\")"
   ]
  },
  {
   "cell_type": "code",
   "execution_count": 18,
   "id": "6d2715e5-fe56-4d47-a671-70d8fa065cb3",
   "metadata": {},
   "outputs": [
    {
     "name": "stdout",
     "output_type": "stream",
     "text": [
      "url: https://optimism.blockscout.com/api/v2/blocks/123172305\n"
     ]
    },
    {
     "data": {
      "text/plain": [
       "{'base_fee_per_gas': '720562',\n",
       " 'burnt_fees': '1688422319524',\n",
       " 'burnt_fees_percentage': 3.0173084955671094,\n",
       " 'difficulty': '0',\n",
       " 'gas_limit': '30000000',\n",
       " 'gas_target_percentage': -53.13596,\n",
       " 'gas_used': '2343202',\n",
       " 'gas_used_percentage': 7.810673333333333,\n",
       " 'hash': '0xe3165c7100e8174eba0f649a1b18e023c05f5516c8d38d0b844119b7d156bb5e',\n",
       " 'height': 123172305,\n",
       " 'miner': {'ens_domain_name': None,\n",
       "  'hash': '0x4200000000000000000000000000000000000011',\n",
       "  'implementations': [{'address': '0xC0D3C0d3c0d3c0d3C0D3c0d3C0D3c0d3c0D30011',\n",
       "    'name': 'SequencerFeeVault'}],\n",
       "  'is_contract': True,\n",
       "  'is_verified': True,\n",
       "  'metadata': None,\n",
       "  'name': 'Proxy',\n",
       "  'private_tags': [],\n",
       "  'public_tags': [],\n",
       "  'watchlist_names': []},\n",
       " 'nonce': '0x0000000000000000',\n",
       " 'parent_hash': '0x124c8eab00ea6d2bebc0742d056e827e620fb4ba00eeb90aa0ad3f02cfb6fd98',\n",
       " 'priority_fee': '54301070036402',\n",
       " 'rewards': [],\n",
       " 'size': 5273,\n",
       " 'timestamp': '2024-07-25T21:36:27.000000Z',\n",
       " 'total_difficulty': '0',\n",
       " 'tx_count': 11,\n",
       " 'tx_fees': '55957894991664',\n",
       " 'type': 'block',\n",
       " 'uncles_hashes': [],\n",
       " 'withdrawals_count': 0}"
      ]
     },
     "execution_count": 18,
     "metadata": {},
     "output_type": "execute_result"
    }
   ],
   "source": [
    "eth_rest.get_block_info(block_number = \"123172305\")"
   ]
  }
 ],
 "metadata": {
  "kernelspec": {
   "display_name": "Python 3 (ipykernel)",
   "language": "python",
   "name": "python3"
  },
  "language_info": {
   "codemirror_mode": {
    "name": "ipython",
    "version": 3
   },
   "file_extension": ".py",
   "mimetype": "text/x-python",
   "name": "python",
   "nbconvert_exporter": "python",
   "pygments_lexer": "ipython3",
   "version": "3.10.0rc2"
  }
 },
 "nbformat": 4,
 "nbformat_minor": 5
}
