{
 "cells": [
  {
   "cell_type": "code",
   "execution_count": 23,
   "id": "1cae06cc-230b-440c-8930-1acfa658b85e",
   "metadata": {},
   "outputs": [],
   "source": [
    "from blockscout import Blockscout\n",
    "from blockscout import TokenTransfers\n",
    "from blockscout import Net\n",
    "from blockscout import API\n",
    "\n",
    "vitalik_addr = '0xd8da6bf26964af9d7eed9e03e53415d37aa96045'\n",
    "usdc_addr = '0x3c499c542cEF5E3811e1192ce70d8cC03d5c3359'\n",
    "\n",
    "eth_rest = Blockscout(Net.MATIC, API.REST) "
   ]
  },
  {
   "cell_type": "code",
   "execution_count": 15,
   "id": "3134c5e7-9997-419f-9655-53406ba2c38b",
   "metadata": {},
   "outputs": [],
   "source": [
    "#eth_rest.get_main_page_blocks()"
   ]
  },
  {
   "cell_type": "code",
   "execution_count": 24,
   "id": "73e62452-e3fc-40f4-b5d9-aa614a7a3afe",
   "metadata": {},
   "outputs": [
    {
     "name": "stdout",
     "output_type": "stream",
     "text": [
      "url: https://polygon.blockscout.com/api/v2/blocks/59807267/withdrawals\n"
     ]
    },
    {
     "data": {
      "text/plain": [
       "{'items': [], 'next_page_params': None}"
      ]
     },
     "execution_count": 24,
     "metadata": {},
     "output_type": "execute_result"
    }
   ],
   "source": [
    "eth_rest.get_block_withdrawals(block_number = \"59807267\")"
   ]
  },
  {
   "cell_type": "code",
   "execution_count": 25,
   "id": "70440165-0710-4e7f-babe-79c2954b06fe",
   "metadata": {},
   "outputs": [
    {
     "name": "stdout",
     "output_type": "stream",
     "text": [
      "url: https://polygon.blockscout.com/api/v2/blocks/59807267/transactions\n"
     ]
    },
    {
     "data": {
      "text/plain": [
       "{'items': [{'timestamp': '2024-07-25T22:02:45.000000Z',\n",
       "   'fee': {'type': 'actual', 'value': '129895000003637060'},\n",
       "   'gas_limit': '137332',\n",
       "   'block': 59807267,\n",
       "   'status': 'ok',\n",
       "   'method': None,\n",
       "   'confirmations': 11,\n",
       "   'type': 2,\n",
       "   'exchange_rate': '0.497313',\n",
       "   'to': {'ens_domain_name': None,\n",
       "    'hash': '0x46C71b77f4cbC1dBAC2BC3E9d69534cef9E62C03',\n",
       "    'implementation_address': None,\n",
       "    'implementation_name': None,\n",
       "    'implementations': [],\n",
       "    'is_contract': False,\n",
       "    'is_verified': False,\n",
       "    'metadata': None,\n",
       "    'name': None,\n",
       "    'private_tags': [],\n",
       "    'public_tags': [],\n",
       "    'watchlist_names': []},\n",
       "   'tx_burnt_fee': '3637060',\n",
       "   'max_fee_per_gas': '1000000000031',\n",
       "   'result': 'success',\n",
       "   'hash': '0x54e1fba45db4d43cd25c81df0f7bd33d07c562036ed83ff4f32ca3528c007ef7',\n",
       "   'gas_price': '1000000000028',\n",
       "   'priority_fee': '129895000000000000',\n",
       "   'base_fee_per_gas': '28',\n",
       "   'from': {'ens_domain_name': None,\n",
       "    'hash': '0x4005A2e6B10c2880E5813DCf931f62aC5e1136D4',\n",
       "    'implementation_address': None,\n",
       "    'implementation_name': None,\n",
       "    'implementations': [],\n",
       "    'is_contract': False,\n",
       "    'is_verified': False,\n",
       "    'metadata': None,\n",
       "    'name': None,\n",
       "    'private_tags': [],\n",
       "    'public_tags': [],\n",
       "    'watchlist_names': []},\n",
       "   'token_transfers': None,\n",
       "   'tx_types': ['coin_transfer', 'token_transfer'],\n",
       "   'gas_used': '129895',\n",
       "   'created_contract': None,\n",
       "   'position': 0,\n",
       "   'nonce': 99796,\n",
       "   'has_error_in_internal_txs': None,\n",
       "   'actions': [],\n",
       "   'decoded_input': None,\n",
       "   'token_transfers_overflow': None,\n",
       "   'raw_input': '0x00000000000000000007a1200000000000000000002191c00000000000000019a9df4b5ecd41adb8f123bfc30b0ba7c270',\n",
       "   'value': '119614538',\n",
       "   'max_priority_fee_per_gas': '1000000000000',\n",
       "   'revert_reason': None,\n",
       "   'confirmation_duration': [0, 2121.0],\n",
       "   'tx_tag': None},\n",
       "  {'timestamp': '2024-07-25T22:02:45.000000Z',\n",
       "   'fee': {'type': 'actual', 'value': '110333159041377188'},\n",
       "   'gas_limit': '236702',\n",
       "   'block': 59807267,\n",
       "   'status': 'error',\n",
       "   'method': None,\n",
       "   'confirmations': 11,\n",
       "   'type': 2,\n",
       "   'exchange_rate': '0.497313',\n",
       "   'to': {'ens_domain_name': None,\n",
       "    'hash': '0xE592427A0AEce92De3Edee1F18E0157C05861564',\n",
       "    'implementation_address': None,\n",
       "    'implementation_name': None,\n",
       "    'implementations': [],\n",
       "    'is_contract': False,\n",
       "    'is_verified': False,\n",
       "    'metadata': None,\n",
       "    'name': None,\n",
       "    'private_tags': [],\n",
       "    'public_tags': [],\n",
       "    'watchlist_names': []},\n",
       "   'tx_burnt_fee': '3228232',\n",
       "   'max_fee_per_gas': '956972253930',\n",
       "   'result': 'awaiting_internal_transactions',\n",
       "   'hash': '0x863d34dd10ba2d21434c83731a1eab72c15a3cb8e100a2b5a7dc31a140d5545f',\n",
       "   'gas_price': '956972253902',\n",
       "   'priority_fee': '110333159038148956',\n",
       "   'base_fee_per_gas': '28',\n",
       "   'from': {'ens_domain_name': None,\n",
       "    'hash': '0xE898563cAf3b8ed945bd23e9F1A5EcA1f395180e',\n",
       "    'implementation_address': None,\n",
       "    'implementation_name': None,\n",
       "    'implementations': [],\n",
       "    'is_contract': False,\n",
       "    'is_verified': False,\n",
       "    'metadata': None,\n",
       "    'name': None,\n",
       "    'private_tags': [],\n",
       "    'public_tags': [],\n",
       "    'watchlist_names': []},\n",
       "   'token_transfers': None,\n",
       "   'tx_types': [],\n",
       "   'gas_used': '115294',\n",
       "   'created_contract': None,\n",
       "   'position': 1,\n",
       "   'nonce': 647657,\n",
       "   'has_error_in_internal_txs': None,\n",
       "   'actions': [],\n",
       "   'decoded_input': None,\n",
       "   'token_transfers_overflow': None,\n",
       "   'raw_input': '0x414bf3890000000000000000000000000d500b1d8e8ef31e21c99d1db9a6444d3adf12700000000000000000000000001bfd67037b42cf73acf2047067bd4f2c47d9bfd600000000000000000000000000000000000000000000000000000000000001f4000000000000000000000000e898563caf3b8ed945bd23e9f1a5eca1f395180e0000000000000000000000000000000000000000000000000000000066a2ccad00000000000000000000000000000000000000000000002faafe5378896e000000000000000000000000000000000000000000000000000000000000000a17dc0000000000000000000000000000000000000000000000000000000000000000',\n",
       "   'value': '0',\n",
       "   'max_priority_fee_per_gas': '956972253874',\n",
       "   'revert_reason': None,\n",
       "   'confirmation_duration': [0, 2121.0],\n",
       "   'tx_tag': None},\n",
       "  {'timestamp': '2024-07-25T22:02:45.000000Z',\n",
       "   'fee': {'type': 'actual', 'value': '45611313004523436'},\n",
       "   'gas_limit': '600030',\n",
       "   'block': 59807267,\n",
       "   'status': 'ok',\n",
       "   'method': '0xa00597a0',\n",
       "   'confirmations': 11,\n",
       "   'type': 2,\n",
       "   'exchange_rate': '0.497313',\n",
       "   'to': {'ens_domain_name': None,\n",
       "    'hash': '0x802b65b5d9016621E66003aeD0b16615093f328b',\n",
       "    'implementation_address': None,\n",
       "    'implementation_name': None,\n",
       "    'implementations': [],\n",
       "    'is_contract': True,\n",
       "    'is_verified': False,\n",
       "    'metadata': None,\n",
       "    'name': None,\n",
       "    'private_tags': [],\n",
       "    'public_tags': [],\n",
       "    'watchlist_names': []},\n",
       "   'tx_burnt_fee': '3518228',\n",
       "   'max_fee_per_gas': '363000000045',\n",
       "   'result': 'success',\n",
       "   'hash': '0x96396f628903ec3aaf68ebaae5a2e2cbf7d2460b18ac5231b810e8f3ba13f8c3',\n",
       "   'gas_price': '363000000036',\n",
       "   'priority_fee': '45611313001005208',\n",
       "   'base_fee_per_gas': '28',\n",
       "   'from': {'ens_domain_name': None,\n",
       "    'hash': '0xC58171a893eC82F0b53a8886e671500F62eFA33b',\n",
       "    'implementation_address': None,\n",
       "    'implementation_name': None,\n",
       "    'implementations': [],\n",
       "    'is_contract': False,\n",
       "    'is_verified': False,\n",
       "    'metadata': None,\n",
       "    'name': None,\n",
       "    'private_tags': [],\n",
       "    'public_tags': [],\n",
       "    'watchlist_names': []},\n",
       "   'token_transfers': None,\n",
       "   'tx_types': ['contract_call', 'token_transfer'],\n",
       "   'gas_used': '125651',\n",
       "   'created_contract': None,\n",
       "   'position': 2,\n",
       "   'nonce': 388654,\n",
       "   'has_error_in_internal_txs': None,\n",
       "   'actions': [],\n",
       "   'decoded_input': None,\n",
       "   'token_transfers_overflow': None,\n",
       "   'raw_input': '0xa00597a00000000000000000000000000000000000000000000000000000000103ebaf32000000000000000000000000000000000000454ecdb80b98ca800e7b040483e80000000000000000000000003c499c542cef5e3811e1192ce70d8cc03d5c33590000000000000000000000000000000000000000000000000000000000000001000000000000000000000000a4d8c89f0c20efbe54cba9e7e7a7e509056228d90000000000000000000000000000000000000000000000000000000066a2cc36',\n",
       "   'value': '0',\n",
       "   'max_priority_fee_per_gas': '363000000008',\n",
       "   'revert_reason': None,\n",
       "   'confirmation_duration': [0, 2121.0],\n",
       "   'tx_tag': None},\n",
       "  {'timestamp': '2024-07-25T22:02:45.000000Z',\n",
       "   'fee': {'type': 'actual', 'value': '36335400003633540'},\n",
       "   'gas_limit': '136794',\n",
       "   'block': 59807267,\n",
       "   'status': 'error',\n",
       "   'method': None,\n",
       "   'confirmations': 11,\n",
       "   'type': 2,\n",
       "   'exchange_rate': '0.497313',\n",
       "   'to': {'ens_domain_name': None,\n",
       "    'hash': '0x0773EDc0438B2EF18FC535b21d0aC77912c308C0',\n",
       "    'implementation_address': None,\n",
       "    'implementation_name': None,\n",
       "    'implementations': [],\n",
       "    'is_contract': False,\n",
       "    'is_verified': False,\n",
       "    'metadata': None,\n",
       "    'name': None,\n",
       "    'private_tags': [],\n",
       "    'public_tags': [],\n",
       "    'watchlist_names': []},\n",
       "   'tx_burnt_fee': '3391304',\n",
       "   'max_fee_per_gas': '300000000030',\n",
       "   'result': 'awaiting_internal_transactions',\n",
       "   'hash': '0xf9ece8a92464da0c262b94c7fedbfe1f3fb42b7dec401ed3676c7ce9db8a40b8',\n",
       "   'gas_price': '300000000030',\n",
       "   'priority_fee': '36335400000242236',\n",
       "   'base_fee_per_gas': '28',\n",
       "   'from': {'ens_domain_name': None,\n",
       "    'hash': '0xb5AFaF2De4B79D63c7c88F2AE76822bBc07A3bfF',\n",
       "    'implementation_address': None,\n",
       "    'implementation_name': None,\n",
       "    'implementations': [],\n",
       "    'is_contract': False,\n",
       "    'is_verified': False,\n",
       "    'metadata': None,\n",
       "    'name': None,\n",
       "    'private_tags': [],\n",
       "    'public_tags': [],\n",
       "    'watchlist_names': []},\n",
       "   'token_transfers': None,\n",
       "   'tx_types': [],\n",
       "   'gas_used': '121118',\n",
       "   'created_contract': None,\n",
       "   'position': 3,\n",
       "   'nonce': 119497,\n",
       "   'has_error_in_internal_txs': None,\n",
       "   'actions': [],\n",
       "   'decoded_input': None,\n",
       "   'token_transfers_overflow': None,\n",
       "   'raw_input': '0x09a0ff8003c04c2d405c69b41cc5cf18c4bf7df647f467f3730e6350caf9e0ff49f912068359da55d1ded9c44f9f19d297a5c59012c8aafd7f494f542008c9ce1c66a2cbaf0208e254253c499c542cef5e3811e1192ce70d8cc03d5c33590a2584ad1c7ceb23fd6bc0add59e62ac25578270cff1b9f6193301002584ad1ca4d8c89f0c20efbe54cba9e7e7a7e509056228d9',\n",
       "   'value': '0',\n",
       "   'max_priority_fee_per_gas': '300000000005',\n",
       "   'revert_reason': None,\n",
       "   'confirmation_duration': [0, 2121.0],\n",
       "   'tx_tag': None},\n",
       "  {'timestamp': '2024-07-25T22:02:45.000000Z',\n",
       "   'fee': {'type': 'actual', 'value': '25938492397352904'},\n",
       "   'gas_limit': '2000000',\n",
       "   'block': 59807267,\n",
       "   'status': 'ok',\n",
       "   'method': None,\n",
       "   'confirmations': 11,\n",
       "   'type': 2,\n",
       "   'exchange_rate': '0.497313',\n",
       "   'to': {'ens_domain_name': None,\n",
       "    'hash': '0x68b3465833fb72A70ecDF485E0e4C7bD8665Fc45',\n",
       "    'implementation_address': None,\n",
       "    'implementation_name': None,\n",
       "    'implementations': [],\n",
       "    'is_contract': False,\n",
       "    'is_verified': False,\n",
       "    'metadata': None,\n",
       "    'name': None,\n",
       "    'private_tags': [],\n",
       "    'public_tags': [],\n",
       "    'watchlist_names': []},\n",
       "   'tx_burnt_fee': '3157728',\n",
       "   'max_fee_per_gas': '230000109929',\n",
       "   'result': 'success',\n",
       "   'hash': '0xca588adbf5ab5ee6bde88ad5872c7a805615c7f509e2ca3b540cb8e12e0f883b',\n",
       "   'gas_price': '230000109929',\n",
       "   'priority_fee': '25938492394195176',\n",
       "   'base_fee_per_gas': '28',\n",
       "   'from': {'ens_domain_name': None,\n",
       "    'hash': '0xbbb5008Da7eF90A416a4389fdad3872D6896CFf9',\n",
       "    'implementation_address': None,\n",
       "    'implementation_name': None,\n",
       "    'implementations': [],\n",
       "    'is_contract': False,\n",
       "    'is_verified': False,\n",
       "    'metadata': None,\n",
       "    'name': None,\n",
       "    'private_tags': [],\n",
       "    'public_tags': [],\n",
       "    'watchlist_names': []},\n",
       "   'token_transfers': None,\n",
       "   'tx_types': ['token_transfer'],\n",
       "   'gas_used': '112776',\n",
       "   'created_contract': None,\n",
       "   'position': 4,\n",
       "   'nonce': 36634,\n",
       "   'has_error_in_internal_txs': None,\n",
       "   'actions': [],\n",
       "   'decoded_input': None,\n",
       "   'token_transfers_overflow': None,\n",
       "   'raw_input': '0x04e45aaf0000000000000000000000005f2f8818002dc64753daedf4a6cb2ccb757cd220000000000000000000000000c2132d05d31c914a87c6611c10748aeb04b58e8f0000000000000000000000000000000000000000000000000000000000000bb8000000000000000000000000bbb5008da7ef90a416a4389fdad3872d6896cff900000000000000000000000000000000000000000000000000000001bbafd4f00000000000000000000000000000000000000000000000000000000014bbc1280000000000000000000000000000000000000000000000000000000000000000',\n",
       "   'value': '0',\n",
       "   'max_priority_fee_per_gas': '230000109929',\n",
       "   'revert_reason': None,\n",
       "   'confirmation_duration': [0, 2121.0],\n",
       "   'tx_tag': None},\n",
       "  {'timestamp': '2024-07-25T22:02:45.000000Z',\n",
       "   'fee': {'type': 'actual', 'value': '43536239163453952'},\n",
       "   'gas_limit': '209935',\n",
       "   'block': 59807267,\n",
       "   'status': 'ok',\n",
       "   'method': 'fillOrderArgs',\n",
       "   'confirmations': 11,\n",
       "   'type': 2,\n",
       "   'exchange_rate': '0.497313',\n",
       "   'to': {'ens_domain_name': None,\n",
       "    'hash': '0xc1B19A08c2798C6930b8F3A44b7B0d08f4E198B8',\n",
       "    'implementation_address': None,\n",
       "    'implementation_name': None,\n",
       "    'implementations': [],\n",
       "    'is_contract': True,\n",
       "    'is_verified': False,\n",
       "    'metadata': None,\n",
       "    'name': None,\n",
       "    'private_tags': [],\n",
       "    'public_tags': [],\n",
       "    'watchlist_names': []},\n",
       "   'tx_burnt_fee': '5458292',\n",
       "   'max_fee_per_gas': '223332627968',\n",
       "   'result': 'success',\n",
       "   'hash': '0xc57bb94fb928952d3a8639e06fe311c77c61a5511c20ef7cf6936af075aebf44',\n",
       "   'gas_price': '223332627968',\n",
       "   'priority_fee': '43536239157995660',\n",
       "   'base_fee_per_gas': '28',\n",
       "   'from': {'ens_domain_name': None,\n",
       "    'hash': '0x8e90675E889fcf027d47B04D859aA537f7052626',\n",
       "    'implementation_address': None,\n",
       "    'implementation_name': None,\n",
       "    'implementations': [],\n",
       "    'is_contract': False,\n",
       "    'is_verified': False,\n",
       "    'metadata': None,\n",
       "    'name': None,\n",
       "    'private_tags': [],\n",
       "    'public_tags': [],\n",
       "    'watchlist_names': []},\n",
       "   'token_transfers': None,\n",
       "   'tx_types': ['contract_call', 'token_transfer'],\n",
       "   'gas_used': '194939',\n",
       "   'created_contract': None,\n",
       "   'position': 5,\n",
       "   'nonce': 15339,\n",
       "   'has_error_in_internal_txs': None,\n",
       "   'actions': [],\n",
       "   'decoded_input': {'method_call': 'fillOrderArgs((uint256,uint256,uint256,uint256,uint256,uint256,uint256,uint256) order, bytes32 r, bytes32 vs, uint256 amount, uint256 takerTraits, bytes args)',\n",
       "    'method_id': 'f497df75',\n",
       "    'parameters': [{'name': 'order',\n",
       "      'type': '(uint256,uint256,uint256,uint256,uint256,uint256,uint256,uint256)',\n",
       "      'value': ['102412815617578504318672931258913280218999387926504370584437143634622992749537',\n",
       "       '728632216162259193624522224313282702015500323933',\n",
       "       '0',\n",
       "       '1071729843020052200486140571488271029340595639939',\n",
       "       '1107971845733491151633663588461822472338118381199',\n",
       "       '49040000000000000000',\n",
       "       '14936306',\n",
       "       '62419173104490761595518734106350460423624858874305919653876601415433440985088']},\n",
       "     {'name': 'r',\n",
       "      'type': 'bytes32',\n",
       "      'value': '0x7270eec896ddef2060c982fc5027433e764832c5c0d4e9d5d9f8568817334785'},\n",
       "     {'name': 'vs',\n",
       "      'type': 'bytes32',\n",
       "      'value': '0x0283f902e3735aa2430a2b6e877b01da7c98e957d1b217c9e203bd41255e7965'},\n",
       "     {'name': 'amount', 'type': 'uint256', 'value': '49040000000000000000'},\n",
       "     {'name': 'takerTraits',\n",
       "      'type': 'uint256',\n",
       "      'value': '57896051385606131699827205913168319863051921003484161704858988749829158801100'},\n",
       "     {'name': 'args',\n",
       "      'type': 'bytes',\n",
       "      'value': '0x000000db0000004a0000004a0000004a0000004a000000250000000000000000fb2809a5314473e1165f6b58018e20ed8f07b8400000000000000066a2cb8b0000b400c4bbfb2809a5314473e1165f6b58018e20ed8f07b8400000000000000066a2cb8b0000b400c4bbfb2809a5314473e1165f6b58018e20ed8f07b84066a2cb7ac0866635457d36ab318d0000f3a44b7b0d08f4e198b80000000000000000000000000000d18bd45f0b94f54a968f0000000000000000000000000000000000000000000000000000c976bf098c4dba0a061d0000000000000000000000000000000000000000000000000000ade19567bb538035ed36000050c1b19a08c2798c6930b8f3a44b7b0d08f4e198b8000000000000000000000000000000000000000000000000000000000000004000000000000000000000000000000000000000000000000000000000000000800000000000000000000000000000000000000000000000000000000000000001000000000000000000000000bbbbbbb520d69a9775e85b458c58c648259fad5f0000000000000000000000000000000000000000000000000000000000000001000000000000000000000000000000000000000000000000000000000000002000000000000000000000000000000000000000000000000000000000000002644dcebcba0000000000000000000000000000000000000000000000000000000066a2cbda000000000000000000000000c1b19a08c2798c6930b8f3a44b7b0d08f4e198b800000000000000000000000051c72848c68a965f66fa7a88855f9f7784502a7f00000000000000000000000000000000000000000000000000000321be8b986b000000000000000000000000bbba073c31bf03b8acf7c28ef0738decf3695683000000000000000000000000c2132d05d31c914a87c6611c10748aeb04b58e8f000000000000000000000000000000000000000000000002a891142cc92800000000000000000000000000000000000000000000000000000000000000e587d9000000000000000000000000c1b19a08c2798c6930b8f3a44b7b0d08f4e198b80000000000000000000000000000000000000000000000000000000000000000965773bfe3e5600000000000000000000000000000000000000000000000000000000000000000000000000000000000000000000000000000000000000001a00000000000000000000000000000000000000000000000000000000000000000000000000000000000000000000000000000000000000000000000000000004000000000000000000000000000000000000000000000000000000000000000010000000000000000000000000000000000000000000000000000000000000041106628115435b43d172c410d7d20847085dea9044bd5f968118b0255c4e61453384c9940f9befc7eefe2779f7667b425b98995985b7d46c23087beba7a7707ed1c0000000000000000000000000000000000000000000000000000000000000000000000000000000000000000000000000000000000000000000000'}]},\n",
       "   'token_transfers_overflow': None,\n",
       "   'raw_input': '0xf497df75e26b9977fab94ce64dea57290ee8540f94a04708587ca238f4b9d43b45a213e10000000000000000000000007fa0ffa2d08cd37e7026a589f58e389eba730c5d0000000000000000000000000000000000000000000000000000000000000000000000000000000000000000bbba073c31bf03b8acf7c28ef0738decf3695683000000000000000000000000c2132d05d31c914a87c6611c10748aeb04b58e8f000000000000000000000000000000000000000000000002a891142cc92800000000000000000000000000000000000000000000000000000000000000e3e8f28a000000000000000000000012540000000066a2cc4b000000000000000000007270eec896ddef2060c982fc5027433e764832c5c0d4e9d5d9f85688173347850283f902e3735aa2430a2b6e877b01da7c98e957d1b217c9e203bd41255e7965000000000000000000000000000000000000000000000002a891142cc9280000800000fb00037400000000000000000000000000000000000000000000e50ecc00000000000000000000000000000000000000000000000000000000000001a0000000000000000000000000000000000000000000000000000000000000046f000000db0000004a0000004a0000004a0000004a000000250000000000000000fb2809a5314473e1165f6b58018e20ed8f07b8400000000000000066a2cb8b0000b400c4bbfb2809a5314473e1165f6b58018e20ed8f07b8400000000000000066a2cb8b0000b400c4bbfb2809a5314473e1165f6b58018e20ed8f07b84066a2cb7ac0866635457d36ab318d0000f3a44b7b0d08f4e198b80000000000000000000000000000d18bd45f0b94f54a968f0000000000000000000000000000000000000000000000000000c976bf098c4dba0a061d0000000000000000000000000000000000000000000000000000ade19567bb538035ed36000050c1b19a08c2798c6930b8f3a44b7b0d08f4e198b8000000000000000000000000000000000000000000000000000000000000004000000000000000000000000000000000000000000000000000000000000000800000000000000000000000000000000000000000000000000000000000000001000000000000000000000000bbbbbbb520d69a9775e85b458c58c648259fad5f0000000000000000000000000000000000000000000000000000000000000001000000000000000000000000000000000000000000000000000000000000002000000000000000000000000000000000000000000000000000000000000002644dcebcba0000000000000000000000000000000000000000000000000000000066a2cbda000000000000000000000000c1b19a08c2798c6930b8f3a44b7b0d08f4e198b800000000000000000000000051c72848c68a965f66fa7a88855f9f7784502a7f00000000000000000000000000000000000000000000000000000321be8b986b000000000000000000000000bbba073c31bf03b8acf7c28ef0738decf3695683000000000000000000000000c2132d05d31c914a87c6611c10748aeb04b58e8f000000000000000000000000000000000000000000000002a891142cc92800000000000000000000000000000000000000000000000000000000000000e587d9000000000000000000000000c1b19a08c2798c6930b8f3a44b7b0d08f4e198b80000000000000000000000000000000000000000000000000000000000000000965773bfe3e5600000000000000000000000000000000000000000000000000000000000000000000000000000000000000000000000000000000000000001a00000000000000000000000000000000000000000000000000000000000000000000000000000000000000000000000000000000000000000000000000000004000000000000000000000000000000000000000000000000000000000000000010000000000000000000000000000000000000000000000000000000000000041106628115435b43d172c410d7d20847085dea9044bd5f968118b0255c4e61453384c9940f9befc7eefe2779f7667b425b98995985b7d46c23087beba7a7707ed1c00000000000000000000000000000000000000000000000000000000000000000000000000000000000000000000000000000000000000000000000000000000000000000000000000000000',\n",
       "   'value': '0',\n",
       "   'max_priority_fee_per_gas': '223332627968',\n",
       "   'revert_reason': None,\n",
       "   'confirmation_duration': [0, 2121.0],\n",
       "   'tx_tag': None},\n",
       "  {'timestamp': '2024-07-25T22:02:45.000000Z',\n",
       "   'fee': {'type': 'actual', 'value': '3951100000000000'},\n",
       "   'gas_limit': '60000',\n",
       "   'block': 59807267,\n",
       "   'status': 'ok',\n",
       "   'method': 'transfer',\n",
       "   'confirmations': 11,\n",
       "   'type': 2,\n",
       "   'exchange_rate': '0.497313',\n",
       "   'to': {'ens_domain_name': None,\n",
       "    'hash': '0xA3fB72CBF2e07dC1b34AEA569Ed40755fd978BD8',\n",
       "    'implementation_address': None,\n",
       "    'implementation_name': None,\n",
       "    'implementations': [],\n",
       "    'is_contract': True,\n",
       "    'is_verified': False,\n",
       "    'metadata': None,\n",
       "    'name': 'Opex',\n",
       "    'private_tags': [],\n",
       "    'public_tags': [],\n",
       "    'watchlist_names': []},\n",
       "   'tx_burnt_fee': '1106308',\n",
       "   'max_fee_per_gas': '100000000000',\n",
       "   'result': 'success',\n",
       "   'hash': '0x33284e138d972873004299e8f6414410deae39f0dd5b7c0dbc8c352eb989f1d0',\n",
       "   'gas_price': '100000000000',\n",
       "   'priority_fee': '3951099998893692',\n",
       "   'base_fee_per_gas': '28',\n",
       "   'from': {'ens_domain_name': None,\n",
       "    'hash': '0x6Dd23E950878B1142772335cD122e92D47876c3E',\n",
       "    'implementation_address': None,\n",
       "    'implementation_name': None,\n",
       "    'implementations': [],\n",
       "    'is_contract': False,\n",
       "    'is_verified': False,\n",
       "    'metadata': None,\n",
       "    'name': None,\n",
       "    'private_tags': [],\n",
       "    'public_tags': [],\n",
       "    'watchlist_names': []},\n",
       "   'token_transfers': None,\n",
       "   'tx_types': ['contract_call', 'token_transfer'],\n",
       "   'gas_used': '39511',\n",
       "   'created_contract': None,\n",
       "   'position': 6,\n",
       "   'nonce': 4509493,\n",
       "   'has_error_in_internal_txs': None,\n",
       "   'actions': [],\n",
       "   'decoded_input': {'method_call': 'transfer(address _to, uint256 _value)',\n",
       "    'method_id': 'a9059cbb',\n",
       "    'parameters': [{'name': '_to',\n",
       "      'type': 'address',\n",
       "      'value': '0xa9e0f73042d9652386262273a17bf4c9db5604f1'},\n",
       "     {'name': '_value', 'type': 'uint256', 'value': '980000000'}]},\n",
       "   'token_transfers_overflow': None,\n",
       "   'raw_input': '0xa9059cbb000000000000000000000000a9e0f73042d9652386262273a17bf4c9db5604f1000000000000000000000000000000000000000000000000000000003a699d00',\n",
       "   'value': '0',\n",
       "   'max_priority_fee_per_gas': '99999999972',\n",
       "   'revert_reason': None,\n",
       "   'confirmation_duration': [0, 2121.0],\n",
       "   'tx_tag': None},\n",
       "  {'timestamp': '2024-07-25T22:02:45.000000Z',\n",
       "   'fee': {'type': 'actual', 'value': '8420560002947196'},\n",
       "   'gas_limit': '205072',\n",
       "   'block': 59807267,\n",
       "   'status': 'ok',\n",
       "   'method': 'claim',\n",
       "   'confirmations': 11,\n",
       "   'type': 0,\n",
       "   'exchange_rate': '0.497313',\n",
       "   'to': {'ens_domain_name': None,\n",
       "    'hash': '0xf6D1B85af155229AcD7B523601148585A1ff67C6',\n",
       "    'implementation_address': None,\n",
       "    'implementation_name': None,\n",
       "    'implementations': [],\n",
       "    'is_contract': True,\n",
       "    'is_verified': True,\n",
       "    'metadata': None,\n",
       "    'name': 'SpaceStationV2',\n",
       "    'private_tags': [],\n",
       "    'public_tags': [],\n",
       "    'watchlist_names': []},\n",
       "   'tx_burnt_fee': None,\n",
       "   'max_fee_per_gas': None,\n",
       "   'result': 'success',\n",
       "   'hash': '0x16ae24d71a2e3d081a7c466d5e48f5c7f1539836d564b26af3c073329396701e',\n",
       "   'gas_price': '80000000028',\n",
       "   'priority_fee': None,\n",
       "   'base_fee_per_gas': '28',\n",
       "   'from': {'ens_domain_name': None,\n",
       "    'hash': '0xFe87F0Ef0674D65CC2Af183Fe2049D6806b4FFCF',\n",
       "    'implementation_address': None,\n",
       "    'implementation_name': None,\n",
       "    'implementations': [],\n",
       "    'is_contract': False,\n",
       "    'is_verified': False,\n",
       "    'metadata': None,\n",
       "    'name': None,\n",
       "    'private_tags': [],\n",
       "    'public_tags': [],\n",
       "    'watchlist_names': []},\n",
       "   'token_transfers': None,\n",
       "   'tx_types': ['contract_call', 'token_transfer'],\n",
       "   'gas_used': '105257',\n",
       "   'created_contract': None,\n",
       "   'position': 7,\n",
       "   'nonce': 191705,\n",
       "   'has_error_in_internal_txs': None,\n",
       "   'actions': [],\n",
       "   'decoded_input': {'method_call': 'claim(uint256 _cid, address _starNFT, uint256 _dummyId, uint256 _powah, address _mintTo, bytes _signature)',\n",
       "    'method_id': 'ef6c5996',\n",
       "    'parameters': [{'name': '_cid', 'type': 'uint256', 'value': '306791'},\n",
       "     {'name': '_starNFT',\n",
       "      'type': 'address',\n",
       "      'value': '0x5d666f215a85b87cb042d59662a7ecd2c8cc44e6'},\n",
       "     {'name': '_dummyId', 'type': 'uint256', 'value': '883626673'},\n",
       "     {'name': '_powah', 'type': 'uint256', 'value': '306791'},\n",
       "     {'name': '_mintTo',\n",
       "      'type': 'address',\n",
       "      'value': '0x4b56d943b8e7f8ff98061c95fa67c4420de19fe3'},\n",
       "     {'name': '_signature',\n",
       "      'type': 'bytes',\n",
       "      'value': '0x4c88755a34ad25a7d4b676b17bbef56ba29aded2a997d57d100a7f063eb685f12ad74c868b5ceb6106e30afa2eed62b77214a3bb481abb16bea0e18a1dcfbf511c'}]},\n",
       "   'token_transfers_overflow': None,\n",
       "   'raw_input': '0xef6c5996000000000000000000000000000000000000000000000000000000000004ae670000000000000000000000005d666f215a85b87cb042d59662a7ecd2c8cc44e60000000000000000000000000000000000000000000000000000000034ab12b1000000000000000000000000000000000000000000000000000000000004ae670000000000000000000000004b56d943b8e7f8ff98061c95fa67c4420de19fe300000000000000000000000000000000000000000000000000000000000000c000000000000000000000000000000000000000000000000000000000000000414c88755a34ad25a7d4b676b17bbef56ba29aded2a997d57d100a7f063eb685f12ad74c868b5ceb6106e30afa2eed62b77214a3bb481abb16bea0e18a1dcfbf511c00000000000000000000000000000000000000000000000000000000000000',\n",
       "   'value': '0',\n",
       "   'max_priority_fee_per_gas': None,\n",
       "   'revert_reason': None,\n",
       "   'confirmation_duration': [0, 2121.0],\n",
       "   'tx_tag': None},\n",
       "  {'timestamp': '2024-07-25T22:02:45.000000Z',\n",
       "   'fee': {'type': 'actual', 'value': '9774972903975130'},\n",
       "   'gas_limit': '600020',\n",
       "   'block': 59807267,\n",
       "   'status': 'ok',\n",
       "   'method': '0xa00597a0',\n",
       "   'confirmations': 11,\n",
       "   'type': 2,\n",
       "   'exchange_rate': '0.497313',\n",
       "   'to': {'ens_domain_name': None,\n",
       "    'hash': '0x802b65b5d9016621E66003aeD0b16615093f328b',\n",
       "    'implementation_address': None,\n",
       "    'implementation_name': None,\n",
       "    'implementations': [],\n",
       "    'is_contract': True,\n",
       "    'is_verified': False,\n",
       "    'metadata': None,\n",
       "    'name': None,\n",
       "    'private_tags': [],\n",
       "    'public_tags': [],\n",
       "    'watchlist_names': []},\n",
       "   'tx_burnt_fee': '3590440',\n",
       "   'max_fee_per_gas': '76230000040',\n",
       "   'result': 'success',\n",
       "   'hash': '0x67b17b86016ebfda33f820a011d2da9743ed225fa302c4952618f483e23d4092',\n",
       "   'gas_price': '76230000031',\n",
       "   'priority_fee': '9774972900384690',\n",
       "   'base_fee_per_gas': '28',\n",
       "   'from': {'ens_domain_name': None,\n",
       "    'hash': '0x734ed107b0B6e1567dd9A703F07C72F88785d308',\n",
       "    'implementation_address': None,\n",
       "    'implementation_name': None,\n",
       "    'implementations': [],\n",
       "    'is_contract': False,\n",
       "    'is_verified': False,\n",
       "    'metadata': None,\n",
       "    'name': None,\n",
       "    'private_tags': [],\n",
       "    'public_tags': [],\n",
       "    'watchlist_names': []},\n",
       "   'token_transfers': None,\n",
       "   'tx_types': ['contract_call', 'token_transfer'],\n",
       "   'gas_used': '128230',\n",
       "   'created_contract': None,\n",
       "   'position': 8,\n",
       "   'nonce': 119296,\n",
       "   'has_error_in_internal_txs': None,\n",
       "   'actions': [],\n",
       "   'decoded_input': None,\n",
       "   'token_transfers_overflow': None,\n",
       "   'raw_input': '0xa00597a000000000000000000000000000000000000000000000000000000000608dd289000000000000000000000000000000000000454f0a8ff096c4b3c208da5dc3640000000000000000000000002791bca1f2de4661ed88a30c99a7a9449aa84174000000000000000000000000000000000000000000000000000000000000000100000000000000000000000045dda9cb7c25131df268515131f647d726f506080000000000000000000000000000000000000000000000000000000066a2cc36',\n",
       "   'value': '0',\n",
       "   'max_priority_fee_per_gas': '76230000003',\n",
       "   'revert_reason': None,\n",
       "   'confirmation_duration': [0, 2121.0],\n",
       "   'tx_tag': None},\n",
       "  {'timestamp': '2024-07-25T22:02:45.000000Z',\n",
       "   'fee': {'type': 'actual', 'value': '6550800006114080'},\n",
       "   'gas_limit': '500000',\n",
       "   'block': 59807267,\n",
       "   'status': 'ok',\n",
       "   'method': '0x744fb6ca',\n",
       "   'confirmations': 11,\n",
       "   'type': 0,\n",
       "   'exchange_rate': '0.497313',\n",
       "   'to': {'ens_domain_name': None,\n",
       "    'hash': '0x3C1A1252aF117F0aD43f9e58CCB739Ab2f8787F5',\n",
       "    'implementation_address': None,\n",
       "    'implementation_name': None,\n",
       "    'implementations': [],\n",
       "    'is_contract': True,\n",
       "    'is_verified': False,\n",
       "    'metadata': None,\n",
       "    'name': 'Gas Hero Token',\n",
       "    'private_tags': [],\n",
       "    'public_tags': [],\n",
       "    'watchlist_names': []},\n",
       "   'tx_burnt_fee': None,\n",
       "   'max_fee_per_gas': None,\n",
       "   'result': 'success',\n",
       "   'hash': '0x1d7ab0b7d74fdae8fe1891053490cc20428fdfc3e71d1c6629c2a0afc558bf35',\n",
       "   'gas_price': '75000000070',\n",
       "   'priority_fee': None,\n",
       "   'base_fee_per_gas': '28',\n",
       "   'from': {'ens_domain_name': None,\n",
       "    'hash': '0xc8E9e6b106821dda3dE70cEA5C652E7d4fB2A9A1',\n",
       "    'implementation_address': None,\n",
       "    'implementation_name': None,\n",
       "    'implementations': [],\n",
       "    'is_contract': False,\n",
       "    'is_verified': False,\n",
       "    'metadata': None,\n",
       "    'name': None,\n",
       "    'private_tags': [],\n",
       "    'public_tags': [],\n",
       "    'watchlist_names': []},\n",
       "   'token_transfers': None,\n",
       "   'tx_types': ['contract_call', 'token_transfer'],\n",
       "   'gas_used': '87344',\n",
       "   'created_contract': None,\n",
       "   'position': 9,\n",
       "   'nonce': 376,\n",
       "   'has_error_in_internal_txs': None,\n",
       "   'actions': [],\n",
       "   'decoded_input': None,\n",
       "   'token_transfers_overflow': None,\n",
       "   'raw_input': '0x744fb6ca000000000000000000000000000000000000000000000000000000e8d4b334c0000000000000000000000000000000000000000000000000000000003b9aca0000000000000000000000000000000000000000000000000000000000000000600000000000000000000000000000000000000000000000000000000000000041c934f42445d72e0c4378563cc7422d1dac16aa5e658a6b4d929a385a9ef20f9c24b0b550aab444c0d7b478654a865d15b470d1fb9f8096e69e0a347d75cf5fe31c00000000000000000000000000000000000000000000000000000000000000',\n",
       "   'value': '0',\n",
       "   'max_priority_fee_per_gas': None,\n",
       "   'revert_reason': None,\n",
       "   'confirmation_duration': [0, 2121.0],\n",
       "   'tx_tag': None},\n",
       "  {'timestamp': '2024-07-25T22:02:45.000000Z',\n",
       "   'fee': {'type': 'actual', 'value': '4076250003804500'},\n",
       "   'gas_limit': '500000',\n",
       "   'block': 59807267,\n",
       "   'status': 'ok',\n",
       "   'method': 'lock',\n",
       "   'confirmations': 11,\n",
       "   'type': 0,\n",
       "   'exchange_rate': '0.497313',\n",
       "   'to': {'ens_domain_name': None,\n",
       "    'hash': '0xA07Cd19aE5e1272B35846e5b91551548f2AeA9d1',\n",
       "    'implementation_address': None,\n",
       "    'implementation_name': None,\n",
       "    'implementations': [],\n",
       "    'is_contract': True,\n",
       "    'is_verified': False,\n",
       "    'metadata': None,\n",
       "    'name': 'Gas Hero Pets',\n",
       "    'private_tags': [],\n",
       "    'public_tags': [],\n",
       "    'watchlist_names': []},\n",
       "   'tx_burnt_fee': None,\n",
       "   'max_fee_per_gas': None,\n",
       "   'result': 'success',\n",
       "   'hash': '0x29afee435357aecf2cf3b15573cbb800ff7aaae668edc2fd38f1ebe69a454bb0',\n",
       "   'gas_price': '75000000070',\n",
       "   'priority_fee': None,\n",
       "   'base_fee_per_gas': '28',\n",
       "   'from': {'ens_domain_name': None,\n",
       "    'hash': '0xec162DE5A5d56A9F816d50aAa91a301aF680c82d',\n",
       "    'implementation_address': None,\n",
       "    'implementation_name': None,\n",
       "    'implementations': [],\n",
       "    'is_contract': False,\n",
       "    'is_verified': False,\n",
       "    'metadata': None,\n",
       "    'name': None,\n",
       "    'private_tags': [],\n",
       "    'public_tags': [],\n",
       "    'watchlist_names': []},\n",
       "   'token_transfers': None,\n",
       "   'tx_types': ['contract_call'],\n",
       "   'gas_used': '54350',\n",
       "   'created_contract': None,\n",
       "   'position': 10,\n",
       "   'nonce': 648,\n",
       "   'has_error_in_internal_txs': None,\n",
       "   'actions': [],\n",
       "   'decoded_input': {'method_call': 'lock(uint256[] tokenIds)',\n",
       "    'method_id': '859610c6',\n",
       "    'parameters': [{'name': 'tokenIds',\n",
       "      'type': 'uint256[]',\n",
       "      'value': ['550831362137']}]},\n",
       "   'token_transfers_overflow': None,\n",
       "   'raw_input': '0x859610c60000000000000000000000000000000000000000000000000000000000000020000000000000000000000000000000000000000000000000000000000000000100000000000000000000000000000000000000000000000000000080401b9059',\n",
       "   'value': '0',\n",
       "   'max_priority_fee_per_gas': None,\n",
       "   'revert_reason': None,\n",
       "   'confirmation_duration': [0, 2121.0],\n",
       "   'tx_tag': None},\n",
       "  {'timestamp': '2024-07-25T22:02:45.000000Z',\n",
       "   'fee': {'type': 'actual', 'value': '1875321000833476'},\n",
       "   'gas_limit': '600000',\n",
       "   'block': 59807267,\n",
       "   'status': 'error',\n",
       "   'method': '0x00000001',\n",
       "   'confirmations': 11,\n",
       "   'type': 2,\n",
       "   'exchange_rate': '0.497313',\n",
       "   'to': {'ens_domain_name': None,\n",
       "    'hash': '0xDd5917f5544BF2e0255a801E9Cfd066A4399a68D',\n",
       "    'implementation_address': None,\n",
       "    'implementation_name': None,\n",
       "    'implementations': [],\n",
       "    'is_contract': True,\n",
       "    'is_verified': False,\n",
       "    'metadata': None,\n",
       "    'name': None,\n",
       "    'private_tags': [],\n",
       "    'public_tags': [],\n",
       "    'watchlist_names': []},\n",
       "   'tx_burnt_fee': '833476',\n",
       "   'max_fee_per_gas': '1063000000028',\n",
       "   'result': 'awaiting_internal_transactions',\n",
       "   'hash': '0xe4e1ee8e813a8bb6ce826a2e333adbd60c69ea6bd68812a2df40caa1dfb86569',\n",
       "   'gas_price': '63000000028',\n",
       "   'priority_fee': '1875321000000000',\n",
       "   'base_fee_per_gas': '28',\n",
       "   'from': {'ens_domain_name': None,\n",
       "    'hash': '0x3ab5DAbb00B8829FB529d288Bc53214b96dB231F',\n",
       "    'implementation_address': None,\n",
       "    'implementation_name': None,\n",
       "    'implementations': [],\n",
       "    'is_contract': False,\n",
       "    'is_verified': False,\n",
       "    'metadata': None,\n",
       "    'name': None,\n",
       "    'private_tags': [],\n",
       "    'public_tags': [],\n",
       "    'watchlist_names': []},\n",
       "   'token_transfers': None,\n",
       "   'tx_types': ['contract_call'],\n",
       "   'gas_used': '29767',\n",
       "   'created_contract': None,\n",
       "   'position': 11,\n",
       "   'nonce': 549652,\n",
       "   'has_error_in_internal_txs': None,\n",
       "   'actions': [],\n",
       "   'decoded_input': None,\n",
       "   'token_transfers_overflow': None,\n",
       "   'raw_input': '0x0000000100000000000000000000000000000000000000000000000000000000311b18e2000000000000000000000000000000000000000000000000039911e7249e84002791bca1f2de4661ed88a30c99a7a9449aa841747ceb23fd6bc0add59e62ac25578270cff1b9f6190001f400000000000045518d0000000000000000000000',\n",
       "   'value': '0',\n",
       "   'max_priority_fee_per_gas': '63000000000',\n",
       "   'revert_reason': None,\n",
       "   'confirmation_duration': [0, 2121.0],\n",
       "   'tx_tag': None},\n",
       "  {'timestamp': '2024-07-25T22:02:45.000000Z',\n",
       "   'fee': {'type': 'actual', 'value': '2452566000000000'},\n",
       "   'gas_limit': '68782',\n",
       "   'block': 59807267,\n",
       "   'status': 'ok',\n",
       "   'method': 'transfer',\n",
       "   'confirmations': 11,\n",
       "   'type': 0,\n",
       "   'exchange_rate': '0.497313',\n",
       "   'to': {'ens_domain_name': None,\n",
       "    'hash': '0xc2132D05D31c914a87C6611C10748AEb04B58e8F',\n",
       "    'implementation_address': '0x7FFB3d637014488b63fb9858E279385685AFc1e2',\n",
       "    'implementation_name': 'UChildERC20',\n",
       "    'implementations': [{'address': '0x7FFB3d637014488b63fb9858E279385685AFc1e2',\n",
       "      'name': 'UChildERC20'}],\n",
       "    'is_contract': True,\n",
       "    'is_verified': True,\n",
       "    'metadata': None,\n",
       "    'name': 'UChildERC20Proxy',\n",
       "    'private_tags': [],\n",
       "    'public_tags': [],\n",
       "    'watchlist_names': []},\n",
       "   'tx_burnt_fee': None,\n",
       "   'max_fee_per_gas': None,\n",
       "   'result': 'success',\n",
       "   'hash': '0x5e390f9f012f9f49582cc3d94de406c9abae15aa8cc3f99435e9a967bec96fcf',\n",
       "   'gas_price': '61000000000',\n",
       "   'priority_fee': None,\n",
       "   'base_fee_per_gas': '28',\n",
       "   'from': {'ens_domain_name': None,\n",
       "    'hash': '0x2caB3DEfed9CC52827ecf37536A131C7da6CD5Aa',\n",
       "    'implementation_address': None,\n",
       "    'implementation_name': None,\n",
       "    'implementations': [],\n",
       "    'is_contract': False,\n",
       "    'is_verified': False,\n",
       "    'metadata': None,\n",
       "    'name': None,\n",
       "    'private_tags': [],\n",
       "    'public_tags': [],\n",
       "    'watchlist_names': []},\n",
       "   'token_transfers': None,\n",
       "   'tx_types': ['contract_call', 'token_transfer'],\n",
       "   'gas_used': '40206',\n",
       "   'created_contract': None,\n",
       "   'position': 12,\n",
       "   'nonce': 130229,\n",
       "   'has_error_in_internal_txs': None,\n",
       "   'actions': [],\n",
       "   'decoded_input': {'method_call': 'transfer(address recipient, uint256 amount)',\n",
       "    'method_id': 'a9059cbb',\n",
       "    'parameters': [{'name': 'recipient',\n",
       "      'type': 'address',\n",
       "      'value': '0xc23446a0d6ec2fcddc457199cd82bd50127ca9b4'},\n",
       "     {'name': 'amount', 'type': 'uint256', 'value': '99995858'}]},\n",
       "   'token_transfers_overflow': None,\n",
       "   'raw_input': '0xa9059cbb000000000000000000000000c23446a0d6ec2fcddc457199cd82bd50127ca9b40000000000000000000000000000000000000000000000000000000005f5d0d2',\n",
       "   'value': '0',\n",
       "   'max_priority_fee_per_gas': None,\n",
       "   'revert_reason': None,\n",
       "   'confirmation_duration': [0, 2121.0],\n",
       "   'tx_tag': None},\n",
       "  {'timestamp': '2024-07-25T22:02:45.000000Z',\n",
       "   'fee': {'type': 'actual', 'value': '8334420004028303'},\n",
       "   'gas_limit': '4000000',\n",
       "   'block': 59807267,\n",
       "   'status': 'ok',\n",
       "   'method': 'forward',\n",
       "   'confirmations': 11,\n",
       "   'type': 0,\n",
       "   'exchange_rate': '0.497313',\n",
       "   'to': {'ens_domain_name': None,\n",
       "    'hash': '0xc3a80Ca6D79137f79393f4478c40A09270Ae4B61',\n",
       "    'implementation_address': None,\n",
       "    'implementation_name': None,\n",
       "    'implementations': [],\n",
       "    'is_contract': True,\n",
       "    'is_verified': False,\n",
       "    'metadata': None,\n",
       "    'name': None,\n",
       "    'private_tags': [],\n",
       "    'public_tags': [],\n",
       "    'watchlist_names': []},\n",
       "   'tx_burnt_fee': None,\n",
       "   'max_fee_per_gas': None,\n",
       "   'result': 'success',\n",
       "   'hash': '0xec8fa9894eeaca0962163bad547760937a5affb585281c8feb00a1b354f0b144',\n",
       "   'gas_price': '60000000029',\n",
       "   'priority_fee': None,\n",
       "   'base_fee_per_gas': '28',\n",
       "   'from': {'ens_domain_name': None,\n",
       "    'hash': '0xC2a5c4518849E85C424993f16AbA347165b734B7',\n",
       "    'implementation_address': None,\n",
       "    'implementation_name': None,\n",
       "    'implementations': [],\n",
       "    'is_contract': False,\n",
       "    'is_verified': False,\n",
       "    'metadata': None,\n",
       "    'name': None,\n",
       "    'private_tags': [],\n",
       "    'public_tags': [],\n",
       "    'watchlist_names': []},\n",
       "   'token_transfers': None,\n",
       "   'tx_types': ['contract_call'],\n",
       "   'gas_used': '138907',\n",
       "   'created_contract': None,\n",
       "   'position': 13,\n",
       "   'nonce': 9046474,\n",
       "   'has_error_in_internal_txs': None,\n",
       "   'actions': [],\n",
       "   'decoded_input': {'method_call': 'forward(address to, bytes data)',\n",
       "    'method_id': '6fadcf72',\n",
       "    'parameters': [{'name': 'to',\n",
       "      'type': 'address',\n",
       "      'value': '0x15cc6dba96cd9482c3fd565d2d3ddfb595f71e67'},\n",
       "     {'name': 'data',\n",
       "      'type': 'bytes',\n",
       "      'value': '0xb1dc65a4000187182a8f74afb5a149b7055657307129f36decd503aee26a5324ab47d9f60000000000000000000000000000000000000000000000000000000000ff1d04a509bc7970abc0622d68135f307000e1b41d2ba298db1a50acf16310becf485000000000000000000000000000000000000000000000000000000000000000e000000000000000000000000000000000000000000000000000000000000003a00000000000000000000000000000000000000000000000000000000000000480000100000000000000000000000000000000000000000000000000000000000000000000000000000000000000000000000000000000000000000000000002a00000000000000000000000000000000000000000000000000000000066a2cb80090f0c0d08030a0e020b01060500070400000000000000000000000000000000000000000000000000000000000000000000000000000000000000000000008000000000000000000000000000000000000000000000000000886902321b8b9800000000000000000000000000000000000000000000000000000000000000100000000000000000000000000000000000000000000000000000000002f3ff280000000000000000000000000000000000000000000000000000000002f401ae0000000000000000000000000000000000000000000000000000000002f404350000000000000000000000000000000000000000000000000000000002f4076a0000000000000000000000000000000000000000000000000000000002f4076a0000000000000000000000000000000000000000000000000000000002f40cbb0000000000000000000000000000000000000000000000000000000002f40cbb0000000000000000000000000000000000000000000000000000000002f40cbb0000000000000000000000000000000000000000000000000000000002f412fb0000000000000000000000000000000000000000000000000000000002f429d00000000000000000000000000000000000000000000000000000000002f435c50000000000000000000000000000000000000000000000000000000002f441900000000000000000000000000000000000000000000000000000000002f441900000000000000000000000000000000000000000000000000000000002f44cb70000000000000000000000000000000000000000000000000000000002f460d00000000000000000000000000000000000000000000000000000000002f460d000000000000000000000000000000000000000000000000000000000000000061ee2098094543bec17748c241d19d8e66d75fc1f6a22a4444b1b683a827b020823e5f4d019ac0c38c53da96af70a97d815963bf43a0d60124df24422d542c30e6a50020b789ba02d0c710895b6a0f6a6bf63e57e860f478bc11b76d59c893e8864976d463c834022df0e53bc6b55f3967cc0729fc8773b1d06c984162251bbfa963fcbf5e802b87b45f6a03bbe2db90ef2e72d71e2abc6d02137bca3c40bccecff3b20d2f8fb098d6e91a32ad52d67b48456f82579e0905e03914ff163084b56000000000000000000000000000000000000000000000000000000000000000671f17670b8acb671d21c845cd312149e4e4c6da8d4f6433f5f0749045017d0446990ea4b9f57eb8c9a770e3e18d83e313c35dfae8114475146d5c602488ab54604ecc2e46c3f778787e9e68570ee53e43e1a217e2ced9ca9878e031b3ac89f814317032779cfd4aa7a068d1ad2828f5aa44d64be70e3da2886a832c1b9190d1f415597b4b6a1be9882685034cdec2522a7613141f7a64b875f6632c128e19dc87bf58afbc14ab674803786167bd9cfc9be61d2af83ec32649bfc42c7876f15a1'}]},\n",
       "   'token_transfers_overflow': None,\n",
       "   'raw_input': '0x6fadcf7200000000000000000000000015cc6dba96cd9482c3fd565d2d3ddfb595f71e6700000000000000000000000000000000000000000000000000000000000000400000000000000000000000000000000000000000000000000000000000000564b1dc65a4000187182a8f74afb5a149b7055657307129f36decd503aee26a5324ab47d9f60000000000000000000000000000000000000000000000000000000000ff1d04a509bc7970abc0622d68135f307000e1b41d2ba298db1a50acf16310becf485000000000000000000000000000000000000000000000000000000000000000e000000000000000000000000000000000000000000000000000000000000003a00000000000000000000000000000000000000000000000000000000000000480000100000000000000000000000000000000000000000000000000000000000000000000000000000000000000000000000000000000000000000000000002a00000000000000000000000000000000000000000000000000000000066a2cb80090f0c0d08030a0e020b01060500070400000000000000000000000000000000000000000000000000000000000000000000000000000000000000000000008000000000000000000000000000000000000000000000000000886902321b8b9800000000000000000000000000000000000000000000000000000000000000100000000000000000000000000000000000000000000000000000000002f3ff280000000000000000000000000000000000000000000000000000000002f401ae0000000000000000000000000000000000000000000000000000000002f404350000000000000000000000000000000000000000000000000000000002f4076a0000000000000000000000000000000000000000000000000000000002f4076a0000000000000000000000000000000000000000000000000000000002f40cbb0000000000000000000000000000000000000000000000000000000002f40cbb0000000000000000000000000000000000000000000000000000000002f40cbb0000000000000000000000000000000000000000000000000000000002f412fb0000000000000000000000000000000000000000000000000000000002f429d00000000000000000000000000000000000000000000000000000000002f435c50000000000000000000000000000000000000000000000000000000002f441900000000000000000000000000000000000000000000000000000000002f441900000000000000000000000000000000000000000000000000000000002f44cb70000000000000000000000000000000000000000000000000000000002f460d00000000000000000000000000000000000000000000000000000000002f460d000000000000000000000000000000000000000000000000000000000000000061ee2098094543bec17748c241d19d8e66d75fc1f6a22a4444b1b683a827b020823e5f4d019ac0c38c53da96af70a97d815963bf43a0d60124df24422d542c30e6a50020b789ba02d0c710895b6a0f6a6bf63e57e860f478bc11b76d59c893e8864976d463c834022df0e53bc6b55f3967cc0729fc8773b1d06c984162251bbfa963fcbf5e802b87b45f6a03bbe2db90ef2e72d71e2abc6d02137bca3c40bccecff3b20d2f8fb098d6e91a32ad52d67b48456f82579e0905e03914ff163084b56000000000000000000000000000000000000000000000000000000000000000671f17670b8acb671d21c845cd312149e4e4c6da8d4f6433f5f0749045017d0446990ea4b9f57eb8c9a770e3e18d83e313c35dfae8114475146d5c602488ab54604ecc2e46c3f778787e9e68570ee53e43e1a217e2ced9ca9878e031b3ac89f814317032779cfd4aa7a068d1ad2828f5aa44d64be70e3da2886a832c1b9190d1f415597b4b6a1be9882685034cdec2522a7613141f7a64b875f6632c128e19dc87bf58afbc14ab674803786167bd9cfc9be61d2af83ec32649bfc42c7876f15a100000000000000000000000000000000000000000000000000000000',\n",
       "   'value': '0',\n",
       "   'max_priority_fee_per_gas': None,\n",
       "   'revert_reason': None,\n",
       "   'confirmation_duration': [0, 2121.0],\n",
       "   'tx_tag': None},\n",
       "  {'timestamp': '2024-07-25T22:02:45.000000Z',\n",
       "   'fee': {'type': 'actual', 'value': '3438360000000000'},\n",
       "   'gas_limit': '150000',\n",
       "   'block': 59807267,\n",
       "   'status': 'ok',\n",
       "   'method': 'transfer',\n",
       "   'confirmations': 11,\n",
       "   'type': 0,\n",
       "   'exchange_rate': '0.497313',\n",
       "   'to': {'ens_domain_name': None,\n",
       "    'hash': '0xc2132D05D31c914a87C6611C10748AEb04B58e8F',\n",
       "    'implementation_address': '0x7FFB3d637014488b63fb9858E279385685AFc1e2',\n",
       "    'implementation_name': 'UChildERC20',\n",
       "    'implementations': [{'address': '0x7FFB3d637014488b63fb9858E279385685AFc1e2',\n",
       "      'name': 'UChildERC20'}],\n",
       "    'is_contract': True,\n",
       "    'is_verified': True,\n",
       "    'metadata': None,\n",
       "    'name': 'UChildERC20Proxy',\n",
       "    'private_tags': [],\n",
       "    'public_tags': [],\n",
       "    'watchlist_names': []},\n",
       "   'tx_burnt_fee': None,\n",
       "   'max_fee_per_gas': None,\n",
       "   'result': 'success',\n",
       "   'hash': '0x70266f7a451ddf1bbd1f55bba0c83d07762606a2265fbba3c8905433e4e27be2',\n",
       "   'gas_price': '60000000000',\n",
       "   'priority_fee': None,\n",
       "   'base_fee_per_gas': '28',\n",
       "   'from': {'ens_domain_name': None,\n",
       "    'hash': '0x29e943FF0E16427bD6548834dC299F0aA7eAF2f1',\n",
       "    'implementation_address': None,\n",
       "    'implementation_name': None,\n",
       "    'implementations': [],\n",
       "    'is_contract': False,\n",
       "    'is_verified': False,\n",
       "    'metadata': None,\n",
       "    'name': None,\n",
       "    'private_tags': [],\n",
       "    'public_tags': [],\n",
       "    'watchlist_names': []},\n",
       "   'token_transfers': None,\n",
       "   'tx_types': ['contract_call', 'token_transfer'],\n",
       "   'gas_used': '57306',\n",
       "   'created_contract': None,\n",
       "   'position': 14,\n",
       "   'nonce': 1430679,\n",
       "   'has_error_in_internal_txs': None,\n",
       "   'actions': [],\n",
       "   'decoded_input': {'method_call': 'transfer(address recipient, uint256 amount)',\n",
       "    'method_id': 'a9059cbb',\n",
       "    'parameters': [{'name': 'recipient',\n",
       "      'type': 'address',\n",
       "      'value': '0x716bee6e585bdbeb12f5e5a594f6f3d603da4dad'},\n",
       "     {'name': 'amount', 'type': 'uint256', 'value': '58429200'}]},\n",
       "   'token_transfers_overflow': None,\n",
       "   'raw_input': '0xa9059cbb000000000000000000000000716bee6e585bdbeb12f5e5a594f6f3d603da4dad00000000000000000000000000000000000000000000000000000000037b8f10',\n",
       "   'value': '0',\n",
       "   'max_priority_fee_per_gas': None,\n",
       "   'revert_reason': None,\n",
       "   'confirmation_duration': [0, 2121.0],\n",
       "   'tx_tag': None},\n",
       "  {'timestamp': '2024-07-25T22:02:45.000000Z',\n",
       "   'fee': {'type': 'actual', 'value': '2083864321728514'},\n",
       "   'gas_limit': '57049',\n",
       "   'block': 59807267,\n",
       "   'status': 'ok',\n",
       "   'method': '0xa9059cbb',\n",
       "   'confirmations': 11,\n",
       "   'type': 0,\n",
       "   'exchange_rate': '0.497313',\n",
       "   'to': {'ens_domain_name': None,\n",
       "    'hash': '0x8f3Cf7ad23Cd3CaDbD9735AFf958023239c6A063',\n",
       "    'implementation_address': '0x490e379C9cFF64944bE82b849F8FD5972C7999A7',\n",
       "    'implementation_name': None,\n",
       "    'implementations': [{'address': '0x490e379C9cFF64944bE82b849F8FD5972C7999A7',\n",
       "      'name': None}],\n",
       "    'is_contract': True,\n",
       "    'is_verified': True,\n",
       "    'metadata': None,\n",
       "    'name': 'RootChainManagerProxy',\n",
       "    'private_tags': [],\n",
       "    'public_tags': [],\n",
       "    'watchlist_names': []},\n",
       "   'tx_burnt_fee': None,\n",
       "   'max_fee_per_gas': None,\n",
       "   'result': 'success',\n",
       "   'hash': '0x8e310d5a4b45d09ed158ef563343793baaa7372de69d626e49e17a07a40a033f',\n",
       "   'gas_price': '51840000043',\n",
       "   'priority_fee': None,\n",
       "   'base_fee_per_gas': '28',\n",
       "   'from': {'ens_domain_name': None,\n",
       "    'hash': '0xAdd8BFe51E51752a683142c2B4ad6FC6D173C21E',\n",
       "    'implementation_address': None,\n",
       "    'implementation_name': None,\n",
       "    'implementations': [],\n",
       "    'is_contract': False,\n",
       "    'is_verified': False,\n",
       "    'metadata': None,\n",
       "    'name': None,\n",
       "    'private_tags': [],\n",
       "    'public_tags': [],\n",
       "    'watchlist_names': []},\n",
       "   'token_transfers': None,\n",
       "   'tx_types': ['contract_call', 'token_transfer'],\n",
       "   'gas_used': '40198',\n",
       "   'created_contract': None,\n",
       "   'position': 15,\n",
       "   'nonce': 82,\n",
       "   'has_error_in_internal_txs': None,\n",
       "   'actions': [],\n",
       "   'decoded_input': None,\n",
       "   'token_transfers_overflow': None,\n",
       "   'raw_input': '0xa9059cbb0000000000000000000000001a948505551049289e21efc55bdb740d2a61403900000000000000000000000000000000000000000000001b1ae4d6e2ef500000',\n",
       "   'value': '0',\n",
       "   'max_priority_fee_per_gas': None,\n",
       "   'revert_reason': None,\n",
       "   'confirmation_duration': [0, 2121.0],\n",
       "   'tx_tag': None},\n",
       "  {'timestamp': '2024-07-25T22:02:45.000000Z',\n",
       "   'fee': {'type': 'actual', 'value': '2432019041217837'},\n",
       "   'gas_limit': '300000',\n",
       "   'block': 59807267,\n",
       "   'status': 'ok',\n",
       "   'method': '0x4a502f39',\n",
       "   'confirmations': 11,\n",
       "   'type': 2,\n",
       "   'exchange_rate': '0.497313',\n",
       "   'to': {'ens_domain_name': None,\n",
       "    'hash': '0x2A8Ede62D0717C8C92b88639ecf603FDF31A8428',\n",
       "    'implementation_address': None,\n",
       "    'implementation_name': None,\n",
       "    'implementations': [],\n",
       "    'is_contract': True,\n",
       "    'is_verified': False,\n",
       "    'metadata': None,\n",
       "    'name': None,\n",
       "    'private_tags': [],\n",
       "    'public_tags': [],\n",
       "    'watchlist_names': []},\n",
       "   'tx_burnt_fee': '1337756',\n",
       "   'max_fee_per_gas': '50903552809',\n",
       "   'result': 'success',\n",
       "   'hash': '0x45eb2112910cc4c795f6c7cd67bf1c63f08b6ed17dc2b7959409cad314604c2b',\n",
       "   'gas_price': '50903552781',\n",
       "   'priority_fee': '2432019039880081',\n",
       "   'base_fee_per_gas': '28',\n",
       "   'from': {'ens_domain_name': None,\n",
       "    'hash': '0xbD8679cf79137042214fA4239b02F4022208EE82',\n",
       "    'implementation_address': None,\n",
       "    'implementation_name': None,\n",
       "    'implementations': [],\n",
       "    'is_contract': False,\n",
       "    'is_verified': False,\n",
       "    'metadata': None,\n",
       "    'name': None,\n",
       "    'private_tags': [],\n",
       "    'public_tags': [],\n",
       "    'watchlist_names': []},\n",
       "   'token_transfers': None,\n",
       "   'tx_types': ['contract_call'],\n",
       "   'gas_used': '47777',\n",
       "   'created_contract': None,\n",
       "   'position': 16,\n",
       "   'nonce': 220240,\n",
       "   'has_error_in_internal_txs': None,\n",
       "   'actions': [],\n",
       "   'decoded_input': None,\n",
       "   'token_transfers_overflow': None,\n",
       "   'raw_input': '0x4a502f3900000000000000000000000000000000000000000000000000000000000000a00000000000000000000000000000000000000000000000000000000000000100000000000000000000000000000000000000000000000000000000000000016000000000000000000000000000000000000000000000000000000000000001c00000000000000000000000000000000000000000000000000000000066a2cb8200000000000000000000000000000000000000000000000000000000000000020000000000000000000000001bfd67037b42cf73acf2047067bd4f2c47d9bfd60000000000000000000000007ceb23fd6bc0add59e62ac25578270cff1b9f6190000000000000000000000000000000000000000000000000000000000000002000000000000000000000000000000000000000000000000000005ff51f351a000000000000000000000000000000000000000000000000000000049fe12fd7000000000000000000000000000000000000000000000000000000000000000020000000000000000000000000000000000000000000000000003a74f195e57000000000000000000000000000000000000000000000000000001fe6b36bca880000000000000000000000000000000000000000000000000000000000000000200000000000000000000000000000000000000000000000000000001872305cc00000000000000000000000000000000000000000000000000000000c39182b4',\n",
       "   'value': '0',\n",
       "   'max_priority_fee_per_gas': '50903552753',\n",
       "   'revert_reason': None,\n",
       "   'confirmation_duration': [0, 2121.0],\n",
       "   'tx_tag': None},\n",
       "  {'timestamp': '2024-07-25T22:02:45.000000Z',\n",
       "   'fee': {'type': 'actual', 'value': '1050000000588000'},\n",
       "   'gas_limit': '318236',\n",
       "   'block': 59807267,\n",
       "   'status': 'ok',\n",
       "   'method': None,\n",
       "   'confirmations': 11,\n",
       "   'type': 2,\n",
       "   'exchange_rate': '0.497313',\n",
       "   'to': {'ens_domain_name': None,\n",
       "    'hash': '0x89c3556518511E3475D9691B286340f55C158548',\n",
       "    'implementation_address': None,\n",
       "    'implementation_name': None,\n",
       "    'implementations': [],\n",
       "    'is_contract': False,\n",
       "    'is_verified': False,\n",
       "    'metadata': None,\n",
       "    'name': None,\n",
       "    'private_tags': [],\n",
       "    'public_tags': [],\n",
       "    'watchlist_names': []},\n",
       "   'tx_burnt_fee': '588000',\n",
       "   'max_fee_per_gas': '60000000056',\n",
       "   'result': 'success',\n",
       "   'hash': '0x8c02eb9656e7dea60ea16cf8c0631523439dfbe4f09b52f5eb4559aa200adfef',\n",
       "   'gas_price': '50000000028',\n",
       "   'priority_fee': '1050000000000000',\n",
       "   'base_fee_per_gas': '28',\n",
       "   'from': {'ens_domain_name': None,\n",
       "    'hash': '0x290275e3db66394C52272398959845170E4DCb88',\n",
       "    'implementation_address': None,\n",
       "    'implementation_name': None,\n",
       "    'implementations': [],\n",
       "    'is_contract': False,\n",
       "    'is_verified': False,\n",
       "    'metadata': None,\n",
       "    'name': None,\n",
       "    'private_tags': [],\n",
       "    'public_tags': [],\n",
       "    'watchlist_names': []},\n",
       "   'token_transfers': None,\n",
       "   'tx_types': ['coin_transfer'],\n",
       "   'gas_used': '21000',\n",
       "   'created_contract': None,\n",
       "   'position': 17,\n",
       "   'nonce': 1713667,\n",
       "   'has_error_in_internal_txs': None,\n",
       "   'actions': [],\n",
       "   'decoded_input': None,\n",
       "   'token_transfers_overflow': None,\n",
       "   'raw_input': '0x',\n",
       "   'value': '12007900000000000000',\n",
       "   'max_priority_fee_per_gas': '50000000000',\n",
       "   'revert_reason': None,\n",
       "   'confirmation_duration': [0, 2121.0],\n",
       "   'tx_tag': None},\n",
       "  {'timestamp': '2024-07-25T22:02:45.000000Z',\n",
       "   'fee': {'type': 'actual', 'value': '2864700001604232'},\n",
       "   'gas_limit': '318236',\n",
       "   'block': 59807267,\n",
       "   'status': 'ok',\n",
       "   'method': 'transfer',\n",
       "   'confirmations': 11,\n",
       "   'type': 2,\n",
       "   'exchange_rate': '0.497313',\n",
       "   'to': {'ens_domain_name': None,\n",
       "    'hash': '0xc2132D05D31c914a87C6611C10748AEb04B58e8F',\n",
       "    'implementation_address': '0x7FFB3d637014488b63fb9858E279385685AFc1e2',\n",
       "    'implementation_name': 'UChildERC20',\n",
       "    'implementations': [{'address': '0x7FFB3d637014488b63fb9858E279385685AFc1e2',\n",
       "      'name': 'UChildERC20'}],\n",
       "    'is_contract': True,\n",
       "    'is_verified': True,\n",
       "    'metadata': None,\n",
       "    'name': 'UChildERC20Proxy',\n",
       "    'private_tags': [],\n",
       "    'public_tags': [],\n",
       "    'watchlist_names': []},\n",
       "   'tx_burnt_fee': '1604232',\n",
       "   'max_fee_per_gas': '60000000056',\n",
       "   'result': 'success',\n",
       "   'hash': '0x632448778a2847761dfc84b62ba7ff656957ac4504617bc1596a0df5cf0ca4dc',\n",
       "   'gas_price': '50000000028',\n",
       "   'priority_fee': '2864700000000000',\n",
       "   'base_fee_per_gas': '28',\n",
       "   'from': {'ens_domain_name': None,\n",
       "    'hash': '0x505e71695E9bc45943c58adEC1650577BcA68fD9',\n",
       "    'implementation_address': None,\n",
       "    'implementation_name': None,\n",
       "    'implementations': [],\n",
       "    'is_contract': False,\n",
       "    'is_verified': False,\n",
       "    'metadata': None,\n",
       "    'name': None,\n",
       "    'private_tags': [],\n",
       "    'public_tags': [],\n",
       "    'watchlist_names': []},\n",
       "   'token_transfers': None,\n",
       "   'tx_types': ['contract_call', 'token_transfer'],\n",
       "   'gas_used': '57294',\n",
       "   'created_contract': None,\n",
       "   'position': 18,\n",
       "   'nonce': 1658816,\n",
       "   'has_error_in_internal_txs': None,\n",
       "   'actions': [],\n",
       "   'decoded_input': {'method_call': 'transfer(address recipient, uint256 amount)',\n",
       "    'method_id': 'a9059cbb',\n",
       "    'parameters': [{'name': 'recipient',\n",
       "      'type': 'address',\n",
       "      'value': '0xb9339eeb6ebf4b63ac03383df6d329eaaeb48408'},\n",
       "     {'name': 'amount', 'type': 'uint256', 'value': '9800000'}]},\n",
       "   'token_transfers_overflow': None,\n",
       "   'raw_input': '0xa9059cbb000000000000000000000000b9339eeb6ebf4b63ac03383df6d329eaaeb484080000000000000000000000000000000000000000000000000000000000958940',\n",
       "   'value': '0',\n",
       "   'max_priority_fee_per_gas': '50000000000',\n",
       "   'revert_reason': None,\n",
       "   'confirmation_duration': [0, 2121.0],\n",
       "   'tx_tag': None},\n",
       "  {'timestamp': '2024-07-25T22:02:45.000000Z',\n",
       "   'fee': {'type': 'actual', 'value': '3108550001740788'},\n",
       "   'gas_limit': '318236',\n",
       "   'block': 59807267,\n",
       "   'status': 'ok',\n",
       "   'method': 'transfer',\n",
       "   'confirmations': 11,\n",
       "   'type': 2,\n",
       "   'exchange_rate': '0.497313',\n",
       "   'to': {'ens_domain_name': None,\n",
       "    'hash': '0x3c499c542cEF5E3811e1192ce70d8cC03d5c3359',\n",
       "    'implementation_address': '0x235AE97b28466Db30469b89A9fe4cFf0659f82Cb',\n",
       "    'implementation_name': 'FiatTokenV2_2',\n",
       "    'implementations': [{'address': '0x235AE97b28466Db30469b89A9fe4cFf0659f82Cb',\n",
       "      'name': 'FiatTokenV2_2'}],\n",
       "    'is_contract': True,\n",
       "    'is_verified': True,\n",
       "    'metadata': None,\n",
       "    'name': 'FiatTokenProxy',\n",
       "    'private_tags': [],\n",
       "    'public_tags': [],\n",
       "    'watchlist_names': []},\n",
       "   'tx_burnt_fee': '1740788',\n",
       "   'max_fee_per_gas': '60000000056',\n",
       "   'result': 'success',\n",
       "   'hash': '0x7cdea0f9795bd9cec13e0f3080a2c33bbb00395b6fdb7312aecd6e608cbefa88',\n",
       "   'gas_price': '50000000028',\n",
       "   'priority_fee': '3108550000000000',\n",
       "   'base_fee_per_gas': '28',\n",
       "   'from': {'ens_domain_name': None,\n",
       "    'hash': '0xe7804c37c13166fF0b37F5aE0BB07A3aEbb6e245',\n",
       "    'implementation_address': None,\n",
       "    'implementation_name': None,\n",
       "    'implementations': [],\n",
       "    'is_contract': False,\n",
       "    'is_verified': False,\n",
       "    'metadata': None,\n",
       "    'name': None,\n",
       "    'private_tags': [],\n",
       "    'public_tags': [],\n",
       "    'watchlist_names': []},\n",
       "   'token_transfers': None,\n",
       "   'tx_types': ['contract_call', 'token_transfer'],\n",
       "   'gas_used': '62171',\n",
       "   'created_contract': None,\n",
       "   'position': 19,\n",
       "   'nonce': 5538646,\n",
       "   'has_error_in_internal_txs': None,\n",
       "   'actions': [],\n",
       "   'decoded_input': {'method_call': 'transfer(address to, uint256 value)',\n",
       "    'method_id': 'a9059cbb',\n",
       "    'parameters': [{'name': 'to',\n",
       "      'type': 'address',\n",
       "      'value': '0x0591a7c3ca449c8560e1714bbe189c4db6d1fb56'},\n",
       "     {'name': 'value', 'type': 'uint256', 'value': '39475971'}]},\n",
       "   'token_transfers_overflow': None,\n",
       "   'raw_input': '0xa9059cbb0000000000000000000000000591a7c3ca449c8560e1714bbe189c4db6d1fb5600000000000000000000000000000000000000000000000000000000025a5b03',\n",
       "   'value': '0',\n",
       "   'max_priority_fee_per_gas': '50000000000',\n",
       "   'revert_reason': None,\n",
       "   'confirmation_duration': [0, 2121.0],\n",
       "   'tx_tag': None},\n",
       "  {'timestamp': '2024-07-25T22:02:45.000000Z',\n",
       "   'fee': {'type': 'actual', 'value': '1050000000588000'},\n",
       "   'gas_limit': '318236',\n",
       "   'block': 59807267,\n",
       "   'status': 'ok',\n",
       "   'method': None,\n",
       "   'confirmations': 11,\n",
       "   'type': 2,\n",
       "   'exchange_rate': '0.497313',\n",
       "   'to': {'ens_domain_name': None,\n",
       "    'hash': '0x37aCDfECb11468a1F2DC9c097862c06271147Cf3',\n",
       "    'implementation_address': None,\n",
       "    'implementation_name': None,\n",
       "    'implementations': [],\n",
       "    'is_contract': False,\n",
       "    'is_verified': False,\n",
       "    'metadata': None,\n",
       "    'name': None,\n",
       "    'private_tags': [],\n",
       "    'public_tags': [],\n",
       "    'watchlist_names': []},\n",
       "   'tx_burnt_fee': '588000',\n",
       "   'max_fee_per_gas': '60000000056',\n",
       "   'result': 'success',\n",
       "   'hash': '0x5ad94381f5b9a77dbc7b62a751bb8d3e501491ed798376d2eacdda129aae2a50',\n",
       "   'gas_price': '50000000028',\n",
       "   'priority_fee': '1050000000000000',\n",
       "   'base_fee_per_gas': '28',\n",
       "   'from': {'ens_domain_name': None,\n",
       "    'hash': '0x082489A616aB4D46d1947eE3F912e080815b08DA',\n",
       "    'implementation_address': None,\n",
       "    'implementation_name': None,\n",
       "    'implementations': [],\n",
       "    'is_contract': False,\n",
       "    'is_verified': False,\n",
       "    'metadata': None,\n",
       "    'name': None,\n",
       "    'private_tags': [],\n",
       "    'public_tags': [],\n",
       "    'watchlist_names': []},\n",
       "   'token_transfers': None,\n",
       "   'tx_types': ['coin_transfer'],\n",
       "   'gas_used': '21000',\n",
       "   'created_contract': None,\n",
       "   'position': 20,\n",
       "   'nonce': 1954364,\n",
       "   'has_error_in_internal_txs': None,\n",
       "   'actions': [],\n",
       "   'decoded_input': None,\n",
       "   'token_transfers_overflow': None,\n",
       "   'raw_input': '0x',\n",
       "   'value': '499920000000000000000',\n",
       "   'max_priority_fee_per_gas': '50000000000',\n",
       "   'revert_reason': None,\n",
       "   'confirmation_duration': [0, 2121.0],\n",
       "   'tx_tag': None},\n",
       "  {'timestamp': '2024-07-25T22:02:45.000000Z',\n",
       "   'fee': {'type': 'actual', 'value': '1690000000000000'},\n",
       "   'gas_limit': '33881',\n",
       "   'block': 59807267,\n",
       "   'status': 'ok',\n",
       "   'method': '0x2c29f64e',\n",
       "   'confirmations': 11,\n",
       "   'type': 0,\n",
       "   'exchange_rate': '0.497313',\n",
       "   'to': {'ens_domain_name': None,\n",
       "    'hash': '0x0f3284bFEbc5f55B849c8CF792D39cC0f729e0BC',\n",
       "    'implementation_address': '0x7c4f32e50782c2c69a05a44aF45Cd65a31bc8992',\n",
       "    'implementation_name': None,\n",
       "    'implementations': [{'address': '0x7c4f32e50782c2c69a05a44aF45Cd65a31bc8992',\n",
       "      'name': None}],\n",
       "    'is_contract': True,\n",
       "    'is_verified': True,\n",
       "    'metadata': None,\n",
       "    'name': 'ERC1967Proxy',\n",
       "    'private_tags': [],\n",
       "    'public_tags': [],\n",
       "    'watchlist_names': []},\n",
       "   'tx_burnt_fee': None,\n",
       "   'max_fee_per_gas': None,\n",
       "   'result': 'success',\n",
       "   'hash': '0x3e19b528de6062a1625e4476c580013a3b08686bd042c5df0ebd6ccb43436cf3',\n",
       "   'gas_price': '50000000000',\n",
       "   'priority_fee': None,\n",
       "   'base_fee_per_gas': '28',\n",
       "   'from': {'ens_domain_name': None,\n",
       "    'hash': '0x7B4120030b7dC0b0Cb009aa1cf5a1336812BEa28',\n",
       "    'implementation_address': None,\n",
       "    'implementation_name': None,\n",
       "    'implementations': [],\n",
       "    'is_contract': False,\n",
       "    'is_verified': False,\n",
       "    'metadata': None,\n",
       "    'name': None,\n",
       "    'private_tags': [],\n",
       "    'public_tags': [],\n",
       "    'watchlist_names': []},\n",
       "   'token_transfers': None,\n",
       "   'tx_types': ['contract_call'],\n",
       "   'gas_used': '33800',\n",
       "   'created_contract': None,\n",
       "   'position': 21,\n",
       "   'nonce': 670,\n",
       "   'has_error_in_internal_txs': None,\n",
       "   'actions': [],\n",
       "   'decoded_input': None,\n",
       "   'token_transfers_overflow': None,\n",
       "   'raw_input': '0x2c29f64e',\n",
       "   'value': '0',\n",
       "   'max_priority_fee_per_gas': None,\n",
       "   'revert_reason': None,\n",
       "   'confirmation_duration': [0, 2121.0],\n",
       "   'tx_tag': None},\n",
       "  {'timestamp': '2024-07-25T22:02:45.000000Z',\n",
       "   'fee': {'type': 'actual', 'value': '5149550000000000'},\n",
       "   'gas_limit': '128710',\n",
       "   'block': 59807267,\n",
       "   'status': 'ok',\n",
       "   'method': None,\n",
       "   'confirmations': 11,\n",
       "   'type': 0,\n",
       "   'exchange_rate': '0.497313',\n",
       "   'to': {'ens_domain_name': None,\n",
       "    'hash': '0xa47c861DE3272690a51F57e0E43551e55F6C790d',\n",
       "    'implementation_address': None,\n",
       "    'implementation_name': None,\n",
       "    'implementations': [],\n",
       "    'is_contract': False,\n",
       "    'is_verified': False,\n",
       "    'metadata': None,\n",
       "    'name': None,\n",
       "    'private_tags': [],\n",
       "    'public_tags': [],\n",
       "    'watchlist_names': []},\n",
       "   'tx_burnt_fee': None,\n",
       "   'max_fee_per_gas': None,\n",
       "   'result': 'success',\n",
       "   'hash': '0x912f7c76b3abfd5e7068b18d6542f60b3592c30c92c7ce234153927711eb478a',\n",
       "   'gas_price': '50000000000',\n",
       "   'priority_fee': None,\n",
       "   'base_fee_per_gas': '28',\n",
       "   'from': {'ens_domain_name': None,\n",
       "    'hash': '0x05543056Db8C0a2e94bB2C1a6d3d16196FC81E80',\n",
       "    'implementation_address': None,\n",
       "    'implementation_name': None,\n",
       "    'implementations': [],\n",
       "    'is_contract': False,\n",
       "    'is_verified': False,\n",
       "    'metadata': None,\n",
       "    'name': None,\n",
       "    'private_tags': [],\n",
       "    'public_tags': [],\n",
       "    'watchlist_names': []},\n",
       "   'token_transfers': None,\n",
       "   'tx_types': [],\n",
       "   'gas_used': '102991',\n",
       "   'created_contract': None,\n",
       "   'position': 22,\n",
       "   'nonce': 881,\n",
       "   'has_error_in_internal_txs': None,\n",
       "   'actions': [],\n",
       "   'decoded_input': None,\n",
       "   'token_transfers_overflow': None,\n",
       "   'raw_input': '0x3a3f82390000000000000000000000000000000000000000000000000000000001ae0098',\n",
       "   'value': '0',\n",
       "   'max_priority_fee_per_gas': None,\n",
       "   'revert_reason': None,\n",
       "   'confirmation_duration': [0, 2121.0],\n",
       "   'tx_tag': None},\n",
       "  {'timestamp': '2024-07-25T22:02:45.000000Z',\n",
       "   'fee': {'type': 'actual', 'value': '5765200000000000'},\n",
       "   'gas_limit': '236724',\n",
       "   'block': 59807267,\n",
       "   'status': 'error',\n",
       "   'method': None,\n",
       "   'confirmations': 11,\n",
       "   'type': 0,\n",
       "   'exchange_rate': '0.497313',\n",
       "   'to': {'ens_domain_name': None,\n",
       "    'hash': '0xE592427A0AEce92De3Edee1F18E0157C05861564',\n",
       "    'implementation_address': None,\n",
       "    'implementation_name': None,\n",
       "    'implementations': [],\n",
       "    'is_contract': False,\n",
       "    'is_verified': False,\n",
       "    'metadata': None,\n",
       "    'name': None,\n",
       "    'private_tags': [],\n",
       "    'public_tags': [],\n",
       "    'watchlist_names': []},\n",
       "   'tx_burnt_fee': None,\n",
       "   'max_fee_per_gas': None,\n",
       "   'result': 'awaiting_internal_transactions',\n",
       "   'hash': '0x1382f364a5139c995f177166407e2981d2cfeeea754f907d14a4385d45befc3d',\n",
       "   'gas_price': '50000000000',\n",
       "   'priority_fee': None,\n",
       "   'base_fee_per_gas': '28',\n",
       "   'from': {'ens_domain_name': None,\n",
       "    'hash': '0x8B26320912935111300DdAeeC15EA9a182FF6F1a',\n",
       "    'implementation_address': None,\n",
       "    'implementation_name': None,\n",
       "    'implementations': [],\n",
       "    'is_contract': False,\n",
       "    'is_verified': False,\n",
       "    'metadata': None,\n",
       "    'name': None,\n",
       "    'private_tags': [],\n",
       "    'public_tags': [],\n",
       "    'watchlist_names': []},\n",
       "   'token_transfers': None,\n",
       "   'tx_types': [],\n",
       "   'gas_used': '115304',\n",
       "   'created_contract': None,\n",
       "   'position': 23,\n",
       "   'nonce': 961905,\n",
       "   'has_error_in_internal_txs': None,\n",
       "   'actions': [],\n",
       "   'decoded_input': None,\n",
       "   'token_transfers_overflow': None,\n",
       "   'raw_input': '0x414bf3890000000000000000000000000d500b1d8e8ef31e21c99d1db9a6444d3adf12700000000000000000000000001bfd67037b42cf73acf2047067bd4f2c47d9bfd600000000000000000000000000000000000000000000000000000000000001f40000000000000000000000008b26320912935111300ddaeec15ea9a182ff6f1a0000000000000000000000000000000000000000000000000000000066a2ccac00000000000000000000000000000000000000000000003319cf1f508dc6000000000000000000000000000000000000000000000000000000000000000ad1ea0000000000000000000000000000000000000000000000000000000000000000',\n",
       "   'value': '0',\n",
       "   'max_priority_fee_per_gas': None,\n",
       "   'revert_reason': None,\n",
       "   'confirmation_duration': [0, 2121.0],\n",
       "   'tx_tag': None},\n",
       "  {'timestamp': '2024-07-25T22:02:45.000000Z',\n",
       "   'fee': {'type': 'actual', 'value': '7262200000000000'},\n",
       "   'gas_limit': '236708',\n",
       "   'block': 59807267,\n",
       "   'status': 'error',\n",
       "   'method': None,\n",
       "   'confirmations': 11,\n",
       "   'type': 0,\n",
       "   'exchange_rate': '0.497313',\n",
       "   'to': {'ens_domain_name': None,\n",
       "    'hash': '0xE592427A0AEce92De3Edee1F18E0157C05861564',\n",
       "    'implementation_address': None,\n",
       "    'implementation_name': None,\n",
       "    'implementations': [],\n",
       "    'is_contract': False,\n",
       "    'is_verified': False,\n",
       "    'metadata': None,\n",
       "    'name': None,\n",
       "    'private_tags': [],\n",
       "    'public_tags': [],\n",
       "    'watchlist_names': []},\n",
       "   'tx_burnt_fee': None,\n",
       "   'max_fee_per_gas': None,\n",
       "   'result': 'awaiting_internal_transactions',\n",
       "   'hash': '0x32bf22a1d9cffc88f5106131bc463321c6486c0b2dde2b065ee4807c3a44384a',\n",
       "   'gas_price': '50000000000',\n",
       "   'priority_fee': None,\n",
       "   'base_fee_per_gas': '28',\n",
       "   'from': {'ens_domain_name': None,\n",
       "    'hash': '0x004df5de266316D7Aa68a639Ad73D795a631E2e6',\n",
       "    'implementation_address': None,\n",
       "    'implementation_name': None,\n",
       "    'implementations': [],\n",
       "    'is_contract': False,\n",
       "    'is_verified': False,\n",
       "    'metadata': None,\n",
       "    'name': None,\n",
       "    'private_tags': [],\n",
       "    'public_tags': [],\n",
       "    'watchlist_names': []},\n",
       "   'token_transfers': None,\n",
       "   'tx_types': [],\n",
       "   'gas_used': '145244',\n",
       "   'created_contract': None,\n",
       "   'position': 24,\n",
       "   'nonce': 232344,\n",
       "   'has_error_in_internal_txs': None,\n",
       "   'actions': [],\n",
       "   'decoded_input': None,\n",
       "   'token_transfers_overflow': None,\n",
       "   'raw_input': '0x414bf3890000000000000000000000000d500b1d8e8ef31e21c99d1db9a6444d3adf12700000000000000000000000001bfd67037b42cf73acf2047067bd4f2c47d9bfd600000000000000000000000000000000000000000000000000000000000001f4000000000000000000000000004df5de266316d7aa68a639ad73d795a631e2e60000000000000000000000000000000000000000000000000000000066a2ccad0000000000000000000000000000000000000000000000462f5b47688780000000000000000000000000000000000000000000000000000000000000000edbf30000000000000000000000000000000000000000000000000000000000000000',\n",
       "   'value': '0',\n",
       "   'max_priority_fee_per_gas': None,\n",
       "   'revert_reason': None,\n",
       "   'confirmation_duration': [0, 2121.0],\n",
       "   'tx_tag': None},\n",
       "  {'timestamp': '2024-07-25T22:02:45.000000Z',\n",
       "   'fee': {'type': 'actual', 'value': '6721725000000000'},\n",
       "   'gas_limit': '167840',\n",
       "   'block': 59807267,\n",
       "   'status': 'ok',\n",
       "   'method': None,\n",
       "   'confirmations': 11,\n",
       "   'type': 0,\n",
       "   'exchange_rate': '0.497313',\n",
       "   'to': {'ens_domain_name': None,\n",
       "    'hash': '0xa47c861DE3272690a51F57e0E43551e55F6C790d',\n",
       "    'implementation_address': None,\n",
       "    'implementation_name': None,\n",
       "    'implementations': [],\n",
       "    'is_contract': False,\n",
       "    'is_verified': False,\n",
       "    'metadata': None,\n",
       "    'name': None,\n",
       "    'private_tags': [],\n",
       "    'public_tags': [],\n",
       "    'watchlist_names': []},\n",
       "   'tx_burnt_fee': None,\n",
       "   'max_fee_per_gas': None,\n",
       "   'result': 'success',\n",
       "   'hash': '0xeb053b29a981bae3b35d3b304f2d1c0a96581f9801ab4e3ae97133edb451c3d8',\n",
       "   'gas_price': '47500000000',\n",
       "   'priority_fee': None,\n",
       "   'base_fee_per_gas': '28',\n",
       "   'from': {'ens_domain_name': None,\n",
       "    'hash': '0x40F5E5f1E7BeC85aC8914E73e5568594d78E0bcb',\n",
       "    'implementation_address': None,\n",
       "    'implementation_name': None,\n",
       "    'implementations': [],\n",
       "    'is_contract': False,\n",
       "    'is_verified': False,\n",
       "    'metadata': None,\n",
       "    'name': None,\n",
       "    'private_tags': [],\n",
       "    'public_tags': [],\n",
       "    'watchlist_names': []},\n",
       "   'token_transfers': None,\n",
       "   'tx_types': ['token_transfer'],\n",
       "   'gas_used': '141510',\n",
       "   'created_contract': None,\n",
       "   'position': 25,\n",
       "   'nonce': 3797,\n",
       "   'has_error_in_internal_txs': None,\n",
       "   'actions': [],\n",
       "   'decoded_input': None,\n",
       "   'token_transfers_overflow': None,\n",
       "   'raw_input': '0x3a3f82390000000000000000000000000000000000000000000000000000000001adf6b4',\n",
       "   'value': '0',\n",
       "   'max_priority_fee_per_gas': None,\n",
       "   'revert_reason': None,\n",
       "   'confirmation_duration': [0, 2121.0],\n",
       "   'tx_tag': None},\n",
       "  {'timestamp': '2024-07-25T22:02:45.000000Z',\n",
       "   'fee': {'type': 'actual', 'value': '1865032260723348'},\n",
       "   'gas_limit': '47529',\n",
       "   'block': 59807267,\n",
       "   'status': 'ok',\n",
       "   'method': '0xa9059cbb',\n",
       "   'confirmations': 11,\n",
       "   'type': 2,\n",
       "   'exchange_rate': '0.497313',\n",
       "   'to': {'ens_domain_name': None,\n",
       "    'hash': '0x8f3Cf7ad23Cd3CaDbD9735AFf958023239c6A063',\n",
       "    'implementation_address': '0x490e379C9cFF64944bE82b849F8FD5972C7999A7',\n",
       "    'implementation_name': None,\n",
       "    'implementations': [{'address': '0x490e379C9cFF64944bE82b849F8FD5972C7999A7',\n",
       "      'name': None}],\n",
       "    'is_contract': True,\n",
       "    'is_verified': True,\n",
       "    'metadata': None,\n",
       "    'name': 'RootChainManagerProxy',\n",
       "    'private_tags': [],\n",
       "    'public_tags': [],\n",
       "    'watchlist_names': []},\n",
       "   'tx_burnt_fee': '1125208',\n",
       "   'max_fee_per_gas': '71400000038',\n",
       "   'result': 'success',\n",
       "   'hash': '0x6ea67a5f553c7da7ebae89877f4e2ab833b1c27a8332e4760bc99995f7d7b9f6',\n",
       "   'gas_price': '46410000018',\n",
       "   'priority_fee': '1865032259598140',\n",
       "   'base_fee_per_gas': '28',\n",
       "   'from': {'ens_domain_name': None,\n",
       "    'hash': '0xE379c4bE7C78cC6E354575E1C1ef3e6312bD338b',\n",
       "    'implementation_address': None,\n",
       "    'implementation_name': None,\n",
       "    'implementations': [],\n",
       "    'is_contract': False,\n",
       "    'is_verified': False,\n",
       "    'metadata': None,\n",
       "    'name': None,\n",
       "    'private_tags': [],\n",
       "    'public_tags': [],\n",
       "    'watchlist_names': []},\n",
       "   'token_transfers': None,\n",
       "   'tx_types': ['contract_call', 'token_transfer'],\n",
       "   'gas_used': '40186',\n",
       "   'created_contract': None,\n",
       "   'position': 26,\n",
       "   'nonce': 482,\n",
       "   'has_error_in_internal_txs': None,\n",
       "   'actions': [],\n",
       "   'decoded_input': None,\n",
       "   'token_transfers_overflow': None,\n",
       "   'raw_input': '0xa9059cbb0000000000000000000000000da006862b3b966d5a0cd177549cb068ff7c60e2000000000000000000000000000000000000000000000009c2007651b2500000',\n",
       "   'value': '0',\n",
       "   'max_priority_fee_per_gas': '46409999990',\n",
       "   'revert_reason': None,\n",
       "   'confirmation_duration': [0, 2121.0],\n",
       "   'tx_tag': None},\n",
       "  {'timestamp': '2024-07-25T22:02:45.000000Z',\n",
       "   'fee': {'type': 'actual', 'value': '20680200018841960'},\n",
       "   'gas_limit': '459560',\n",
       "   'block': 59807267,\n",
       "   'status': 'ok',\n",
       "   'method': '0x279ed6ff',\n",
       "   'confirmations': 11,\n",
       "   'type': 0,\n",
       "   'exchange_rate': '0.497313',\n",
       "   'to': {'ens_domain_name': None,\n",
       "    'hash': '0xd16BCe7f276947Cf61453E74a67b267F0e807DD6',\n",
       "    'implementation_address': None,\n",
       "    'implementation_name': None,\n",
       "    'implementations': [],\n",
       "    'is_contract': True,\n",
       "    'is_verified': False,\n",
       "    'metadata': None,\n",
       "    'name': None,\n",
       "    'private_tags': [],\n",
       "    'public_tags': [],\n",
       "    'watchlist_names': []},\n",
       "   'tx_burnt_fee': None,\n",
       "   'max_fee_per_gas': None,\n",
       "   'result': 'success',\n",
       "   'hash': '0x364dbc0f0cc07d15d31e44a3f4692c013ccafe29ea5b8922a8f40083abc14128',\n",
       "   'gas_price': '45000000041',\n",
       "   'priority_fee': None,\n",
       "   'base_fee_per_gas': '28',\n",
       "   'from': {'ens_domain_name': None,\n",
       "    'hash': '0x5278CCBce0431Ac5Fa5Cba666886f003F3F5028A',\n",
       "    'implementation_address': None,\n",
       "    'implementation_name': None,\n",
       "    'implementations': [],\n",
       "    'is_contract': False,\n",
       "    'is_verified': False,\n",
       "    'metadata': None,\n",
       "    'name': None,\n",
       "    'private_tags': [],\n",
       "    'public_tags': [],\n",
       "    'watchlist_names': []},\n",
       "   'token_transfers': None,\n",
       "   'tx_types': ['contract_call'],\n",
       "   'gas_used': '459560',\n",
       "   'created_contract': None,\n",
       "   'position': 27,\n",
       "   'nonce': 1495,\n",
       "   'has_error_in_internal_txs': None,\n",
       "   'actions': [],\n",
       "   'decoded_input': None,\n",
       "   'token_transfers_overflow': None,\n",
       "   'raw_input': '0x279ed6ff',\n",
       "   'value': '0',\n",
       "   'max_priority_fee_per_gas': None,\n",
       "   'revert_reason': None,\n",
       "   'confirmation_duration': [0, 2121.0],\n",
       "   'tx_tag': None},\n",
       "  {'timestamp': '2024-07-25T22:02:45.000000Z',\n",
       "   'fee': {'type': 'actual', 'value': '13224161157634432'},\n",
       "   'gas_limit': '600040',\n",
       "   'block': 59807267,\n",
       "   'status': 'ok',\n",
       "   'method': '0xa00597a0',\n",
       "   'confirmations': 11,\n",
       "   'type': 2,\n",
       "   'exchange_rate': '0.497313',\n",
       "   'to': {'ens_domain_name': None,\n",
       "    'hash': '0x802b65b5d9016621E66003aeD0b16615093f328b',\n",
       "    'implementation_address': None,\n",
       "    'implementation_name': None,\n",
       "    'implementations': [],\n",
       "    'is_contract': True,\n",
       "    'is_verified': False,\n",
       "    'metadata': None,\n",
       "    'name': None,\n",
       "    'private_tags': [],\n",
       "    'public_tags': [],\n",
       "    'watchlist_names': []},\n",
       "   'tx_burnt_fee': '8430128',\n",
       "   'max_fee_per_gas': '43923000041',\n",
       "   'result': 'success',\n",
       "   'hash': '0x0f00823c1db4ebf81a7d1621e48b327641755b79bacda0589ef32de199df51bb',\n",
       "   'gas_price': '43923000032',\n",
       "   'priority_fee': '13224161149204304',\n",
       "   'base_fee_per_gas': '28',\n",
       "   'from': {'ens_domain_name': None,\n",
       "    'hash': '0x897940Ace1F57a22D1AB6A5e5E9C9a61C35a3C1d',\n",
       "    'implementation_address': None,\n",
       "    'implementation_name': None,\n",
       "    'implementations': [],\n",
       "    'is_contract': False,\n",
       "    'is_verified': False,\n",
       "    'metadata': None,\n",
       "    'name': None,\n",
       "    'private_tags': [],\n",
       "    'public_tags': [],\n",
       "    'watchlist_names': []},\n",
       "   'token_transfers': None,\n",
       "   'tx_types': ['contract_call', 'token_transfer'],\n",
       "   'gas_used': '301076',\n",
       "   'created_contract': None,\n",
       "   'position': 28,\n",
       "   'nonce': 103728,\n",
       "   'has_error_in_internal_txs': None,\n",
       "   'actions': [],\n",
       "   'decoded_input': None,\n",
       "   'token_transfers_overflow': None,\n",
       "   'raw_input': '0xa00597a00000000000000000000000000000000000000000000000000000000042715eba0000000000000000000000000000000000000019ac2630a23dce3df6bfc3017a0000000000000000000000002791bca1f2de4661ed88a30c99a7a9449aa841740000000000000000000000000000000000000000000000000000000000000000000000000000000000000000a5cd8351cbf30b531c7b11b0d9d3ff38ea2e280f0000000000000000000000000000000000000000000000000000000066a2cc36',\n",
       "   'value': '0',\n",
       "   'max_priority_fee_per_gas': '43923000004',\n",
       "   'revert_reason': None,\n",
       "   'confirmation_duration': [0, 2121.0],\n",
       "   'tx_tag': None},\n",
       "  {'timestamp': '2024-07-25T22:02:45.000000Z',\n",
       "   'fee': {'type': 'actual', 'value': '892500000588000'},\n",
       "   'gas_limit': '420000',\n",
       "   'block': 59807267,\n",
       "   'status': 'ok',\n",
       "   'method': None,\n",
       "   'confirmations': 11,\n",
       "   'type': 2,\n",
       "   'exchange_rate': '0.497313',\n",
       "   'to': {'ens_domain_name': None,\n",
       "    'hash': '0xc55037116772ce97a405adf9a9c565B53Ef7a3aB',\n",
       "    'implementation_address': None,\n",
       "    'implementation_name': None,\n",
       "    'implementations': [],\n",
       "    'is_contract': False,\n",
       "    'is_verified': False,\n",
       "    'metadata': None,\n",
       "    'name': None,\n",
       "    'private_tags': [],\n",
       "    'public_tags': [],\n",
       "    'watchlist_names': []},\n",
       "   'tx_burnt_fee': '588000',\n",
       "   'max_fee_per_gas': '242500000000',\n",
       "   'result': 'success',\n",
       "   'hash': '0x0a1afd3fbd84b172ad7524d3b29e011e1b9a6764b117a5ac7e6e41c054cee68c',\n",
       "   'gas_price': '42500000028',\n",
       "   'priority_fee': '892500000000000',\n",
       "   'base_fee_per_gas': '28',\n",
       "   'from': {'ens_domain_name': None,\n",
       "    'hash': '0xDFD4547247bA13C6cb3300b412306bE490f6E126',\n",
       "    'implementation_address': None,\n",
       "    'implementation_name': None,\n",
       "    'implementations': [],\n",
       "    'is_contract': False,\n",
       "    'is_verified': False,\n",
       "    'metadata': None,\n",
       "    'name': None,\n",
       "    'private_tags': [],\n",
       "    'public_tags': [],\n",
       "    'watchlist_names': []},\n",
       "   'token_transfers': None,\n",
       "   'tx_types': ['coin_transfer'],\n",
       "   'gas_used': '21000',\n",
       "   'created_contract': None,\n",
       "   'position': 29,\n",
       "   'nonce': 2407,\n",
       "   'has_error_in_internal_txs': None,\n",
       "   'actions': [],\n",
       "   'decoded_input': None,\n",
       "   'token_transfers_overflow': None,\n",
       "   'raw_input': '0x',\n",
       "   'value': '87610867490000000000',\n",
       "   'max_priority_fee_per_gas': '42500000000',\n",
       "   'revert_reason': None,\n",
       "   'confirmation_duration': [0, 2121.0],\n",
       "   'tx_tag': None},\n",
       "  {'timestamp': '2024-07-25T22:02:45.000000Z',\n",
       "   'fee': {'type': 'actual', 'value': '2490936002313012'},\n",
       "   'gas_limit': '100000',\n",
       "   'block': 59807267,\n",
       "   'status': 'ok',\n",
       "   'method': 'transferFrom',\n",
       "   'confirmations': 11,\n",
       "   'type': 0,\n",
       "   'exchange_rate': '0.497313',\n",
       "   'to': {'ens_domain_name': None,\n",
       "    'hash': '0xc2132D05D31c914a87C6611C10748AEb04B58e8F',\n",
       "    'implementation_address': '0x7FFB3d637014488b63fb9858E279385685AFc1e2',\n",
       "    'implementation_name': 'UChildERC20',\n",
       "    'implementations': [{'address': '0x7FFB3d637014488b63fb9858E279385685AFc1e2',\n",
       "      'name': 'UChildERC20'}],\n",
       "    'is_contract': True,\n",
       "    'is_verified': True,\n",
       "    'metadata': None,\n",
       "    'name': 'UChildERC20Proxy',\n",
       "    'private_tags': [],\n",
       "    'public_tags': [],\n",
       "    'watchlist_names': []},\n",
       "   'tx_burnt_fee': None,\n",
       "   'max_fee_per_gas': None,\n",
       "   'result': 'success',\n",
       "   'hash': '0x7f87d72a2df2ffc82adf260360f207df3e8800526fa27f4ea6c34d7bde686cdb',\n",
       "   'gas_price': '42000000039',\n",
       "   'priority_fee': None,\n",
       "   'base_fee_per_gas': '28',\n",
       "   'from': {'ens_domain_name': None,\n",
       "    'hash': '0xbA7290eC94E6b3BABFDe2d4860Bb04F49be9671e',\n",
       "    'implementation_address': None,\n",
       "    'implementation_name': None,\n",
       "    'implementations': [],\n",
       "    'is_contract': False,\n",
       "    'is_verified': False,\n",
       "    'metadata': None,\n",
       "    'name': None,\n",
       "    'private_tags': [],\n",
       "    'public_tags': [],\n",
       "    'watchlist_names': []},\n",
       "   'token_transfers': None,\n",
       "   'tx_types': ['contract_call', 'token_transfer'],\n",
       "   'gas_used': '59308',\n",
       "   'created_contract': None,\n",
       "   'position': 30,\n",
       "   'nonce': 28643,\n",
       "   'has_error_in_internal_txs': None,\n",
       "   'actions': [],\n",
       "   'decoded_input': {'method_call': 'transferFrom(address sender, address recipient, uint256 amount)',\n",
       "    'method_id': '23b872dd',\n",
       "    'parameters': [{'name': 'sender',\n",
       "      'type': 'address',\n",
       "      'value': '0xca4fe0950313740b1622cc3a7c601a978c11f2fc'},\n",
       "     {'name': 'recipient',\n",
       "      'type': 'address',\n",
       "      'value': '0xd75469e3a9f9f2ced454ac06f1880153c2158a60'},\n",
       "     {'name': 'amount', 'type': 'uint256', 'value': '1998330'}]},\n",
       "   'token_transfers_overflow': None,\n",
       "   'raw_input': '0x23b872dd000000000000000000000000ca4fe0950313740b1622cc3a7c601a978c11f2fc000000000000000000000000d75469e3a9f9f2ced454ac06f1880153c2158a6000000000000000000000000000000000000000000000000000000000001e7dfa4d454d4f3a53354d705948413250624e355354324545397772674f65567a373150346359385650625a4d3870676b35563056317864724a4a2b656c4241534d32554b575a784d724b314e354a3565596335475a5942627868443170696632746757316d616356765062516562574e39477350567434396d504b3350497678734d4e59555169435a704d4d4b5667453452692b4f506630544764796f5351377752357932744b50456c3759317530394a6e4259745a795968654f48684a526365524d674c61746259314d6753355846506475435638536162686b4d43696e6f426f5954494c436f6348632b304b5a386146476d5a62345159676d5734786d706e696368667a4d5971666d593368354d64452b45367941334c7a6e316d43305a765462696f714956574e32585a4772414276635a5743735162562b434464545547446f63506c7650577051616c61717a2b50785a544832366d413948754a53482f4c33694d6f674b5666646144664c7842376d4e363536376f4242757168657232564855774c2b6559396b4e783664334c55645a56686c4446366f65724d4c2f79646d4d77472f54526232514c307641777469796366443257616d634c67304763756b73797a36775065434d492f5845504e614f2f647158304a44474f4964714e64364d48375a2f674778653043377a5641572b5730683233535572584d2b544c57727352466c784c34722f532f4e6a45646472524e6566714c713270672f5041546b676965472b304c33556f7a66494d50767354664a38424146597562694b585761346c64544e6448362f332f694370306f79593677304a54556971456768715444524a313877713059734776674f632b4f4573436174682b437a674b5247513359304b6f34676f4d506b62735a4e48577562684266676e715a57494c47786b3235425a2b6b38744454545968686d6f513d',\n",
       "   'value': '0',\n",
       "   'max_priority_fee_per_gas': None,\n",
       "   'revert_reason': None,\n",
       "   'confirmation_duration': [0, 2121.0],\n",
       "   'tx_tag': None},\n",
       "  {'timestamp': '2024-07-25T22:02:45.000000Z',\n",
       "   'fee': {'type': 'actual', 'value': '1429195951256436'},\n",
       "   'gas_limit': '34901',\n",
       "   'block': 59807267,\n",
       "   'status': 'ok',\n",
       "   'method': None,\n",
       "   'confirmations': 11,\n",
       "   'type': 2,\n",
       "   'exchange_rate': '0.497313',\n",
       "   'to': {'ens_domain_name': None,\n",
       "    'hash': '0x87fcfBD3Eae94524D5Ef0c42D01f3DFC96142451',\n",
       "    'implementation_address': None,\n",
       "    'implementation_name': None,\n",
       "    'implementations': [],\n",
       "    'is_contract': False,\n",
       "    'is_verified': False,\n",
       "    'metadata': None,\n",
       "    'name': 'Carpool Life Economy',\n",
       "    'private_tags': [],\n",
       "    'public_tags': [],\n",
       "    'watchlist_names': []},\n",
       "   'tx_burnt_fee': '977228',\n",
       "   'max_fee_per_gas': '63000000068',\n",
       "   'result': 'success',\n",
       "   'hash': '0x778c8945c918885a3ea922a89801c772ff9cbb0ed7000dfcf3c0e0d40aee7d91',\n",
       "   'gas_price': '40950000036',\n",
       "   'priority_fee': '1429195950279208',\n",
       "   'base_fee_per_gas': '28',\n",
       "   'from': {'ens_domain_name': None,\n",
       "    'hash': '0x33d0c5Cea14839208655AE7912E7BF7E3B9244d0',\n",
       "    'implementation_address': None,\n",
       "    'implementation_name': None,\n",
       "    'implementations': [],\n",
       "    'is_contract': False,\n",
       "    'is_verified': False,\n",
       "    'metadata': None,\n",
       "    'name': None,\n",
       "    'private_tags': [],\n",
       "    'public_tags': [],\n",
       "    'watchlist_names': []},\n",
       "   'token_transfers': None,\n",
       "   'tx_types': ['token_transfer'],\n",
       "   'gas_used': '34901',\n",
       "   'created_contract': None,\n",
       "   'position': 31,\n",
       "   'nonce': 12,\n",
       "   'has_error_in_internal_txs': None,\n",
       "   'actions': [],\n",
       "   'decoded_input': None,\n",
       "   'token_transfers_overflow': None,\n",
       "   'raw_input': '0xa9059cbb0000000000000000000000007cc08e0894334b9f3ea9fa894acc3399a931471b00000000000000000000000000000000000000000000001aabdf2145b4300000',\n",
       "   'value': '0',\n",
       "   'max_priority_fee_per_gas': '40950000008',\n",
       "   'revert_reason': None,\n",
       "   'confirmation_duration': [0, 2121.0],\n",
       "   'tx_tag': None},\n",
       "  {'timestamp': '2024-07-25T22:02:45.000000Z',\n",
       "   'fee': {'type': 'actual', 'value': '6038887505636295'},\n",
       "   'gas_limit': '168646',\n",
       "   'block': 59807267,\n",
       "   'status': 'ok',\n",
       "   'method': None,\n",
       "   'confirmations': 11,\n",
       "   'type': 0,\n",
       "   'exchange_rate': '0.497313',\n",
       "   'to': {'ens_domain_name': None,\n",
       "    'hash': '0xD152f549545093347A162Dce210e7293f1452150',\n",
       "    'implementation_address': None,\n",
       "    'implementation_name': None,\n",
       "    'implementations': [],\n",
       "    'is_contract': False,\n",
       "    'is_verified': False,\n",
       "    'metadata': None,\n",
       "    'name': None,\n",
       "    'private_tags': [],\n",
       "    'public_tags': [],\n",
       "    'watchlist_names': []},\n",
       "   'tx_burnt_fee': None,\n",
       "   'max_fee_per_gas': None,\n",
       "   'result': 'success',\n",
       "   'hash': '0xee8c96424e88d0863ff7bb992ab0e1ad2db43efb2806a7311ea074e6150fe627',\n",
       "   'gas_price': '37500000035',\n",
       "   'priority_fee': None,\n",
       "   'base_fee_per_gas': '28',\n",
       "   'from': {'ens_domain_name': None,\n",
       "    'hash': '0xDA10D04bE61E697b27bE5F923a3fFC99B1e8C9fB',\n",
       "    'implementation_address': None,\n",
       "    'implementation_name': None,\n",
       "    'implementations': [],\n",
       "    'is_contract': False,\n",
       "    'is_verified': False,\n",
       "    'metadata': None,\n",
       "    'name': None,\n",
       "    'private_tags': [],\n",
       "    'public_tags': [],\n",
       "    'watchlist_names': []},\n",
       "   'token_transfers': None,\n",
       "   'tx_types': ['token_transfer'],\n",
       "   'gas_used': '161037',\n",
       "   'created_contract': None,\n",
       "   'position': 32,\n",
       "   'nonce': 6922,\n",
       "   'has_error_in_internal_txs': None,\n",
       "   'actions': [],\n",
       "   'decoded_input': None,\n",
       "   'token_transfers_overflow': None,\n",
       "   'raw_input': '0xc73a2d60000000000000000000000000c2132d05d31c914a87c6611c10748aeb04b58e8f000000000000000000000000000000000000000000000000000000000000006000000000000000000000000000000000000000000000000000000000000001e0000000000000000000000000000000000000000000000000000000000000000b000000000000000000000000135ca542da7ec68328e81acd5df997ae2c87593b0000000000000000000000001d3e8b819ecdc650967558440ecf9b9d60f6c2e600000000000000000000000039e80d7bcca8f5ca17d32766db7d1683d45cf5df0000000000000000000000003aae3a112d7267d4a521f52a30e61af953ffd3d90000000000000000000000007f2a072ccfe414377be800fdeda09f731494fcb40000000000000000000000008a5af36138443923bdb3af97f594bbd6c9642a8f000000000000000000000000cb940495cfaf8f5e4ce8ad50e6a7eb5c02a8bf50000000000000000000000000ce384d5deb8c0f460546b3912de45f3796fc2c80000000000000000000000000d7d2ca7549cc85b7854e158c9c7e11e5a3c7cb3d000000000000000000000000fbd2cc9463ec1b2aa87d2abcda9a761d7c456741000000000000000000000000fd274271b6e39879611b4aa912201acb83713132000000000000000000000000000000000000000000000000000000000000000b0000000000000000000000000000000000000000000000000000000000007a67000000000000000000000000000000000000000000000000000000000003bed9000000000000000000000000000000000000000000000000000000000003300a000000000000000000000000000000000000000000000000000000000001466a00000000000000000000000000000000000000000000000000000000000198050000000000000000000000000000000000000000000000000000000002fd09e6000000000000000000000000000000000000000000000000000000000000f4cf0000000000000000000000000000000000000000000000000000000000011fa70000000000000000000000000000000000000000000000000000000000029f3100000000000000000000000000000000000000000000000000000000000ff034000000000000000000000000000000000000000000000000000000000000f4cf',\n",
       "   'value': '0',\n",
       "   'max_priority_fee_per_gas': None,\n",
       "   'revert_reason': None,\n",
       "   'confirmation_duration': [0, 2121.0],\n",
       "   'tx_tag': None},\n",
       "  {'timestamp': '2024-07-25T22:02:45.000000Z',\n",
       "   'fee': {'type': 'actual', 'value': '5001912004585086'},\n",
       "   'gas_limit': '500000',\n",
       "   'block': 59807267,\n",
       "   'status': 'ok',\n",
       "   'method': 'forward',\n",
       "   'confirmations': 11,\n",
       "   'type': 0,\n",
       "   'exchange_rate': '0.497313',\n",
       "   'to': {'ens_domain_name': None,\n",
       "    'hash': '0xf5Bf6c43c3d90139860867A0e1bBbEB528E72120',\n",
       "    'implementation_address': None,\n",
       "    'implementation_name': None,\n",
       "    'implementations': [],\n",
       "    'is_contract': True,\n",
       "    'is_verified': False,\n",
       "    'metadata': None,\n",
       "    'name': None,\n",
       "    'private_tags': [],\n",
       "    'public_tags': [],\n",
       "    'watchlist_names': []},\n",
       "   'tx_burnt_fee': None,\n",
       "   'max_fee_per_gas': None,\n",
       "   'result': 'success',\n",
       "   'hash': '0xf1cf862092ef4d30f83b8eda2ea802550db5582c614b0aec5d06b83700831896',\n",
       "   'gas_price': '36000000033',\n",
       "   'priority_fee': None,\n",
       "   'base_fee_per_gas': '28',\n",
       "   'from': {'ens_domain_name': None,\n",
       "    'hash': '0x550365027554bD20D750f9361e460C7428ffBd75',\n",
       "    'implementation_address': None,\n",
       "    'implementation_name': None,\n",
       "    'implementations': [],\n",
       "    'is_contract': False,\n",
       "    'is_verified': False,\n",
       "    'metadata': None,\n",
       "    'name': None,\n",
       "    'private_tags': [],\n",
       "    'public_tags': [],\n",
       "    'watchlist_names': []},\n",
       "   'token_transfers': None,\n",
       "   'tx_types': ['contract_call'],\n",
       "   'gas_used': '138942',\n",
       "   'created_contract': None,\n",
       "   'position': 33,\n",
       "   'nonce': 34632713,\n",
       "   'has_error_in_internal_txs': None,\n",
       "   'actions': [],\n",
       "   'decoded_input': {'method_call': 'forward(address to, bytes data)',\n",
       "    'method_id': '6fadcf72',\n",
       "    'parameters': [{'name': 'to',\n",
       "      'type': 'address',\n",
       "      'value': '0x63db7e86391f5d31bab58808bcf75edb272f4f5c'},\n",
       "     {'name': 'data',\n",
       "      'type': 'bytes',\n",
       "      'value': '0xb1dc65a40001cf52800d166430960e6d1c6e21d86319e0dac55ce0e742cdd6259feec017000000000000000000000000000000000000000000000000000000000142e404c0e13c359299904b4913756d483047657d47821972f8bce822ef07257fa31cee00000000000000000000000000000000000000000000000000000000000000e000000000000000000000000000000000000000000000000000000000000003a00000000000000000000000000000000000000000000000000000000000000480010100000100000000000000000000000000000000000000000000000000000000000000000000000000000000000000000000000000000000000000000002a00000000000000000000000000000000000000000000000000000000066a2cb80080c0504030b01070f000d090a0e0206000000000000000000000000000000000000000000000000000000000000000000000000000000000000000000000080000000000000000000000000000000000000000000000000008868235946a9c2000000000000000000000000000000000000000000000000000000000000001000000000000000000000000000000000000000000000000000000049e50a9a2800000000000000000000000000000000000000000000000000000049f169556000000000000000000000000000000000000000000000000000000049f4d0898000000000000000000000000000000000000000000000000000000049f4d0898000000000000000000000000000000000000000000000000000000049f50296fe00000000000000000000000000000000000000000000000000000049f50296fe00000000000000000000000000000000000000000000000000000049f50296fe00000000000000000000000000000000000000000000000000000049f53761a000000000000000000000000000000000000000000000000000000049f548caa800000000000000000000000000000000000000000000000000000049f54f334800000000000000000000000000000000000000000000000000000049f628617a00000000000000000000000000000000000000000000000000000049f628617a00000000000000000000000000000000000000000000000000000049f84e84c000000000000000000000000000000000000000000000000000000049f996760000000000000000000000000000000000000000000000000000000049f996760000000000000000000000000000000000000000000000000000000049fac7a3000000000000000000000000000000000000000000000000000000000000000006c39be0abfe38ea0efdf039eb7fd74c0df57365ab15b582ddbcdbfc7710a930e8be7a5b87504662688d517dfe24c5d43d998566e22d4c610b670328595c247f43ff4ec0be9a372015a604158be7d9d1e1af601cfa5d615286f8accec8c067e39bd5aa530c544fcd30831f2444855ef8f79c56a7fa2ed53f92b5099f8e6808815a8eb435970d38672e611fb5e74042b911c94766a3a2fa3ea272bc54d26ab69fa053639776c7031d807e453102076e2f05126f7682f0305ba3b37c8c2b42b301ec000000000000000000000000000000000000000000000000000000000000000639641d551cd4986fdcfe98833ccee714337f063cace8c28b879f7b48f78f84b50d730459d1fb4fa5f732af0db19a024148a3d924a160aeadd3f93468e4625b4a029c2795a2100bd5ac1dfd1a967592bec92267d4eb476f23793db18d14def42653bad92359cc97721572754ab4d2d7c7a72e75181c9ebe96bf601c151ac99d9f4d75aab0d49a29aac90f382a7df7c6a5572b6144aa777a1427d91f6f22b97a0359ff4465b7215c5e033be0bfe7c24e82f0d4c39bfa02b74c566bc8fdf2e53a38'}]},\n",
       "   'token_transfers_overflow': None,\n",
       "   'raw_input': '0x6fadcf7200000000000000000000000063db7e86391f5d31bab58808bcf75edb272f4f5c00000000000000000000000000000000000000000000000000000000000000400000000000000000000000000000000000000000000000000000000000000564b1dc65a40001cf52800d166430960e6d1c6e21d86319e0dac55ce0e742cdd6259feec017000000000000000000000000000000000000000000000000000000000142e404c0e13c359299904b4913756d483047657d47821972f8bce822ef07257fa31cee00000000000000000000000000000000000000000000000000000000000000e000000000000000000000000000000000000000000000000000000000000003a00000000000000000000000000000000000000000000000000000000000000480010100000100000000000000000000000000000000000000000000000000000000000000000000000000000000000000000000000000000000000000000002a00000000000000000000000000000000000000000000000000000000066a2cb80080c0504030b01070f000d090a0e0206000000000000000000000000000000000000000000000000000000000000000000000000000000000000000000000080000000000000000000000000000000000000000000000000008868235946a9c2000000000000000000000000000000000000000000000000000000000000001000000000000000000000000000000000000000000000000000000049e50a9a2800000000000000000000000000000000000000000000000000000049f169556000000000000000000000000000000000000000000000000000000049f4d0898000000000000000000000000000000000000000000000000000000049f4d0898000000000000000000000000000000000000000000000000000000049f50296fe00000000000000000000000000000000000000000000000000000049f50296fe00000000000000000000000000000000000000000000000000000049f50296fe00000000000000000000000000000000000000000000000000000049f53761a000000000000000000000000000000000000000000000000000000049f548caa800000000000000000000000000000000000000000000000000000049f54f334800000000000000000000000000000000000000000000000000000049f628617a00000000000000000000000000000000000000000000000000000049f628617a00000000000000000000000000000000000000000000000000000049f84e84c000000000000000000000000000000000000000000000000000000049f996760000000000000000000000000000000000000000000000000000000049f996760000000000000000000000000000000000000000000000000000000049fac7a3000000000000000000000000000000000000000000000000000000000000000006c39be0abfe38ea0efdf039eb7fd74c0df57365ab15b582ddbcdbfc7710a930e8be7a5b87504662688d517dfe24c5d43d998566e22d4c610b670328595c247f43ff4ec0be9a372015a604158be7d9d1e1af601cfa5d615286f8accec8c067e39bd5aa530c544fcd30831f2444855ef8f79c56a7fa2ed53f92b5099f8e6808815a8eb435970d38672e611fb5e74042b911c94766a3a2fa3ea272bc54d26ab69fa053639776c7031d807e453102076e2f05126f7682f0305ba3b37c8c2b42b301ec000000000000000000000000000000000000000000000000000000000000000639641d551cd4986fdcfe98833ccee714337f063cace8c28b879f7b48f78f84b50d730459d1fb4fa5f732af0db19a024148a3d924a160aeadd3f93468e4625b4a029c2795a2100bd5ac1dfd1a967592bec92267d4eb476f23793db18d14def42653bad92359cc97721572754ab4d2d7c7a72e75181c9ebe96bf601c151ac99d9f4d75aab0d49a29aac90f382a7df7c6a5572b6144aa777a1427d91f6f22b97a0359ff4465b7215c5e033be0bfe7c24e82f0d4c39bfa02b74c566bc8fdf2e53a3800000000000000000000000000000000000000000000000000000000',\n",
       "   'value': '0',\n",
       "   'max_priority_fee_per_gas': None,\n",
       "   'revert_reason': None,\n",
       "   'confirmation_duration': [0, 2121.0],\n",
       "   'tx_tag': None},\n",
       "  {'timestamp': '2024-07-25T22:02:45.000000Z',\n",
       "   'fee': {'type': 'actual', 'value': '5229216004648192'},\n",
       "   'gas_limit': '236732',\n",
       "   'block': 59807267,\n",
       "   'status': 'error',\n",
       "   'method': None,\n",
       "   'confirmations': 11,\n",
       "   'type': 0,\n",
       "   'exchange_rate': '0.497313',\n",
       "   'to': {'ens_domain_name': None,\n",
       "    'hash': '0xE592427A0AEce92De3Edee1F18E0157C05861564',\n",
       "    'implementation_address': None,\n",
       "    'implementation_name': None,\n",
       "    'implementations': [],\n",
       "    'is_contract': False,\n",
       "    'is_verified': False,\n",
       "    'metadata': None,\n",
       "    'name': None,\n",
       "    'private_tags': [],\n",
       "    'public_tags': [],\n",
       "    'watchlist_names': []},\n",
       "   'tx_burnt_fee': None,\n",
       "   'max_fee_per_gas': None,\n",
       "   'result': 'awaiting_internal_transactions',\n",
       "   'hash': '0x3d22bd5322e724ee4b36a8da2674eb326b5312e5359cf1140233340e924b64a8',\n",
       "   'gas_price': '36000000032',\n",
       "   'priority_fee': None,\n",
       "   'base_fee_per_gas': '28',\n",
       "   'from': {'ens_domain_name': None,\n",
       "    'hash': '0xC0E705bA89112e3525684bE2358A19237C178757',\n",
       "    'implementation_address': None,\n",
       "    'implementation_name': None,\n",
       "    'implementations': [],\n",
       "    'is_contract': False,\n",
       "    'is_verified': False,\n",
       "    'metadata': None,\n",
       "    'name': None,\n",
       "    'private_tags': [],\n",
       "    'public_tags': [],\n",
       "    'watchlist_names': []},\n",
       "   'token_transfers': None,\n",
       "   'tx_types': [],\n",
       "   'gas_used': '145256',\n",
       "   'created_contract': None,\n",
       "   'position': 34,\n",
       "   'nonce': 161938,\n",
       "   'has_error_in_internal_txs': None,\n",
       "   'actions': [],\n",
       "   'decoded_input': None,\n",
       "   'token_transfers_overflow': None,\n",
       "   'raw_input': '0x414bf3890000000000000000000000000d500b1d8e8ef31e21c99d1db9a6444d3adf12700000000000000000000000001bfd67037b42cf73acf2047067bd4f2c47d9bfd600000000000000000000000000000000000000000000000000000000000001f4000000000000000000000000c0e705ba89112e3525684be2358a19237c1787570000000000000000000000000000000000000000000000000000000066a2ccac0000000000000000000000000000000000000000000000469ee51e3b9d44000000000000000000000000000000000000000000000000000000000000000ef3770000000000000000000000000000000000000000000000000000000000000000',\n",
       "   'value': '0',\n",
       "   'max_priority_fee_per_gas': None,\n",
       "   'revert_reason': None,\n",
       "   'confirmation_duration': [0, 2121.0],\n",
       "   'tx_tag': None},\n",
       "  {'timestamp': '2024-07-25T22:02:45.000000Z',\n",
       "   'fee': {'type': 'actual', 'value': '5915988005258656'},\n",
       "   'gas_limit': '962550',\n",
       "   'block': 59807267,\n",
       "   'status': 'ok',\n",
       "   'method': '0x4d6d5089',\n",
       "   'confirmations': 11,\n",
       "   'type': 0,\n",
       "   'exchange_rate': '0.497313',\n",
       "   'to': {'ens_domain_name': None,\n",
       "    'hash': '0x8308a7D7655C2ae21632eD3dd6F55f509E7dfDb9',\n",
       "    'implementation_address': None,\n",
       "    'implementation_name': None,\n",
       "    'implementations': [],\n",
       "    'is_contract': True,\n",
       "    'is_verified': False,\n",
       "    'metadata': None,\n",
       "    'name': None,\n",
       "    'private_tags': [],\n",
       "    'public_tags': [],\n",
       "    'watchlist_names': []},\n",
       "   'tx_burnt_fee': None,\n",
       "   'max_fee_per_gas': None,\n",
       "   'result': 'success',\n",
       "   'hash': '0xbda0134a9278c675cf723b2da695f5879b8ef6c3750008cebc3f2c8fda7d38d7',\n",
       "   'gas_price': '36000000032',\n",
       "   'priority_fee': None,\n",
       "   'base_fee_per_gas': '28',\n",
       "   'from': {'ens_domain_name': None,\n",
       "    'hash': '0x1bcAb26A921918e8C44A805FF95017bA69E1bE18',\n",
       "    'implementation_address': None,\n",
       "    'implementation_name': None,\n",
       "    'implementations': [],\n",
       "    'is_contract': False,\n",
       "    'is_verified': False,\n",
       "    'metadata': None,\n",
       "    'name': None,\n",
       "    'private_tags': [],\n",
       "    'public_tags': [],\n",
       "    'watchlist_names': []},\n",
       "   'token_transfers': None,\n",
       "   'tx_types': ['contract_call', 'token_transfer'],\n",
       "   'gas_used': '164333',\n",
       "   'created_contract': None,\n",
       "   'position': 35,\n",
       "   'nonce': 61336,\n",
       "   'has_error_in_internal_txs': None,\n",
       "   'actions': [],\n",
       "   'decoded_input': None,\n",
       "   'token_transfers_overflow': None,\n",
       "   'raw_input': '0x4d6d508900000000000000000000000068b3465833fb72a70ecdf485e0e4c7bd8665fc45000000000000000000000000c2132d05d31c914a87c6611c10748aeb04b58e8f000000000000000000000000200c234721b5e549c3693ccc93cf191f90dc2af90000000000000000000000000000000000000000000000000000000000000bb8000000000000000000000000039ac6fbcebf02b54259bc690e13540693d9eb8d0000000000000000000000000000000000000000000000000000000066a2cc0b00000000000000000000000000000000000000000000008fc24beda071808c000000000000000000000000000000000000000000000000000000000003a56046',\n",
       "   'value': '0',\n",
       "   'max_priority_fee_per_gas': None,\n",
       "   'revert_reason': None,\n",
       "   'confirmation_duration': [0, 2121.0],\n",
       "   'tx_tag': None},\n",
       "  {'timestamp': '2024-07-25T22:02:45.000000Z',\n",
       "   'fee': {'type': 'actual', 'value': '5490342004991220'},\n",
       "   'gas_limit': '217965',\n",
       "   'block': 59807267,\n",
       "   'status': 'ok',\n",
       "   'method': '0xdb0762e3',\n",
       "   'confirmations': 11,\n",
       "   'type': 0,\n",
       "   'exchange_rate': '0.497313',\n",
       "   'to': {'ens_domain_name': None,\n",
       "    'hash': '0x34086D19902b78462E35acD0bAED859C4199d971',\n",
       "    'implementation_address': None,\n",
       "    'implementation_name': None,\n",
       "    'implementations': [],\n",
       "    'is_contract': True,\n",
       "    'is_verified': False,\n",
       "    'metadata': None,\n",
       "    'name': None,\n",
       "    'private_tags': [],\n",
       "    'public_tags': [],\n",
       "    'watchlist_names': []},\n",
       "   'tx_burnt_fee': None,\n",
       "   'max_fee_per_gas': None,\n",
       "   'result': 'success',\n",
       "   'hash': '0xa605667f22accae4ca31d43f97b495d53d3ef89dc92d55b062ad19baaf4bf932',\n",
       "   'gas_price': '33000000030',\n",
       "   'priority_fee': None,\n",
       "   'base_fee_per_gas': '28',\n",
       "   'from': {'ens_domain_name': None,\n",
       "    'hash': '0xa01554F0671Ba642bFdCAC7bC1064Da6d2589349',\n",
       "    'implementation_address': None,\n",
       "    'implementation_name': None,\n",
       "    'implementations': [],\n",
       "    'is_contract': False,\n",
       "    'is_verified': False,\n",
       "    'metadata': None,\n",
       "    'name': None,\n",
       "    'private_tags': [],\n",
       "    'public_tags': [],\n",
       "    'watchlist_names': []},\n",
       "   'token_transfers': None,\n",
       "   'tx_types': ['contract_call', 'token_transfer'],\n",
       "   'gas_used': '166374',\n",
       "   'created_contract': None,\n",
       "   'position': 36,\n",
       "   'nonce': 1123,\n",
       "   'has_error_in_internal_txs': None,\n",
       "   'actions': [],\n",
       "   'decoded_input': None,\n",
       "   'token_transfers_overflow': None,\n",
       "   'raw_input': '0xdb0762e300000000000000000000000000000000000000000000000000000190e5c6003900000000000000000000000000000000000000000000000000000000039096230000000000000000000000000000000000000000000000000000000000000060000000000000000000000000c2132d05d31c914a87c6611c10748aeb04b58e8f0000000000000000000000001bfd67037b42cf73acf2047067bd4f2c47d9bfd60000000000000000000000000000000000000000000000000000000005c729780000000000000000000000000000000000000000000000000000000000023ea1000000000000000000000000000000000000000000000000000000000000000100000000000000000000000000000000000000000000000000000000000000e00000000000000000000000000000000000000000000000000000000000000120000000000000000000000000000000000000000000000000000000000000001501a1cfb393607d1a6888d273b762832ed14c8b56b10000000000000000000000000000000000000000000000000000000000000000000000000000000000000100000000000000000000000000000000000000000000000000000000000000200000000000000000000000000000000000000000000000000000000000000015000000000000000019aa3564935f8fc1cd17eaec400000000000000000000000',\n",
       "   'value': '0',\n",
       "   'max_priority_fee_per_gas': None,\n",
       "   'revert_reason': None,\n",
       "   'confirmation_duration': [0, 2121.0],\n",
       "   'tx_tag': None},\n",
       "  {'timestamp': '2024-07-25T22:02:45.000000Z',\n",
       "   'fee': {'type': 'actual', 'value': '920139000780724'},\n",
       "   'gas_limit': '100000',\n",
       "   'block': 59807267,\n",
       "   'status': 'ok',\n",
       "   'method': None,\n",
       "   'confirmations': 11,\n",
       "   'type': 0,\n",
       "   'exchange_rate': '0.497313',\n",
       "   'to': {'ens_domain_name': None,\n",
       "    'hash': '0xbac7951AAD9CDAa907fd4a04D121529bB5Ec90b7',\n",
       "    'implementation_address': None,\n",
       "    'implementation_name': None,\n",
       "    'implementations': [],\n",
       "    'is_contract': False,\n",
       "    'is_verified': False,\n",
       "    'metadata': None,\n",
       "    'name': None,\n",
       "    'private_tags': [],\n",
       "    'public_tags': [],\n",
       "    'watchlist_names': []},\n",
       "   'tx_burnt_fee': None,\n",
       "   'max_fee_per_gas': None,\n",
       "   'result': 'success',\n",
       "   'hash': '0x8b67184d7cd7cecf02a4a84a797329a2b1cfb15512f91546b6bf3d3b4235c3f6',\n",
       "   'gas_price': '33000000028',\n",
       "   'priority_fee': None,\n",
       "   'base_fee_per_gas': '28',\n",
       "   'from': {'ens_domain_name': None,\n",
       "    'hash': '0x348Ec7C8e4B64F58747b053E2a10711619A8c3fd',\n",
       "    'implementation_address': None,\n",
       "    'implementation_name': None,\n",
       "    'implementations': [],\n",
       "    'is_contract': False,\n",
       "    'is_verified': False,\n",
       "    'metadata': None,\n",
       "    'name': None,\n",
       "    'private_tags': [],\n",
       "    'public_tags': [],\n",
       "    'watchlist_names': []},\n",
       "   'token_transfers': None,\n",
       "   'tx_types': [],\n",
       "   'gas_used': '27883',\n",
       "   'created_contract': None,\n",
       "   'position': 37,\n",
       "   'nonce': 82,\n",
       "   'has_error_in_internal_txs': None,\n",
       "   'actions': [],\n",
       "   'decoded_input': None,\n",
       "   'token_transfers_overflow': None,\n",
       "   'raw_input': '0xf83d08ba',\n",
       "   'value': '0',\n",
       "   'max_priority_fee_per_gas': None,\n",
       "   'revert_reason': None,\n",
       "   'confirmation_duration': [0, 2121.0],\n",
       "   'tx_tag': None},\n",
       "  {'timestamp': '2024-07-25T22:02:45.000000Z',\n",
       "   'fee': {'type': 'actual', 'value': '4590267003616574'},\n",
       "   'gas_limit': '500000',\n",
       "   'block': 59807267,\n",
       "   'status': 'ok',\n",
       "   'method': 'forward',\n",
       "   'confirmations': 11,\n",
       "   'type': 0,\n",
       "   'exchange_rate': '0.497313',\n",
       "   'to': {'ens_domain_name': None,\n",
       "    'hash': '0xc08c942015d149dA17C1ef15128f3Ca49eebe809',\n",
       "    'implementation_address': None,\n",
       "    'implementation_name': None,\n",
       "    'implementations': [],\n",
       "    'is_contract': True,\n",
       "    'is_verified': True,\n",
       "    'metadata': None,\n",
       "    'name': 'AuthorizedForwarder',\n",
       "    'private_tags': [],\n",
       "    'public_tags': [],\n",
       "    'watchlist_names': []},\n",
       "   'tx_burnt_fee': None,\n",
       "   'max_fee_per_gas': None,\n",
       "   'result': 'success',\n",
       "   'hash': '0x7fe5242178ee15b6bd252f4202c83c7785683405b0f87d51d9eec32d01160b24',\n",
       "   'gas_price': '33000000026',\n",
       "   'priority_fee': None,\n",
       "   'base_fee_per_gas': '28',\n",
       "   'from': {'ens_domain_name': None,\n",
       "    'hash': '0x777Ad55EFc465052d6A4AB7bc75B6A15175bB399',\n",
       "    'implementation_address': None,\n",
       "    'implementation_name': None,\n",
       "    'implementations': [],\n",
       "    'is_contract': False,\n",
       "    'is_verified': False,\n",
       "    'metadata': None,\n",
       "    'name': None,\n",
       "    'private_tags': [],\n",
       "    'public_tags': [],\n",
       "    'watchlist_names': []},\n",
       "   'token_transfers': None,\n",
       "   'tx_types': ['contract_call'],\n",
       "   'gas_used': '139099',\n",
       "   'created_contract': None,\n",
       "   'position': 38,\n",
       "   'nonce': 32859442,\n",
       "   'has_error_in_internal_txs': None,\n",
       "   'actions': [],\n",
       "   'decoded_input': {'method_call': 'forward(address to, bytes data)',\n",
       "    'method_id': '6fadcf72',\n",
       "    'parameters': [{'name': 'to',\n",
       "      'type': 'address',\n",
       "      'value': '0x67aeb9800259c40cf1adc087bddde3fad9136e3b'},\n",
       "     {'name': 'data',\n",
       "      'type': 'bytes',\n",
       "      'value': '0xb1dc65a400012efe80732b9e02bd43179088c54f238b300c29a68865315b9951227776430000000000000000000000000000000000000000000000000000000000fee9022d8bedc907d34514e4bc0886b87f31cdb64a63e74d91d5c575e55a8ec55bfd0700000000000000000000000000000000000000000000000000000000000000e000000000000000000000000000000000000000000000000000000000000003a00000000000000000000000000000000000000000000000000000000000000480010001000001000000000000000000000000000000000000000000000000000000000000000000000000000000000000000000000000000000000000000002a00000000000000000000000000000000000000000000000000000000066a2cb7f0b060d03070f02010a05040e08090c0000000000000000000000000000000000000000000000000000000000000000000000000000000000000000000000008000000000000000000000000000000000000000000000000000886902321b8b980000000000000000000000000000000000000000000000000000000000000010000000000000000000000000000000000000000000000000000000370b930f1b000000000000000000000000000000000000000000000000000000370b930f1b000000000000000000000000000000000000000000000000000000370c14b1fd000000000000000000000000000000000000000000000000000000370d22dd70000000000000000000000000000000000000000000000000000000371094aa2c00000000000000000000000000000000000000000000000000000037120c917f00000000000000000000000000000000000000000000000000000037120c917f000000000000000000000000000000000000000000000000000000371286fd3f000000000000000000000000000000000000000000000000000000371286fd3f000000000000000000000000000000000000000000000000000000371286fd3f0000000000000000000000000000000000000000000000000000003712cad51f0000000000000000000000000000000000000000000000000000003712cad520000000000000000000000000000000000000000000000000000000371492ff79000000000000000000000000000000000000000000000000000000371492ff79000000000000000000000000000000000000000000000000000000371492ff79000000000000000000000000000000000000000000000000000000371736f94000000000000000000000000000000000000000000000000000000000000000065ec2b7888bc199e2e0ced491934401169ede016adf2ea87605815107000151934f435172deb4fca7091c64fa025c38fc45f7fcd4cdb9af0b52840b962beb3bf5f059f05641882fbf4e86f03a6740c27f132ed305535b06a695ae9fcb22dae12adcd517e10df33742703d2a12b39f62c171754272a2203a0fa9ab28ade88c71f37cf181a973727102de17473754a80fd9ca7b55e0ed4e90e757508aa910522b1ec8391bcad7e5e9b5eaaec28262d60e4896860c101d15246db7db221ad4dc4359000000000000000000000000000000000000000000000000000000000000000613453523cdd9e04ae009f500a9a67ac112fb66978a6acd79b03c629d0fe8af372730f2a2644de21d61451651fbc6907fdebe7df65ba35c718f6456e42d119e7b4f6251d49e6fed544573f45a3a3e4f7047c141fc2fe64aa9e6fec23a7ed8d54a0df97292d60c8b57c1ef1b03d0a3c80f326d7ecb455fcb53e31198406e85ae7162dbe7648613e496d7c173cafd2d4f5a3f7d4bfda5c81217f069c3016a4016944f4c0b0071ea1aa184bc786004f650c0d9368f559db506b40271cbcdc341e625'}]},\n",
       "   'token_transfers_overflow': None,\n",
       "   'raw_input': '0x6fadcf7200000000000000000000000067aeb9800259c40cf1adc087bddde3fad9136e3b00000000000000000000000000000000000000000000000000000000000000400000000000000000000000000000000000000000000000000000000000000564b1dc65a400012efe80732b9e02bd43179088c54f238b300c29a68865315b9951227776430000000000000000000000000000000000000000000000000000000000fee9022d8bedc907d34514e4bc0886b87f31cdb64a63e74d91d5c575e55a8ec55bfd0700000000000000000000000000000000000000000000000000000000000000e000000000000000000000000000000000000000000000000000000000000003a00000000000000000000000000000000000000000000000000000000000000480010001000001000000000000000000000000000000000000000000000000000000000000000000000000000000000000000000000000000000000000000002a00000000000000000000000000000000000000000000000000000000066a2cb7f0b060d03070f02010a05040e08090c0000000000000000000000000000000000000000000000000000000000000000000000000000000000000000000000008000000000000000000000000000000000000000000000000000886902321b8b980000000000000000000000000000000000000000000000000000000000000010000000000000000000000000000000000000000000000000000000370b930f1b000000000000000000000000000000000000000000000000000000370b930f1b000000000000000000000000000000000000000000000000000000370c14b1fd000000000000000000000000000000000000000000000000000000370d22dd70000000000000000000000000000000000000000000000000000000371094aa2c00000000000000000000000000000000000000000000000000000037120c917f00000000000000000000000000000000000000000000000000000037120c917f000000000000000000000000000000000000000000000000000000371286fd3f000000000000000000000000000000000000000000000000000000371286fd3f000000000000000000000000000000000000000000000000000000371286fd3f0000000000000000000000000000000000000000000000000000003712cad51f0000000000000000000000000000000000000000000000000000003712cad520000000000000000000000000000000000000000000000000000000371492ff79000000000000000000000000000000000000000000000000000000371492ff79000000000000000000000000000000000000000000000000000000371492ff79000000000000000000000000000000000000000000000000000000371736f94000000000000000000000000000000000000000000000000000000000000000065ec2b7888bc199e2e0ced491934401169ede016adf2ea87605815107000151934f435172deb4fca7091c64fa025c38fc45f7fcd4cdb9af0b52840b962beb3bf5f059f05641882fbf4e86f03a6740c27f132ed305535b06a695ae9fcb22dae12adcd517e10df33742703d2a12b39f62c171754272a2203a0fa9ab28ade88c71f37cf181a973727102de17473754a80fd9ca7b55e0ed4e90e757508aa910522b1ec8391bcad7e5e9b5eaaec28262d60e4896860c101d15246db7db221ad4dc4359000000000000000000000000000000000000000000000000000000000000000613453523cdd9e04ae009f500a9a67ac112fb66978a6acd79b03c629d0fe8af372730f2a2644de21d61451651fbc6907fdebe7df65ba35c718f6456e42d119e7b4f6251d49e6fed544573f45a3a3e4f7047c141fc2fe64aa9e6fec23a7ed8d54a0df97292d60c8b57c1ef1b03d0a3c80f326d7ecb455fcb53e31198406e85ae7162dbe7648613e496d7c173cafd2d4f5a3f7d4bfda5c81217f069c3016a4016944f4c0b0071ea1aa184bc786004f650c0d9368f559db506b40271cbcdc341e62500000000000000000000000000000000000000000000000000000000',\n",
       "   'value': '0',\n",
       "   'max_priority_fee_per_gas': None,\n",
       "   'revert_reason': None,\n",
       "   'confirmation_duration': [0, 2121.0],\n",
       "   'tx_tag': None},\n",
       "  {'timestamp': '2024-07-25T22:02:45.000000Z',\n",
       "   'fee': {'type': 'actual', 'value': '4586274003613428'},\n",
       "   'gas_limit': '500000',\n",
       "   'block': 59807267,\n",
       "   'status': 'ok',\n",
       "   'method': 'forward',\n",
       "   'confirmations': 11,\n",
       "   'type': 0,\n",
       "   'exchange_rate': '0.497313',\n",
       "   'to': {'ens_domain_name': None,\n",
       "    'hash': '0x97730d7BdB2260223A4bAC7d72EE67fFe8840433',\n",
       "    'implementation_address': None,\n",
       "    'implementation_name': None,\n",
       "    'implementations': [],\n",
       "    'is_contract': True,\n",
       "    'is_verified': False,\n",
       "    'metadata': None,\n",
       "    'name': None,\n",
       "    'private_tags': [],\n",
       "    'public_tags': [],\n",
       "    'watchlist_names': []},\n",
       "   'tx_burnt_fee': None,\n",
       "   'max_fee_per_gas': None,\n",
       "   'result': 'success',\n",
       "   'hash': '0xd3f9dbe93dcee51a7ac3b978288f59ff7076185fe74a210ec5406b49803eee65',\n",
       "   'gas_price': '33000000026',\n",
       "   'priority_fee': None,\n",
       "   'base_fee_per_gas': '28',\n",
       "   'from': {'ens_domain_name': None,\n",
       "    'hash': '0x84A611B71254F5fCCb1E5a619aD723CAD8a03638',\n",
       "    'implementation_address': None,\n",
       "    'implementation_name': None,\n",
       "    'implementations': [],\n",
       "    'is_contract': False,\n",
       "    'is_verified': False,\n",
       "    'metadata': None,\n",
       "    'name': None,\n",
       "    'private_tags': [],\n",
       "    'public_tags': [],\n",
       "    'watchlist_names': []},\n",
       "   'token_transfers': None,\n",
       "   'tx_types': ['contract_call'],\n",
       "   'gas_used': '138978',\n",
       "   'created_contract': None,\n",
       "   'position': 39,\n",
       "   'nonce': 35127832,\n",
       "   'has_error_in_internal_txs': None,\n",
       "   'actions': [],\n",
       "   'decoded_input': {'method_call': 'forward(address to, bytes data)',\n",
       "    'method_id': '6fadcf72',\n",
       "    'parameters': [{'name': 'to',\n",
       "      'type': 'address',\n",
       "      'value': '0x955dc0f1dd17d5d33f8df78793d2e0e4ff395d67'},\n",
       "     {'name': 'data',\n",
       "      'type': 'bytes',\n",
       "      'value': '0xb1dc65a40001459ff90b5360f2eb9b37f2063cee43d7e8f2f1a10453171e9137922dd081000000000000000000000000000000000000000000000000000000000142850254a97acd9312faf2be2b56387cce5bf5725c8ab27497c9ee6397d87a401db48300000000000000000000000000000000000000000000000000000000000000e000000000000000000000000000000000000000000000000000000000000003a00000000000000000000000000000000000000000000000000000000000000480000101010100000000000000000000000000000000000000000000000000000000000000000000000000000000000000000000000000000000000000000002a00000000000000000000000000000000000000000000000000000000066a2cb7f070d01080900060305040e0c020a0b0f00000000000000000000000000000000000000000000000000000000000000000000000000000000000000000000008000000000000000000000000000000000000000000000000000886c27ab8e3a7500000000000000000000000000000000000000000000000000000000000000100000000000000000000000000000000000000000000000000000003df678f0300000000000000000000000000000000000000000000000000000003df7a5679b0000000000000000000000000000000000000000000000000000003df7e682200000000000000000000000000000000000000000000000000000003df7e682200000000000000000000000000000000000000000000000000000003df7e682200000000000000000000000000000000000000000000000000000003dfc8a09f00000000000000000000000000000000000000000000000000000003dfde0ecce0000000000000000000000000000000000000000000000000000003dfe16838d0000000000000000000000000000000000000000000000000000003dfea437600000000000000000000000000000000000000000000000000000003dfea437600000000000000000000000000000000000000000000000000000003dfea437600000000000000000000000000000000000000000000000000000003dff2af3900000000000000000000000000000000000000000000000000000003e023397e00000000000000000000000000000000000000000000000000000003e0384b0c00000000000000000000000000000000000000000000000000000003e0384b0c00000000000000000000000000000000000000000000000000000003e0384b0c000000000000000000000000000000000000000000000000000000000000000061012cde9935f619c302c471f04df6e6a8e01f83bbaa59801d05ecea75e2a13859fef5a233d21acb5df295859cf3a2054c1aece5a14e87888624f5db1fcb2367cfa10ef8ae1e2951f02145d9f62632c572dbc704433b0b1d77f984ae82823aadda8beede68217236863be48a1c3f6a0798720708f17de1a7e387ebc514a70c49f2d408ba27695e5cab99bb79582257262a77eace15283a31c5ae43da9ba8a3878f0e3e90376133d0eee5a07599b4c96de63edeaad95982ea27e68da59cb80ca740000000000000000000000000000000000000000000000000000000000000006775ed21855bc9e247b7bc75777a3391ffefdcabfff07efdc2ba27630ef7102ab527dbb6ef3df738215ee91e39c3cbb216122738d3f90dfa9b7df6c20ab955a8c6d6c996a951324ff9f73f5296ad116bd9ca7f3c5767c8542a45df52bead1fa491975f250651482639c34e2d9285a1800836a5da42776059d195eecfcc61836272e046788121a6125be9accbf4fdf68e88401071dfd234248335155da248da82b7126995cb380cf506a11d3db330f384983b9fd4dcb8ee54956937d73ed137d54'}]},\n",
       "   'token_transfers_overflow': None,\n",
       "   'raw_input': '0x6fadcf72000000000000000000000000955dc0f1dd17d5d33f8df78793d2e0e4ff395d6700000000000000000000000000000000000000000000000000000000000000400000000000000000000000000000000000000000000000000000000000000564b1dc65a40001459ff90b5360f2eb9b37f2063cee43d7e8f2f1a10453171e9137922dd081000000000000000000000000000000000000000000000000000000000142850254a97acd9312faf2be2b56387cce5bf5725c8ab27497c9ee6397d87a401db48300000000000000000000000000000000000000000000000000000000000000e000000000000000000000000000000000000000000000000000000000000003a00000000000000000000000000000000000000000000000000000000000000480000101010100000000000000000000000000000000000000000000000000000000000000000000000000000000000000000000000000000000000000000002a00000000000000000000000000000000000000000000000000000000066a2cb7f070d01080900060305040e0c020a0b0f00000000000000000000000000000000000000000000000000000000000000000000000000000000000000000000008000000000000000000000000000000000000000000000000000886c27ab8e3a7500000000000000000000000000000000000000000000000000000000000000100000000000000000000000000000000000000000000000000000003df678f0300000000000000000000000000000000000000000000000000000003df7a5679b0000000000000000000000000000000000000000000000000000003df7e682200000000000000000000000000000000000000000000000000000003df7e682200000000000000000000000000000000000000000000000000000003df7e682200000000000000000000000000000000000000000000000000000003dfc8a09f00000000000000000000000000000000000000000000000000000003dfde0ecce0000000000000000000000000000000000000000000000000000003dfe16838d0000000000000000000000000000000000000000000000000000003dfea437600000000000000000000000000000000000000000000000000000003dfea437600000000000000000000000000000000000000000000000000000003dfea437600000000000000000000000000000000000000000000000000000003dff2af3900000000000000000000000000000000000000000000000000000003e023397e00000000000000000000000000000000000000000000000000000003e0384b0c00000000000000000000000000000000000000000000000000000003e0384b0c00000000000000000000000000000000000000000000000000000003e0384b0c000000000000000000000000000000000000000000000000000000000000000061012cde9935f619c302c471f04df6e6a8e01f83bbaa59801d05ecea75e2a13859fef5a233d21acb5df295859cf3a2054c1aece5a14e87888624f5db1fcb2367cfa10ef8ae1e2951f02145d9f62632c572dbc704433b0b1d77f984ae82823aadda8beede68217236863be48a1c3f6a0798720708f17de1a7e387ebc514a70c49f2d408ba27695e5cab99bb79582257262a77eace15283a31c5ae43da9ba8a3878f0e3e90376133d0eee5a07599b4c96de63edeaad95982ea27e68da59cb80ca740000000000000000000000000000000000000000000000000000000000000006775ed21855bc9e247b7bc75777a3391ffefdcabfff07efdc2ba27630ef7102ab527dbb6ef3df738215ee91e39c3cbb216122738d3f90dfa9b7df6c20ab955a8c6d6c996a951324ff9f73f5296ad116bd9ca7f3c5767c8542a45df52bead1fa491975f250651482639c34e2d9285a1800836a5da42776059d195eecfcc61836272e046788121a6125be9accbf4fdf68e88401071dfd234248335155da248da82b7126995cb380cf506a11d3db330f384983b9fd4dcb8ee54956937d73ed137d5400000000000000000000000000000000000000000000000000000000',\n",
       "   'value': '0',\n",
       "   'max_priority_fee_per_gas': None,\n",
       "   'revert_reason': None,\n",
       "   'confirmation_duration': [0, 2121.0],\n",
       "   'tx_tag': None},\n",
       "  {'timestamp': '2024-07-25T22:02:45.000000Z',\n",
       "   'fee': {'type': 'actual', 'value': '4585086003612492'},\n",
       "   'gas_limit': '12000000',\n",
       "   'block': 59807267,\n",
       "   'status': 'ok',\n",
       "   'method': 'forward',\n",
       "   'confirmations': 11,\n",
       "   'type': 0,\n",
       "   'exchange_rate': '0.497313',\n",
       "   'to': {'ens_domain_name': None,\n",
       "    'hash': '0x3F7ecb458433E07d3E40d35eC08024606A9db792',\n",
       "    'implementation_address': None,\n",
       "    'implementation_name': None,\n",
       "    'implementations': [],\n",
       "    'is_contract': True,\n",
       "    'is_verified': False,\n",
       "    'metadata': None,\n",
       "    'name': None,\n",
       "    'private_tags': [],\n",
       "    'public_tags': [],\n",
       "    'watchlist_names': []},\n",
       "   'tx_burnt_fee': None,\n",
       "   'max_fee_per_gas': None,\n",
       "   'result': 'success',\n",
       "   'hash': '0xbb1da7477879a8c9b5c8ff8da5ef0159004edd5ab933652d0d54220fb55e817b',\n",
       "   'gas_price': '33000000026',\n",
       "   'priority_fee': None,\n",
       "   'base_fee_per_gas': '28',\n",
       "   'from': {'ens_domain_name': None,\n",
       "    'hash': '0x3Dd12EB5aE0F1A106fB358C8B99830ab5690a7a2',\n",
       "    'implementation_address': None,\n",
       "    'implementation_name': None,\n",
       "    'implementations': [],\n",
       "    'is_contract': False,\n",
       "    'is_verified': False,\n",
       "    'metadata': None,\n",
       "    'name': None,\n",
       "    'private_tags': [],\n",
       "    'public_tags': [],\n",
       "    'watchlist_names': []},\n",
       "   'token_transfers': None,\n",
       "   'tx_types': ['contract_call'],\n",
       "   'gas_used': '138942',\n",
       "   'created_contract': None,\n",
       "   'position': 40,\n",
       "   'nonce': 32484316,\n",
       "   'has_error_in_internal_txs': None,\n",
       "   'actions': [],\n",
       "   'decoded_input': {'method_call': 'forward(address to, bytes data)',\n",
       "    'method_id': '6fadcf72',\n",
       "    'parameters': [{'name': 'to',\n",
       "      'type': 'address',\n",
       "      'value': '0x12cc6797d0fb329baec8d0ab588b1c1cf0ea71a5'},\n",
       "     {'name': 'data',\n",
       "      'type': 'bytes',\n",
       "      'value': '0xb1dc65a400016eedc5f22b86bcf762325fb6b9394f824c24aa1d1dcf36f69b591de71257000000000000000000000000000000000000000000000000000000000142f503f9dac4be982fe5ff77b29bd2884feeeb03d35db14d754377ecd231c3054b269900000000000000000000000000000000000000000000000000000000000000e000000000000000000000000000000000000000000000000000000000000003a00000000000000000000000000000000000000000000000000000000000000480010101010001000000000000000000000000000000000000000000000000000000000000000000000000000000000000000000000000000000000000000002a00000000000000000000000000000000000000000000000000000000066a2cb7f0d030601090708000f050a0c0b020e0400000000000000000000000000000000000000000000000000000000000000000000000000000000000000000000008000000000000000000000000000000000000000000000000000886c27ab8e3a750000000000000000000000000000000000000000000000000000000000000010000000000000000000000000000000000000000000000000000000370bce7eac000000000000000000000000000000000000000000000000000000370c34fb00000000000000000000000000000000000000000000000000000000370c34fb00000000000000000000000000000000000000000000000000000000370c34fb00000000000000000000000000000000000000000000000000000000370c537f80000000000000000000000000000000000000000000000000000000370c537f80000000000000000000000000000000000000000000000000000000370c537f80000000000000000000000000000000000000000000000000000000370c537f80000000000000000000000000000000000000000000000000000000370ccd9180000000000000000000000000000000000000000000000000000000370d02f960000000000000000000000000000000000000000000000000000000370d307200000000000000000000000000000000000000000000000000000000370d307200000000000000000000000000000000000000000000000000000000370d47a380000000000000000000000000000000000000000000000000000000370d47a380000000000000000000000000000000000000000000000000000000370d47a380000000000000000000000000000000000000000000000000000000370d47a380000000000000000000000000000000000000000000000000000000000000000679d6386e28988b4f0f37c0297ed73eb06f6219ebca6b7cf907ecf20726da1264f99d43c77684fd9b884665e41570fac4db78fec96c66eccac777e2e7c6523b1a6fbb86ac7bfe2b5502c127089242f839ddaac0a2329b1378245db19711a18468059a853fd1baa773a48110a876f7dc08744987036388539152681115ee246e8d1d988393f61c7634de9badbc7d91543da6ae4f647e115583e41c8e67087412ce186edbb0f4d21a9948bd67f0488d621a8d4efa047d301272574dbba3132af5bf00000000000000000000000000000000000000000000000000000000000000063458614ad5a72248aaf151ad8bf7546ac5ce18fce7beb31af3d98c8ed923c19032058536a3b838fc4e836bcefe050aded51b08217eb0b637d85930338c677e3c32ae45930da64371f79fc442149e384859adb07de0e3c005ed70c96a58a2c9581409ee70e3c006b52ee1398f49a23e6a7dcc70660f6f09caa9e3512ef941bfc3218ba5af798d98bad91327f368b8d9f0da6a8936b93f79ff1cc736cf3a8bd7e51419f1a4163473246635800bdb5f6481f92ca57a5eed73c64d90a61ed4b5ef31'}]},\n",
       "   'token_transfers_overflow': None,\n",
       "   'raw_input': '0x6fadcf7200000000000000000000000012cc6797d0fb329baec8d0ab588b1c1cf0ea71a500000000000000000000000000000000000000000000000000000000000000400000000000000000000000000000000000000000000000000000000000000564b1dc65a400016eedc5f22b86bcf762325fb6b9394f824c24aa1d1dcf36f69b591de71257000000000000000000000000000000000000000000000000000000000142f503f9dac4be982fe5ff77b29bd2884feeeb03d35db14d754377ecd231c3054b269900000000000000000000000000000000000000000000000000000000000000e000000000000000000000000000000000000000000000000000000000000003a00000000000000000000000000000000000000000000000000000000000000480010101010001000000000000000000000000000000000000000000000000000000000000000000000000000000000000000000000000000000000000000002a00000000000000000000000000000000000000000000000000000000066a2cb7f0d030601090708000f050a0c0b020e0400000000000000000000000000000000000000000000000000000000000000000000000000000000000000000000008000000000000000000000000000000000000000000000000000886c27ab8e3a750000000000000000000000000000000000000000000000000000000000000010000000000000000000000000000000000000000000000000000000370bce7eac000000000000000000000000000000000000000000000000000000370c34fb00000000000000000000000000000000000000000000000000000000370c34fb00000000000000000000000000000000000000000000000000000000370c34fb00000000000000000000000000000000000000000000000000000000370c537f80000000000000000000000000000000000000000000000000000000370c537f80000000000000000000000000000000000000000000000000000000370c537f80000000000000000000000000000000000000000000000000000000370c537f80000000000000000000000000000000000000000000000000000000370ccd9180000000000000000000000000000000000000000000000000000000370d02f960000000000000000000000000000000000000000000000000000000370d307200000000000000000000000000000000000000000000000000000000370d307200000000000000000000000000000000000000000000000000000000370d47a380000000000000000000000000000000000000000000000000000000370d47a380000000000000000000000000000000000000000000000000000000370d47a380000000000000000000000000000000000000000000000000000000370d47a380000000000000000000000000000000000000000000000000000000000000000679d6386e28988b4f0f37c0297ed73eb06f6219ebca6b7cf907ecf20726da1264f99d43c77684fd9b884665e41570fac4db78fec96c66eccac777e2e7c6523b1a6fbb86ac7bfe2b5502c127089242f839ddaac0a2329b1378245db19711a18468059a853fd1baa773a48110a876f7dc08744987036388539152681115ee246e8d1d988393f61c7634de9badbc7d91543da6ae4f647e115583e41c8e67087412ce186edbb0f4d21a9948bd67f0488d621a8d4efa047d301272574dbba3132af5bf00000000000000000000000000000000000000000000000000000000000000063458614ad5a72248aaf151ad8bf7546ac5ce18fce7beb31af3d98c8ed923c19032058536a3b838fc4e836bcefe050aded51b08217eb0b637d85930338c677e3c32ae45930da64371f79fc442149e384859adb07de0e3c005ed70c96a58a2c9581409ee70e3c006b52ee1398f49a23e6a7dcc70660f6f09caa9e3512ef941bfc3218ba5af798d98bad91327f368b8d9f0da6a8936b93f79ff1cc736cf3a8bd7e51419f1a4163473246635800bdb5f6481f92ca57a5eed73c64d90a61ed4b5ef3100000000000000000000000000000000000000000000000000000000',\n",
       "   'value': '0',\n",
       "   'max_priority_fee_per_gas': None,\n",
       "   'revert_reason': None,\n",
       "   'confirmation_duration': [0, 2121.0],\n",
       "   'tx_tag': None},\n",
       "  {'timestamp': '2024-07-25T22:02:45.000000Z',\n",
       "   'fee': {'type': 'actual', 'value': '4579938003608436'},\n",
       "   'gas_limit': '500000',\n",
       "   'block': 59807267,\n",
       "   'status': 'ok',\n",
       "   'method': 'forward',\n",
       "   'confirmations': 11,\n",
       "   'type': 0,\n",
       "   'exchange_rate': '0.497313',\n",
       "   'to': {'ens_domain_name': None,\n",
       "    'hash': '0xDCdF1E4726731e75aA0AE7C47fd01209760c7A62',\n",
       "    'implementation_address': None,\n",
       "    'implementation_name': None,\n",
       "    'implementations': [],\n",
       "    'is_contract': True,\n",
       "    'is_verified': True,\n",
       "    'metadata': None,\n",
       "    'name': 'AuthorizedForwarder',\n",
       "    'private_tags': [],\n",
       "    'public_tags': [],\n",
       "    'watchlist_names': []},\n",
       "   'tx_burnt_fee': None,\n",
       "   'max_fee_per_gas': None,\n",
       "   'result': 'success',\n",
       "   'hash': '0x90d116b96896b8a16fa05261702f5ac3d69137ecd6a970c93081124820c6859d',\n",
       "   'gas_price': '33000000026',\n",
       "   'priority_fee': None,\n",
       "   'base_fee_per_gas': '28',\n",
       "   'from': {'ens_domain_name': None,\n",
       "    'hash': '0x7537cB7b7E8083ff8E68cb5c0cA18553Ab54946f',\n",
       "    'implementation_address': None,\n",
       "    'implementation_name': None,\n",
       "    'implementations': [],\n",
       "    'is_contract': False,\n",
       "    'is_verified': False,\n",
       "    'metadata': None,\n",
       "    'name': None,\n",
       "    'private_tags': [],\n",
       "    'public_tags': [],\n",
       "    'watchlist_names': []},\n",
       "   'token_transfers': None,\n",
       "   'tx_types': ['contract_call'],\n",
       "   'gas_used': '138786',\n",
       "   'created_contract': None,\n",
       "   'position': 41,\n",
       "   'nonce': 36862841,\n",
       "   'has_error_in_internal_txs': None,\n",
       "   'actions': [],\n",
       "   'decoded_input': {'method_call': 'forward(address to, bytes data)',\n",
       "    'method_id': '6fadcf72',\n",
       "    'parameters': [{'name': 'to',\n",
       "      'type': 'address',\n",
       "      'value': '0xffdbb95ddb9281633c206951053c8aea35555ac5'},\n",
       "     {'name': 'data',\n",
       "      'type': 'bytes',\n",
       "      'value': '0xb1dc65a4000147c2ea2a415a916992e50655a4387dd1c75466c13f6df25480b1e1026b0d000000000000000000000000000000000000000000000000000000000142b203abce72ac16cbb12892dea1f632f62ab2064b04568fe7fff2c0b12fbe41a9eb6a00000000000000000000000000000000000000000000000000000000000000e000000000000000000000000000000000000000000000000000000000000003a00000000000000000000000000000000000000000000000000000000000000480000100000101000000000000000000000000000000000000000000000000000000000000000000000000000000000000000000000000000000000000000002a00000000000000000000000000000000000000000000000000000000066a2cb800b020d01080e0f07050a0904000c030600000000000000000000000000000000000000000000000000000000000000000000000000000000000000000000008000000000000000000000000000000000000000000000000000886c27ab8e3a7500000000000000000000000000000000000000000000000000000000000000100000000000000000000000000000000000000000000000000000000001175020000000000000000000000000000000000000000000000000000000000117502000000000000000000000000000000000000000000000000000000000011759c80000000000000000000000000000000000000000000000000000000001175ca50000000000000000000000000000000000000000000000000000000001175ca50000000000000000000000000000000000000000000000000000000001175ca50000000000000000000000000000000000000000000000000000000001175fed0000000000000000000000000000000000000000000000000000000001175fed0000000000000000000000000000000000000000000000000000000001175fed000000000000000000000000000000000000000000000000000000000117637000000000000000000000000000000000000000000000000000000000011763700000000000000000000000000000000000000000000000000000000001177530000000000000000000000000000000000000000000000000000000000117753000000000000000000000000000000000000000000000000000000000011775300000000000000000000000000000000000000000000000000000000001181ea50000000000000000000000000000000000000000000000000000000001181ea50000000000000000000000000000000000000000000000000000000000000006ae55daae02c847c40e63697ec951ab15a913ea3976d835871c44666c141b8352dfc1aa300e6dde8cc93ba9ef4eaddab67f96c439dac792ab59026ccf801cfe837cd555bd6350f03dee72633984c2147eb3aa75a20b44bfb4799acb671d910a5637c0c7f83a4e82d98e2feb54096884cbcb23880930b3b366e4294484bc148ef77e8c50098ab385ae7f3f9b9f26272a7c14940483132366dd9b2ba2301b1205da7ddf707bb8bf4bad6d44cab53f3f80ca895e71baa20eef84b65c1be94d25ff950000000000000000000000000000000000000000000000000000000000000006190380d359e545844559f1d7b3e4d1348fe8e0dcc05f41a1eaab92cdfbf5a9ca168d73e4df304d1946fea5cb14f249d86b44ae53f0561a8e0d8a473497fb5d852cca54e2883f6789e68941fe722c4ed29e02153d66f73dbc728d8cceb25c62fd071f7287c3531409a61b449e4cb2e75b46361342d832cc46b9f545e00a0c8011738702f829990ee40f22f51c3b524ddf46768f543664f3d92416d5d31daf3ceb7b13935debce445711420af9e19d075b36a5f5589dd064fdf12bea5c50fa2ec8'}]},\n",
       "   'token_transfers_overflow': None,\n",
       "   'raw_input': '0x6fadcf72000000000000000000000000ffdbb95ddb9281633c206951053c8aea35555ac500000000000000000000000000000000000000000000000000000000000000400000000000000000000000000000000000000000000000000000000000000564b1dc65a4000147c2ea2a415a916992e50655a4387dd1c75466c13f6df25480b1e1026b0d000000000000000000000000000000000000000000000000000000000142b203abce72ac16cbb12892dea1f632f62ab2064b04568fe7fff2c0b12fbe41a9eb6a00000000000000000000000000000000000000000000000000000000000000e000000000000000000000000000000000000000000000000000000000000003a00000000000000000000000000000000000000000000000000000000000000480000100000101000000000000000000000000000000000000000000000000000000000000000000000000000000000000000000000000000000000000000002a00000000000000000000000000000000000000000000000000000000066a2cb800b020d01080e0f07050a0904000c030600000000000000000000000000000000000000000000000000000000000000000000000000000000000000000000008000000000000000000000000000000000000000000000000000886c27ab8e3a7500000000000000000000000000000000000000000000000000000000000000100000000000000000000000000000000000000000000000000000000001175020000000000000000000000000000000000000000000000000000000000117502000000000000000000000000000000000000000000000000000000000011759c80000000000000000000000000000000000000000000000000000000001175ca50000000000000000000000000000000000000000000000000000000001175ca50000000000000000000000000000000000000000000000000000000001175ca50000000000000000000000000000000000000000000000000000000001175fed0000000000000000000000000000000000000000000000000000000001175fed0000000000000000000000000000000000000000000000000000000001175fed000000000000000000000000000000000000000000000000000000000117637000000000000000000000000000000000000000000000000000000000011763700000000000000000000000000000000000000000000000000000000001177530000000000000000000000000000000000000000000000000000000000117753000000000000000000000000000000000000000000000000000000000011775300000000000000000000000000000000000000000000000000000000001181ea50000000000000000000000000000000000000000000000000000000001181ea50000000000000000000000000000000000000000000000000000000000000006ae55daae02c847c40e63697ec951ab15a913ea3976d835871c44666c141b8352dfc1aa300e6dde8cc93ba9ef4eaddab67f96c439dac792ab59026ccf801cfe837cd555bd6350f03dee72633984c2147eb3aa75a20b44bfb4799acb671d910a5637c0c7f83a4e82d98e2feb54096884cbcb23880930b3b366e4294484bc148ef77e8c50098ab385ae7f3f9b9f26272a7c14940483132366dd9b2ba2301b1205da7ddf707bb8bf4bad6d44cab53f3f80ca895e71baa20eef84b65c1be94d25ff950000000000000000000000000000000000000000000000000000000000000006190380d359e545844559f1d7b3e4d1348fe8e0dcc05f41a1eaab92cdfbf5a9ca168d73e4df304d1946fea5cb14f249d86b44ae53f0561a8e0d8a473497fb5d852cca54e2883f6789e68941fe722c4ed29e02153d66f73dbc728d8cceb25c62fd071f7287c3531409a61b449e4cb2e75b46361342d832cc46b9f545e00a0c8011738702f829990ee40f22f51c3b524ddf46768f543664f3d92416d5d31daf3ceb7b13935debce445711420af9e19d075b36a5f5589dd064fdf12bea5c50fa2ec800000000000000000000000000000000000000000000000000000000',\n",
       "   'value': '0',\n",
       "   'max_priority_fee_per_gas': None,\n",
       "   'revert_reason': None,\n",
       "   'confirmation_duration': [0, 2121.0],\n",
       "   'tx_tag': None},\n",
       "  {'timestamp': '2024-07-25T22:02:45.000000Z',\n",
       "   'fee': {'type': 'actual', 'value': '1739936000000000'},\n",
       "   'gas_limit': '81560',\n",
       "   'block': 59807267,\n",
       "   'status': 'ok',\n",
       "   'method': 'openLootbox',\n",
       "   'confirmations': 11,\n",
       "   'type': 0,\n",
       "   'exchange_rate': '0.497313',\n",
       "   'to': {'ens_domain_name': None,\n",
       "    'hash': '0x71a2f8007e71e1399D66972e48d10A0A0D0049c0',\n",
       "    'implementation_address': None,\n",
       "    'implementation_name': None,\n",
       "    'implementations': [],\n",
       "    'is_contract': True,\n",
       "    'is_verified': True,\n",
       "    'metadata': None,\n",
       "    'name': 'Lootbox',\n",
       "    'private_tags': [],\n",
       "    'public_tags': [],\n",
       "    'watchlist_names': []},\n",
       "   'tx_burnt_fee': None,\n",
       "   'max_fee_per_gas': None,\n",
       "   'result': 'success',\n",
       "   'hash': '0xb4c548da85c40b27098323695efb3425cb2141fdf0b5ce54e0e336d6f17e08bc',\n",
       "   'gas_price': '32000000000',\n",
       "   'priority_fee': None,\n",
       "   'base_fee_per_gas': '28',\n",
       "   'from': {'ens_domain_name': None,\n",
       "    'hash': '0xd2739d594375F7A00009871A1e760664758d9A26',\n",
       "    'implementation_address': None,\n",
       "    'implementation_name': None,\n",
       "    'implementations': [],\n",
       "    'is_contract': False,\n",
       "    'is_verified': False,\n",
       "    'metadata': None,\n",
       "    'name': None,\n",
       "    'private_tags': [],\n",
       "    'public_tags': [],\n",
       "    'watchlist_names': []},\n",
       "   'token_transfers': None,\n",
       "   'tx_types': ['contract_call'],\n",
       "   'gas_used': '54373',\n",
       "   'created_contract': None,\n",
       "   'position': 42,\n",
       "   'nonce': 182,\n",
       "   'has_error_in_internal_txs': None,\n",
       "   'actions': [],\n",
       "   'decoded_input': {'method_call': 'openLootbox((uint256,uint256,address) data, bytes sig)',\n",
       "    'method_id': '0924c737',\n",
       "    'parameters': [{'name': 'data',\n",
       "      'type': '(uint256,uint256,address)',\n",
       "      'value': ['16701536',\n",
       "       '1721944945767',\n",
       "       '0xd2739d594375f7a00009871a1e760664758d9a26']},\n",
       "     {'name': 'sig',\n",
       "      'type': 'bytes',\n",
       "      'value': '0x4dd601e8793d250e2008b33469cdde27c5137800c9e32a0b7859337b6dcecdc647e863e700fd4200e5d2e24c308cb1496d80f829003ce3e2676608ea0aba289d1c'}]},\n",
       "   'token_transfers_overflow': None,\n",
       "   'raw_input': '0x0924c7370000000000000000000000000000000000000000000000000000000000fed86000000000000000000000000000000000000000000000000000000190ebeab467000000000000000000000000d2739d594375f7a00009871a1e760664758d9a26000000000000000000000000000000000000000000000000000000000000008000000000000000000000000000000000000000000000000000000000000000414dd601e8793d250e2008b33469cdde27c5137800c9e32a0b7859337b6dcecdc647e863e700fd4200e5d2e24c308cb1496d80f829003ce3e2676608ea0aba289d1c00000000000000000000000000000000000000000000000000000000000000',\n",
       "   'value': '0',\n",
       "   'max_priority_fee_per_gas': None,\n",
       "   'revert_reason': None,\n",
       "   'confirmation_duration': [0, 2121.0],\n",
       "   'tx_tag': None},\n",
       "  {'timestamp': '2024-07-25T22:02:45.000000Z',\n",
       "   'fee': {'type': 'actual', 'value': '3229915502973573'},\n",
       "   'gas_limit': '205074',\n",
       "   'block': 59807267,\n",
       "   'status': 'ok',\n",
       "   'method': 'claim',\n",
       "   'confirmations': 11,\n",
       "   'type': 2,\n",
       "   'exchange_rate': '0.497313',\n",
       "   'to': {'ens_domain_name': None,\n",
       "    'hash': '0xf6D1B85af155229AcD7B523601148585A1ff67C6',\n",
       "    'implementation_address': None,\n",
       "    'implementation_name': None,\n",
       "    'implementations': [],\n",
       "    'is_contract': True,\n",
       "    'is_verified': True,\n",
       "    'metadata': None,\n",
       "    'name': 'SpaceStationV2',\n",
       "    'private_tags': [],\n",
       "    'public_tags': [],\n",
       "    'watchlist_names': []},\n",
       "   'tx_burnt_fee': '2871036',\n",
       "   'max_fee_per_gas': '31500000037',\n",
       "   'result': 'success',\n",
       "   'hash': '0x71d83568620a4f0e97c95339f58d970d5b74d565175e1f166132751a9242786f',\n",
       "   'gas_price': '31500000029',\n",
       "   'priority_fee': '3229915500102537',\n",
       "   'base_fee_per_gas': '28',\n",
       "   'from': {'ens_domain_name': None,\n",
       "    'hash': '0x4bE3DFef4d378A1E8Bfa3c716771F95805AF33E4',\n",
       "    'implementation_address': None,\n",
       "    'implementation_name': None,\n",
       "    'implementations': [],\n",
       "    'is_contract': False,\n",
       "    'is_verified': False,\n",
       "    'metadata': None,\n",
       "    'name': None,\n",
       "    'private_tags': [],\n",
       "    'public_tags': [],\n",
       "    'watchlist_names': []},\n",
       "   'token_transfers': None,\n",
       "   'tx_types': ['contract_call', 'token_transfer'],\n",
       "   'gas_used': '102537',\n",
       "   'created_contract': None,\n",
       "   'position': 43,\n",
       "   'nonce': 550,\n",
       "   'has_error_in_internal_txs': None,\n",
       "   'actions': [],\n",
       "   'decoded_input': {'method_call': 'claim(uint256 _cid, address _starNFT, uint256 _dummyId, uint256 _powah, bytes _signature)',\n",
       "    'method_id': '2e4dbe8f',\n",
       "    'parameters': [{'name': '_cid', 'type': 'uint256', 'value': '306891'},\n",
       "     {'name': '_starNFT',\n",
       "      'type': 'address',\n",
       "      'value': '0x5d666f215a85b87cb042d59662a7ecd2c8cc44e6'},\n",
       "     {'name': '_dummyId', 'type': 'uint256', 'value': '883622733'},\n",
       "     {'name': '_powah', 'type': 'uint256', 'value': '306891'},\n",
       "     {'name': '_signature',\n",
       "      'type': 'bytes',\n",
       "      'value': '0x7c2db1b8781a86f4cf91a590cf9b6fdbed8a39f1f53a4e0f3c2650ce4c769d3071cab1641cfa0e05585f5a4408143f8296d5e88c4ab4a375833348cf3019b06e1b'}]},\n",
       "   'token_transfers_overflow': None,\n",
       "   'raw_input': '0x2e4dbe8f000000000000000000000000000000000000000000000000000000000004aecb0000000000000000000000005d666f215a85b87cb042d59662a7ecd2c8cc44e60000000000000000000000000000000000000000000000000000000034ab034d000000000000000000000000000000000000000000000000000000000004aecb00000000000000000000000000000000000000000000000000000000000000a000000000000000000000000000000000000000000000000000000000000000417c2db1b8781a86f4cf91a590cf9b6fdbed8a39f1f53a4e0f3c2650ce4c769d3071cab1641cfa0e05585f5a4408143f8296d5e88c4ab4a375833348cf3019b06e1b00000000000000000000000000000000000000000000000000000000000000',\n",
       "   'value': '0',\n",
       "   'max_priority_fee_per_gas': '31500000001',\n",
       "   'revert_reason': None,\n",
       "   'confirmation_duration': [0, 2121.0],\n",
       "   'tx_tag': None},\n",
       "  {'timestamp': '2024-07-25T22:02:45.000000Z',\n",
       "   'fee': {'type': 'actual', 'value': '1685527751181884'},\n",
       "   'gas_limit': '107444',\n",
       "   'block': 59807267,\n",
       "   'status': 'ok',\n",
       "   'method': 'insertCoin',\n",
       "   'confirmations': 11,\n",
       "   'type': 2,\n",
       "   'exchange_rate': '0.497313',\n",
       "   'to': {'ens_domain_name': None,\n",
       "    'hash': '0x7308e295D4f40230F79b189f6fa9A4289576923B',\n",
       "    'implementation_address': None,\n",
       "    'implementation_name': None,\n",
       "    'implementations': [],\n",
       "    'is_contract': True,\n",
       "    'is_verified': True,\n",
       "    'metadata': None,\n",
       "    'name': 'IxMinigame',\n",
       "    'private_tags': [],\n",
       "    'public_tags': [],\n",
       "    'watchlist_names': []},\n",
       "   'tx_burnt_fee': '1504216',\n",
       "   'max_fee_per_gas': '31375000031',\n",
       "   'result': 'success',\n",
       "   'hash': '0xee3a87f052d1cbea9d788cb453b0fecfd980f06737b639ef6cb4397ab9bbc262',\n",
       "   'gas_price': '31375000022',\n",
       "   'priority_fee': '1685527749677668',\n",
       "   'base_fee_per_gas': '28',\n",
       "   'from': {'ens_domain_name': None,\n",
       "    'hash': '0x6ddcE006c11B7B314CdadF3e7df42b533641419F',\n",
       "    'implementation_address': None,\n",
       "    'implementation_name': None,\n",
       "    'implementations': [],\n",
       "    'is_contract': False,\n",
       "    'is_verified': False,\n",
       "    'metadata': None,\n",
       "    'name': None,\n",
       "    'private_tags': [],\n",
       "    'public_tags': [],\n",
       "    'watchlist_names': []},\n",
       "   'token_transfers': None,\n",
       "   'tx_types': ['contract_call'],\n",
       "   'gas_used': '53722',\n",
       "   'created_contract': None,\n",
       "   'position': 44,\n",
       "   'nonce': 385,\n",
       "   'has_error_in_internal_txs': None,\n",
       "   'actions': [],\n",
       "   'decoded_input': {'method_call': 'insertCoin(string gameType, string uid)',\n",
       "    'method_id': 'afa1a193',\n",
       "    'parameters': [{'name': 'gameType',\n",
       "      'type': 'string',\n",
       "      'value': 'voyage-oracle'},\n",
       "     {'name': 'uid',\n",
       "      'type': 'string',\n",
       "      'value': 'RPZ6C48gmAcZvOucYu1Bkkw5Rnk2'}]},\n",
       "   'token_transfers_overflow': None,\n",
       "   'raw_input': '0xafa1a19300000000000000000000000000000000000000000000000000000000000000400000000000000000000000000000000000000000000000000000000000000080000000000000000000000000000000000000000000000000000000000000000d766f796167652d6f7261636c6500000000000000000000000000000000000000000000000000000000000000000000000000000000000000000000000000001c52505a36433438676d41635a764f7563597531426b6b7735526e6b3200000000',\n",
       "   'value': '0',\n",
       "   'max_priority_fee_per_gas': '31374999994',\n",
       "   'revert_reason': None,\n",
       "   'confirmation_duration': [0, 2121.0],\n",
       "   'tx_tag': None},\n",
       "  {'timestamp': '2024-07-25T22:02:45.000000Z',\n",
       "   'fee': {'type': 'actual', 'value': '8958754756281836'},\n",
       "   'gas_limit': '588926',\n",
       "   'block': 59807267,\n",
       "   'status': 'ok',\n",
       "   'method': None,\n",
       "   'confirmations': 11,\n",
       "   'type': 2,\n",
       "   'exchange_rate': '0.497313',\n",
       "   'to': {'ens_domain_name': None,\n",
       "    'hash': '0xa7FD99748cE527eAdC0bDAc60cba8a4eF4090f7c',\n",
       "    'implementation_address': None,\n",
       "    'implementation_name': None,\n",
       "    'implementations': [],\n",
       "    'is_contract': False,\n",
       "    'is_verified': False,\n",
       "    'metadata': None,\n",
       "    'name': None,\n",
       "    'private_tags': [],\n",
       "    'public_tags': [],\n",
       "    'watchlist_names': []},\n",
       "   'tx_burnt_fee': '7995064',\n",
       "   'max_fee_per_gas': '31375000031',\n",
       "   'result': 'success',\n",
       "   'hash': '0xf569812a742942d18a19bf3cad41c810dd5bf47359515c8951c9f163b5ebcd25',\n",
       "   'gas_price': '31375000022',\n",
       "   'priority_fee': '8958754748286772',\n",
       "   'base_fee_per_gas': '28',\n",
       "   'from': {'ens_domain_name': None,\n",
       "    'hash': '0x174ff1E7028a8526B303355B8Dda6eED96568a95',\n",
       "    'implementation_address': None,\n",
       "    'implementation_name': None,\n",
       "    'implementations': [],\n",
       "    'is_contract': False,\n",
       "    'is_verified': False,\n",
       "    'metadata': None,\n",
       "    'name': None,\n",
       "    'private_tags': [],\n",
       "    'public_tags': [],\n",
       "    'watchlist_names': []},\n",
       "   'token_transfers': None,\n",
       "   'tx_types': ['coin_transfer', 'token_transfer'],\n",
       "   'gas_used': '285538',\n",
       "   'created_contract': None,\n",
       "   'position': 45,\n",
       "   'nonce': 119,\n",
       "   'has_error_in_internal_txs': None,\n",
       "   'actions': [],\n",
       "   'decoded_input': None,\n",
       "   'token_transfers_overflow': None,\n",
       "   'raw_input': '0x99818378000000000000000000000000000000000000000000000000000000000000006000000000000000000000000000000000000000000000000000000000000000800000000000000000000000000000000000000000000000000000000000000660000000000000000000000000000000000000000000000000000000000000000000000000000000000000000000000000000000000000000000000000000005a30001010004010000056400000000000000000000000011216185c29f700000b968b9650fb54f56f671def40fcfe113bb4f34c78d5b13694b914a06bead4eece7acab24000000000000000000000000000000000000000000000000000000000000008000000000000000000000000000000000000000000000000000000000000005400000007b02230091a7ed01230072f7006a004d60a8d4e71d599b8104250f0000000000000000000000000000174ff1e7028a8526b303355b8dda6eed96568a9500000000000000000000000000000000000000000000000000000000000000a00000000000000000000000000000000000000000000000000000000000000001000000000000000000000000000000000000000000000000000000000000000100000000000000000000000000000000000000000000000000000000000003a000000000000000000000000000000000000000000000000000000000000004200000000000000000000000009785644f3764bac4213b7898a45f30cf5a8a8883000000000000000000000000df2d4bffec010debd302674c9fb9cda99bb5e8520000000000000000000000000000000000000000000000000000000000000160000000000000000000000000000000000000000000000000000000000000022000000000000000000000000000000000000000000000000000000000000000020000000000000000000000000000000000000000000000000000000066a163190000000000000000000000000000000000000000000000000000000066aa9d97000000000000000000000000000000000000000000000000000000000000000000000000000000000000000000000000000000000000000003b971854785d4630000007b02230091a7ed01230072f7006a004d60a8d4e71d599b8104250f000000000000000000000000000000000000000000000000000000000000000000010000000000000000000000000000000000000000000000000000000000000001000000000000000000000000000000000000000000000000000000000000000200000000000000000000000042398c0e62c2109a59160ad7cf4128e0cc89a05c9785644f3764bac4213b7898a45f30cf5a8a8883000000000000300000000001000000000000000000000000000000000000000000000000000000000000000100000000000000000000000000000000000000000000000000000000000000010000000000000000000000000000000000000000000000000000000000000001000000000000000000000000000000000000000000000000000000000000000000000000000000000000000000000000000000000000000000000000000000000000000000000000000000000000000000000000000000000000000000000000000000000000000000000000000000000000000000000011216185c29f700000000000000000000000000000000000000000000000000011216185c29f7000000000000000000000000000009785644f3764bac4213b7898a45f30cf5a8a8883000000000000000000000000000000000000000000000000000000000000004159c525ea45d2f3760921416bd18cc982a420dc802695050d7b5f06dded150aa86995bef4761ce15d48ac233fd7943bc8880f23f9025fc21f7fb484826286ea851c00000000000000000000000000000000000000000000000000000000000000000000000000000000000000000000000000000000000000000000000000007e0000000000000000000000000000000000000000000000000066a2cf0260a8732d8ffdc119cdbba9929dbe7050fb0337456b3f2536bc359c44e48c0b5a3ca0c9bca09739efbda0dee4e8c2661a4b197c2c9e0caa08a3137ee2263c09e300000000000000000000000000000000000000000000000000000000000000000000000000000000000000000000000000000000000000000000000000000000000000000000000000000000000000000000000000000000000000000000000000000000000000000000000000000000000000000000000000000000000000b400010100174ff1e7028a8526b303355b8dda6eed96568a959785644f3764bac4213b7898a45f30cf5a8a888342398c0e62c2109a59160ad7cf4128e0cc89a05c9785644f3764bac4213b7898a45f30cf5a8a88830000000000003000000000010000000000000000000000000000000000000000000000000000000000000001000000000000000000000000000000000000000000000011216185c29f7000000000000000000000000000000000000000000000000000000000000000000000',\n",
       "   'value': '316000000000000000000',\n",
       "   'max_priority_fee_per_gas': '31374999994',\n",
       "   'revert_reason': None,\n",
       "   'confirmation_duration': [0, 2121.0],\n",
       "   'tx_tag': None},\n",
       "  {'timestamp': '2024-07-25T22:02:45.000000Z',\n",
       "   'fee': {'type': 'actual', 'value': '3780420003528392'},\n",
       "   'gas_limit': '127789',\n",
       "   'block': 59807267,\n",
       "   'status': 'ok',\n",
       "   'method': '0x4b7312a9',\n",
       "   'confirmations': 11,\n",
       "   'type': 2,\n",
       "   'exchange_rate': '0.497313',\n",
       "   'to': {'ens_domain_name': None,\n",
       "    'hash': '0xDb46d1Dc155634FbC732f92E853b10B288AD5a1d',\n",
       "    'implementation_address': '0x176c2a1c54E8b028eeEC14bF0a059E354408FF47',\n",
       "    'implementation_name': None,\n",
       "    'implementations': [{'address': '0x176c2a1c54E8b028eeEC14bF0a059E354408FF47',\n",
       "      'name': None}],\n",
       "    'is_contract': True,\n",
       "    'is_verified': True,\n",
       "    'metadata': None,\n",
       "    'name': 'TransparentUpgradeableProxy',\n",
       "    'private_tags': [],\n",
       "    'public_tags': [],\n",
       "    'watchlist_names': []},\n",
       "   'tx_burnt_fee': '3528392',\n",
       "   'max_fee_per_gas': '30000000280',\n",
       "   'result': 'success',\n",
       "   'hash': '0x23039a828f33e98083067d318355745980e00c26700cb4940e8bbceb08db3f6a',\n",
       "   'gas_price': '30000000028',\n",
       "   'priority_fee': '3780420000000000',\n",
       "   'base_fee_per_gas': '28',\n",
       "   'from': {'ens_domain_name': None,\n",
       "    'hash': '0x3fb1117C8Ed1BE69De84624BC259FCf06C14Acab',\n",
       "    'implementation_address': None,\n",
       "    'implementation_name': None,\n",
       "    'implementations': [],\n",
       "    'is_contract': False,\n",
       "    'is_verified': False,\n",
       "    'metadata': None,\n",
       "    'name': None,\n",
       "    'private_tags': [],\n",
       "    'public_tags': [],\n",
       "    'watchlist_names': []},\n",
       "   'token_transfers': None,\n",
       "   'tx_types': ['contract_call'],\n",
       "   'gas_used': '126014',\n",
       "   'created_contract': None,\n",
       "   'position': 46,\n",
       "   'nonce': 378976,\n",
       "   'has_error_in_internal_txs': None,\n",
       "   'actions': [],\n",
       "   'decoded_input': None,\n",
       "   'token_transfers_overflow': None,\n",
       "   'raw_input': '0x4b7312a9000000000000000000000000000000000000000000000000000000000004b97e000000000000000000000000000000000000000000000000000000000000008000000000000000000000000000000000000000000000000000000000000000c000000000000000000000000000000000000000000000000000000000000001000000000000000000000000000000000000000000000000000000000000000001000000000000000000000000000000000000000000000000000000000001ed1c00000000000000000000000000000000000000000000000000000000000000010000000000000000000000000000000000000000000000000000000000000000000000000000000000000000000000000000000000000000000000000000000100000000000000000000000000000000000000000000000000000000000000200000000000000000000000000000000000000000000000000000000000000000',\n",
       "   'value': '0',\n",
       "   'max_priority_fee_per_gas': '30000000000',\n",
       "   'revert_reason': None,\n",
       "   'confirmation_duration': [0, 2121.0],\n",
       "   'tx_tag': None},\n",
       "  {'timestamp': '2024-07-25T22:02:45.000000Z',\n",
       "   'fee': {'type': 'actual', 'value': '840120000784112'},\n",
       "   'gas_limit': '28004',\n",
       "   'block': 59807267,\n",
       "   'status': 'ok',\n",
       "   'method': 'curate',\n",
       "   'confirmations': 11,\n",
       "   'type': 0,\n",
       "   'exchange_rate': '0.497313',\n",
       "   'to': {'ens_domain_name': 'ideal.poly',\n",
       "    'hash': '0x2c80179883217370F777e76c067Eea91D8283C5C',\n",
       "    'implementation_address': '0xD62d92218027C433A9c8b60a413288ef4e57eDcd',\n",
       "    'implementation_name': 'ReadonCurateV3',\n",
       "    'implementations': [{'address': '0xD62d92218027C433A9c8b60a413288ef4e57eDcd',\n",
       "      'name': 'ReadonCurateV3'}],\n",
       "    'is_contract': True,\n",
       "    'is_verified': True,\n",
       "    'metadata': None,\n",
       "    'name': 'ERC1967Proxy',\n",
       "    'private_tags': [],\n",
       "    'public_tags': [],\n",
       "    'watchlist_names': []},\n",
       "   'tx_burnt_fee': None,\n",
       "   'max_fee_per_gas': None,\n",
       "   'result': 'success',\n",
       "   'hash': '0xee161e46e4edce232167e1e201b2b6c2398893af7351d73a6b9522de3823c752',\n",
       "   'gas_price': '30000000028',\n",
       "   'priority_fee': None,\n",
       "   'base_fee_per_gas': '28',\n",
       "   'from': {'ens_domain_name': None,\n",
       "    'hash': '0x2468ebEe72B1EA829e08fc6874dF21A647DA5ab5',\n",
       "    'implementation_address': None,\n",
       "    'implementation_name': None,\n",
       "    'implementations': [],\n",
       "    'is_contract': False,\n",
       "    'is_verified': False,\n",
       "    'metadata': None,\n",
       "    'name': None,\n",
       "    'private_tags': [],\n",
       "    'public_tags': [],\n",
       "    'watchlist_names': []},\n",
       "   'token_transfers': None,\n",
       "   'tx_types': ['contract_call'],\n",
       "   'gas_used': '28004',\n",
       "   'created_contract': None,\n",
       "   'position': 47,\n",
       "   'nonce': 73,\n",
       "   'has_error_in_internal_txs': None,\n",
       "   'actions': [],\n",
       "   'decoded_input': {'method_call': 'curate(uint64 contentUrl)',\n",
       "    'method_id': '7859bb8d',\n",
       "    'parameters': [{'name': 'contentUrl',\n",
       "      'type': 'uint64',\n",
       "      'value': '1863831'}]},\n",
       "   'token_transfers_overflow': None,\n",
       "   'raw_input': '0x7859bb8d00000000000000000000000000000000000000000000000000000000001c7097',\n",
       "   'value': '0',\n",
       "   'max_priority_fee_per_gas': None,\n",
       "   'revert_reason': None,\n",
       "   'confirmation_duration': [0, 2121.0],\n",
       "   'tx_tag': None},\n",
       "  {'timestamp': '2024-07-25T22:02:45.000000Z',\n",
       "   'fee': {'type': 'actual', 'value': '1056450000986020'},\n",
       "   'gas_limit': '35215',\n",
       "   'block': 59807267,\n",
       "   'status': 'ok',\n",
       "   'method': 'transfer',\n",
       "   'confirmations': 11,\n",
       "   'type': 2,\n",
       "   'exchange_rate': '0.497313',\n",
       "   'to': {'ens_domain_name': None,\n",
       "    'hash': '0x65F98AA41AFAC485730cC7ed9A55782dE0451afe',\n",
       "    'implementation_address': None,\n",
       "    'implementation_name': None,\n",
       "    'implementations': [],\n",
       "    'is_contract': True,\n",
       "    'is_verified': False,\n",
       "    'metadata': None,\n",
       "    'name': 'Cela Token',\n",
       "    'private_tags': [],\n",
       "    'public_tags': [],\n",
       "    'watchlist_names': []},\n",
       "   'tx_burnt_fee': '986020',\n",
       "   'max_fee_per_gas': '30000000056',\n",
       "   'result': 'success',\n",
       "   'hash': '0x92c07b86820d65bebf5438b0ad2502579cea9415e495a103d03d977cff840999',\n",
       "   'gas_price': '30000000028',\n",
       "   'priority_fee': '1056450000000000',\n",
       "   'base_fee_per_gas': '28',\n",
       "   'from': {'ens_domain_name': None,\n",
       "    'hash': '0x8F511739a7ef3db7970c4ca8F98f5c047eFb6aD6',\n",
       "    'implementation_address': None,\n",
       "    'implementation_name': None,\n",
       "    'implementations': [],\n",
       "    'is_contract': False,\n",
       "    'is_verified': False,\n",
       "    'metadata': None,\n",
       "    'name': None,\n",
       "    'private_tags': [],\n",
       "    'public_tags': [],\n",
       "    'watchlist_names': []},\n",
       "   'token_transfers': None,\n",
       "   'tx_types': ['contract_call', 'token_transfer'],\n",
       "   'gas_used': '35215',\n",
       "   'created_contract': None,\n",
       "   'position': 48,\n",
       "   'nonce': 33077,\n",
       "   'has_error_in_internal_txs': None,\n",
       "   'actions': [],\n",
       "   'decoded_input': {'method_call': 'transfer(address _to, uint256 _value)',\n",
       "    'method_id': 'a9059cbb',\n",
       "    'parameters': [{'name': '_to',\n",
       "      'type': 'address',\n",
       "      'value': '0xb77916f62dd66ce98eecad007f6b703897dd3795'},\n",
       "     {'name': '_value', 'type': 'uint256', 'value': '100000000000000000000'}]},\n",
       "   'token_transfers_overflow': None,\n",
       "   'raw_input': '0xa9059cbb000000000000000000000000b77916f62dd66ce98eecad007f6b703897dd37950000000000000000000000000000000000000000000000056bc75e2d63100000',\n",
       "   'value': '0',\n",
       "   'max_priority_fee_per_gas': '30000000000',\n",
       "   'revert_reason': None,\n",
       "   'confirmation_duration': [0, 2121.0],\n",
       "   'tx_tag': None},\n",
       "  {'timestamp': '2024-07-25T22:02:45.000000Z',\n",
       "   'fee': {'type': 'actual', 'value': '2247180002097368'},\n",
       "   'gas_limit': '74906',\n",
       "   'block': 59807267,\n",
       "   'status': 'ok',\n",
       "   'method': 'claim',\n",
       "   'confirmations': 11,\n",
       "   'type': 2,\n",
       "   'exchange_rate': '0.497313',\n",
       "   'to': {'ens_domain_name': None,\n",
       "    'hash': '0x18150CA738A23c7d29D529E7E1623Fb7e921AbF8',\n",
       "    'implementation_address': None,\n",
       "    'implementation_name': None,\n",
       "    'implementations': [],\n",
       "    'is_contract': True,\n",
       "    'is_verified': False,\n",
       "    'metadata': None,\n",
       "    'name': None,\n",
       "    'private_tags': [],\n",
       "    'public_tags': [],\n",
       "    'watchlist_names': []},\n",
       "   'tx_burnt_fee': '2097368',\n",
       "   'max_fee_per_gas': '30000000037',\n",
       "   'result': 'success',\n",
       "   'hash': '0xc3f9d9a3fbc48976249f29be6f72096b9668daed13404bec3a436bf7f3031f6c',\n",
       "   'gas_price': '30000000028',\n",
       "   'priority_fee': '2247180000000000',\n",
       "   'base_fee_per_gas': '28',\n",
       "   'from': {'ens_domain_name': None,\n",
       "    'hash': '0xb02806219803F4811675B76B365Ff657A5569A97',\n",
       "    'implementation_address': None,\n",
       "    'implementation_name': None,\n",
       "    'implementations': [],\n",
       "    'is_contract': False,\n",
       "    'is_verified': False,\n",
       "    'metadata': None,\n",
       "    'name': None,\n",
       "    'private_tags': [],\n",
       "    'public_tags': [],\n",
       "    'watchlist_names': []},\n",
       "   'token_transfers': None,\n",
       "   'tx_types': ['contract_call', 'token_transfer'],\n",
       "   'gas_used': '74906',\n",
       "   'created_contract': None,\n",
       "   'position': 49,\n",
       "   'nonce': 160,\n",
       "   'has_error_in_internal_txs': None,\n",
       "   'actions': [],\n",
       "   'decoded_input': {'method_call': 'claim(uint256 index, address account, uint256 amount, bytes32[] merkleProof)',\n",
       "    'method_id': '2e7ba6ef',\n",
       "    'parameters': [{'name': 'index', 'type': 'uint256', 'value': '8375'},\n",
       "     {'name': 'account',\n",
       "      'type': 'address',\n",
       "      'value': '0xb02806219803f4811675b76b365ff657a5569a97'},\n",
       "     {'name': 'amount', 'type': 'uint256', 'value': '183700000'},\n",
       "     {'name': 'merkleProof',\n",
       "      'type': 'bytes32[]',\n",
       "      'value': ['0x729bb601bf7bf635c744e90f5cd1b8d271044b9c434fc124b52c32799bd39b6b',\n",
       "       '0x1c73e4bb22c17edd0aa0fe654636c7853fe88e1251396fe5db63d1b27ce07a9c',\n",
       "       '0x98441ffafca1d65f0831cc2a160a3ac2d663a9f7b1167e9377222e74ccbe2193',\n",
       "       '0xdc1c9249a0649798d26d1a2be4c8314c532e5f3b8fa66a1b0251faeb22d3208a',\n",
       "       '0xeb1d6fc39a37d59cf19441e4e542fb1c6723e9dcc303738eeeb93e9f8aadd8c6',\n",
       "       '0x86651b7af25386d67a2e2eb1b90d369e71eb1ba8e839e7576584660fb8a22a2e',\n",
       "       '0x234c9141906df245239916704809e2f5a7c09bb725407665a4e976fea561f1ea',\n",
       "       '0x4f2ec0cad37c4e4740c7c833250c5d565342a6dd4fea8f170bd12a989541357d',\n",
       "       '0x867acde3183c057f0b94fb9753ddebc9097f7525cb8c9c671013fdf398b770cc',\n",
       "       '0xd2f28529b4b5a3c45ff54c593ffc92a8b7b236a6dec2a0df37191edb6011f18d',\n",
       "       '0x0f13602559a60a7b4d59caf962e37e75b1bd0c5cf63a626e910477c54cbdbc34',\n",
       "       '0x2e989e4ec4154f1a68e3eac9b6b6edcf26535bb7c8f65edbd345bd15a95f312c',\n",
       "       '0x05d615862a9a2ad36e709db43d457b18283af4805989cc29e37acc398d924db7']}]},\n",
       "   'token_transfers_overflow': None,\n",
       "   'raw_input': '0x2e7ba6ef00000000000000000000000000000000000000000000000000000000000020b7000000000000000000000000b02806219803f4811675b76b365ff657a5569a97000000000000000000000000000000000000000000000000000000000af30a200000000000000000000000000000000000000000000000000000000000000080000000000000000000000000000000000000000000000000000000000000000d729bb601bf7bf635c744e90f5cd1b8d271044b9c434fc124b52c32799bd39b6b1c73e4bb22c17edd0aa0fe654636c7853fe88e1251396fe5db63d1b27ce07a9c98441ffafca1d65f0831cc2a160a3ac2d663a9f7b1167e9377222e74ccbe2193dc1c9249a0649798d26d1a2be4c8314c532e5f3b8fa66a1b0251faeb22d3208aeb1d6fc39a37d59cf19441e4e542fb1c6723e9dcc303738eeeb93e9f8aadd8c686651b7af25386d67a2e2eb1b90d369e71eb1ba8e839e7576584660fb8a22a2e234c9141906df245239916704809e2f5a7c09bb725407665a4e976fea561f1ea4f2ec0cad37c4e4740c7c833250c5d565342a6dd4fea8f170bd12a989541357d867acde3183c057f0b94fb9753ddebc9097f7525cb8c9c671013fdf398b770ccd2f28529b4b5a3c45ff54c593ffc92a8b7b236a6dec2a0df37191edb6011f18d0f13602559a60a7b4d59caf962e37e75b1bd0c5cf63a626e910477c54cbdbc342e989e4ec4154f1a68e3eac9b6b6edcf26535bb7c8f65edbd345bd15a95f312c05d615862a9a2ad36e709db43d457b18283af4805989cc29e37acc398d924db7',\n",
       "   'value': '0',\n",
       "   'max_priority_fee_per_gas': '30000000000',\n",
       "   'revert_reason': None,\n",
       "   'confirmation_duration': [0, 2121.0],\n",
       "   'tx_tag': None}],\n",
       " 'next_page_params': {'block_number': 59807267,\n",
       "  'index': 49,\n",
       "  'items_count': 50}}"
      ]
     },
     "execution_count": 25,
     "metadata": {},
     "output_type": "execute_result"
    }
   ],
   "source": [
    "eth_rest.get_block_transactions(block_number = \"59807267\")"
   ]
  },
  {
   "cell_type": "code",
   "execution_count": 26,
   "id": "6d2715e5-fe56-4d47-a671-70d8fa065cb3",
   "metadata": {},
   "outputs": [
    {
     "name": "stdout",
     "output_type": "stream",
     "text": [
      "url: https://polygon.blockscout.com/api/v2/blocks/59807267\n"
     ]
    },
    {
     "data": {
      "text/plain": [
       "{'base_fee_per_gas': '28',\n",
       " 'burnt_fees': '170958480',\n",
       " 'burnt_fees_percentage': 2.7807819284241177e-08,\n",
       " 'difficulty': '24',\n",
       " 'gas_limit': '30000000',\n",
       " 'gas_target_percentage': -59.2956,\n",
       " 'gas_used': '6105660',\n",
       " 'gas_used_percentage': 20.3522,\n",
       " 'hash': '0x3e7b70314dd066d6ce8c6dc12b5123ef3c397e6900e41d893990534e0c3e9853',\n",
       " 'height': 59807267,\n",
       " 'miner': {'ens_domain_name': None,\n",
       "  'hash': '0x0000000000000000000000000000000000000000',\n",
       "  'implementation_address': None,\n",
       "  'implementation_name': None,\n",
       "  'implementations': [],\n",
       "  'is_contract': False,\n",
       "  'is_verified': False,\n",
       "  'metadata': None,\n",
       "  'name': None,\n",
       "  'private_tags': [],\n",
       "  'public_tags': [],\n",
       "  'watchlist_names': []},\n",
       " 'nonce': '0x0000000000000000',\n",
       " 'parent_hash': '0x2c2378d98798e359ef15f624212fcd00005b45e53ce71871cdab9d40716c58a4',\n",
       " 'priority_fee': '614785640704099239',\n",
       " 'rewards': [],\n",
       " 'size': 33022,\n",
       " 'timestamp': '2024-07-25T22:02:45.000000Z',\n",
       " 'total_difficulty': '1112825060',\n",
       " 'tx_count': 65,\n",
       " 'tx_fees': '614785640875057719',\n",
       " 'type': 'block',\n",
       " 'uncles_hashes': [],\n",
       " 'withdrawals_count': 0}"
      ]
     },
     "execution_count": 26,
     "metadata": {},
     "output_type": "execute_result"
    }
   ],
   "source": [
    "eth_rest.get_block_info(block_number = \"59807267\")"
   ]
  }
 ],
 "metadata": {
  "kernelspec": {
   "display_name": "Python 3 (ipykernel)",
   "language": "python",
   "name": "python3"
  },
  "language_info": {
   "codemirror_mode": {
    "name": "ipython",
    "version": 3
   },
   "file_extension": ".py",
   "mimetype": "text/x-python",
   "name": "python",
   "nbconvert_exporter": "python",
   "pygments_lexer": "ipython3",
   "version": "3.10.0rc2"
  }
 },
 "nbformat": 4,
 "nbformat_minor": 5
}
