{
 "cells": [
  {
   "cell_type": "code",
   "execution_count": 1,
   "id": "1cae06cc-230b-440c-8930-1acfa658b85e",
   "metadata": {},
   "outputs": [],
   "source": [
    "from blockscout import Blockscout\n",
    "from blockscout import Net\n",
    "from blockscout import API\n",
    "\n",
    "eth = Blockscout(Net.ROLLUX, API.REST) "
   ]
  },
  {
   "cell_type": "code",
   "execution_count": 2,
   "id": "3134c5e7-9997-419f-9655-53406ba2c38b",
   "metadata": {},
   "outputs": [
    {
     "name": "stdout",
     "output_type": "stream",
     "text": [
      "url: https://explorer.rollux.com/api/v2/main-page/blocks\n"
     ]
    },
    {
     "data": {
      "text/plain": [
       "[{'base_fee_per_gas': '50',\n",
       "  'burnt_fees': '78655550',\n",
       "  'burnt_fees_percentage': 5.1534466819268325e-05,\n",
       "  'difficulty': '0',\n",
       "  'gas_limit': '30000000',\n",
       "  'gas_target_percentage': -89.51259333333333,\n",
       "  'gas_used': '1573111',\n",
       "  'gas_used_percentage': 5.243703333333333,\n",
       "  'hash': '0x541aaa3919ccc1b3a428a1493e6179a618e791e6c5ae18f21415e566c65267b8',\n",
       "  'height': 16726586,\n",
       "  'miner': {'ens_domain_name': None,\n",
       "   'hash': '0x4200000000000000000000000000000000000011',\n",
       "   'implementation_name': None,\n",
       "   'is_contract': True,\n",
       "   'is_verified': None,\n",
       "   'metadata': None,\n",
       "   'name': None,\n",
       "   'private_tags': [],\n",
       "   'public_tags': [],\n",
       "   'watchlist_names': []},\n",
       "  'nonce': '0x0000000000000000',\n",
       "  'parent_hash': '0x3490395d0c521c921c9bf8852c82500fabaaa928054ee1829e96fe110c4fe446',\n",
       "  'priority_fee': '152627000000000',\n",
       "  'rewards': [],\n",
       "  'size': 18680,\n",
       "  'timestamp': '2024-07-12T21:06:53.000000Z',\n",
       "  'total_difficulty': '0',\n",
       "  'tx_count': 2,\n",
       "  'tx_fees': '152627076313500',\n",
       "  'type': 'block',\n",
       "  'uncles_hashes': [],\n",
       "  'withdrawals_count': None},\n",
       " {'base_fee_per_gas': '50',\n",
       "  'burnt_fees': '2342050',\n",
       "  'burnt_fees_percentage': None,\n",
       "  'difficulty': '0',\n",
       "  'gas_limit': '30000000',\n",
       "  'gas_target_percentage': -99.68772666666666,\n",
       "  'gas_used': '46841',\n",
       "  'gas_used_percentage': 0.15613666666666667,\n",
       "  'hash': '0x3490395d0c521c921c9bf8852c82500fabaaa928054ee1829e96fe110c4fe446',\n",
       "  'height': 16726585,\n",
       "  'miner': {'ens_domain_name': None,\n",
       "   'hash': '0x4200000000000000000000000000000000000011',\n",
       "   'implementation_name': None,\n",
       "   'is_contract': True,\n",
       "   'is_verified': None,\n",
       "   'metadata': None,\n",
       "   'name': None,\n",
       "   'private_tags': [],\n",
       "   'public_tags': [],\n",
       "   'watchlist_names': []},\n",
       "  'nonce': '0x0000000000000000',\n",
       "  'parent_hash': '0x624e6a8f751a230187bb3515485f8133b9b4d596a8028cf39d08965beea59487',\n",
       "  'priority_fee': '0',\n",
       "  'rewards': [],\n",
       "  'size': 869,\n",
       "  'timestamp': '2024-07-12T21:06:51.000000Z',\n",
       "  'total_difficulty': '0',\n",
       "  'tx_count': 1,\n",
       "  'tx_fees': '0',\n",
       "  'type': 'block',\n",
       "  'uncles_hashes': [],\n",
       "  'withdrawals_count': None},\n",
       " {'base_fee_per_gas': '50',\n",
       "  'burnt_fees': '2342050',\n",
       "  'burnt_fees_percentage': None,\n",
       "  'difficulty': '0',\n",
       "  'gas_limit': '30000000',\n",
       "  'gas_target_percentage': -99.68772666666666,\n",
       "  'gas_used': '46841',\n",
       "  'gas_used_percentage': 0.15613666666666667,\n",
       "  'hash': '0x624e6a8f751a230187bb3515485f8133b9b4d596a8028cf39d08965beea59487',\n",
       "  'height': 16726584,\n",
       "  'miner': {'ens_domain_name': None,\n",
       "   'hash': '0x4200000000000000000000000000000000000011',\n",
       "   'implementation_name': None,\n",
       "   'is_contract': True,\n",
       "   'is_verified': None,\n",
       "   'metadata': None,\n",
       "   'name': None,\n",
       "   'private_tags': [],\n",
       "   'public_tags': [],\n",
       "   'watchlist_names': []},\n",
       "  'nonce': '0x0000000000000000',\n",
       "  'parent_hash': '0x7ec68a62346b6372c1b7d76a97d7315c153f297ac3acbd4375a012863b150d86',\n",
       "  'priority_fee': '0',\n",
       "  'rewards': [],\n",
       "  'size': 869,\n",
       "  'timestamp': '2024-07-12T21:06:49.000000Z',\n",
       "  'total_difficulty': '0',\n",
       "  'tx_count': 1,\n",
       "  'tx_fees': '0',\n",
       "  'type': 'block',\n",
       "  'uncles_hashes': [],\n",
       "  'withdrawals_count': None},\n",
       " {'base_fee_per_gas': '50',\n",
       "  'burnt_fees': '2342050',\n",
       "  'burnt_fees_percentage': None,\n",
       "  'difficulty': '0',\n",
       "  'gas_limit': '30000000',\n",
       "  'gas_target_percentage': -99.68772666666666,\n",
       "  'gas_used': '46841',\n",
       "  'gas_used_percentage': 0.15613666666666667,\n",
       "  'hash': '0x7ec68a62346b6372c1b7d76a97d7315c153f297ac3acbd4375a012863b150d86',\n",
       "  'height': 16726583,\n",
       "  'miner': {'ens_domain_name': None,\n",
       "   'hash': '0x4200000000000000000000000000000000000011',\n",
       "   'implementation_name': None,\n",
       "   'is_contract': True,\n",
       "   'is_verified': None,\n",
       "   'metadata': None,\n",
       "   'name': None,\n",
       "   'private_tags': [],\n",
       "   'public_tags': [],\n",
       "   'watchlist_names': []},\n",
       "  'nonce': '0x0000000000000000',\n",
       "  'parent_hash': '0x4135dd6f0e15326d613984b63943ad9a7301ddfd45598c3b1a8c4071bf96316a',\n",
       "  'priority_fee': '0',\n",
       "  'rewards': [],\n",
       "  'size': 869,\n",
       "  'timestamp': '2024-07-12T21:06:47.000000Z',\n",
       "  'total_difficulty': '0',\n",
       "  'tx_count': 1,\n",
       "  'tx_fees': '0',\n",
       "  'type': 'block',\n",
       "  'uncles_hashes': [],\n",
       "  'withdrawals_count': None}]"
      ]
     },
     "execution_count": 2,
     "metadata": {},
     "output_type": "execute_result"
    }
   ],
   "source": [
    "eth.get_main_page_blocks()"
   ]
  },
  {
   "cell_type": "code",
   "execution_count": 3,
   "id": "73e62452-e3fc-40f4-b5d9-aa614a7a3afe",
   "metadata": {},
   "outputs": [
    {
     "name": "stdout",
     "output_type": "stream",
     "text": [
      "url: https://explorer.rollux.com/api/v2/blocks/16668506/withdrawals\n"
     ]
    },
    {
     "data": {
      "text/plain": [
       "{'items': [], 'next_page_params': None}"
      ]
     },
     "execution_count": 3,
     "metadata": {},
     "output_type": "execute_result"
    }
   ],
   "source": [
    "eth.get_block_withdrawals(block_number = \"16668506\")"
   ]
  },
  {
   "cell_type": "code",
   "execution_count": 4,
   "id": "70440165-0710-4e7f-babe-79c2954b06fe",
   "metadata": {},
   "outputs": [
    {
     "name": "stdout",
     "output_type": "stream",
     "text": [
      "url: https://explorer.rollux.com/api/v2/blocks/16668506/transactions\n"
     ]
    },
    {
     "data": {
      "text/plain": [
       "{'items': [{'timestamp': '2024-07-11T12:50:53.000000Z',\n",
       "   'fee': {'type': 'actual', 'value': '0'},\n",
       "   'gas_limit': '1000000',\n",
       "   'block': 16668506,\n",
       "   'status': 'ok',\n",
       "   'method': 'setL1BlockValues',\n",
       "   'confirmations': 58082,\n",
       "   'type': 126,\n",
       "   'exchange_rate': None,\n",
       "   'to': {'ens_domain_name': None,\n",
       "    'hash': '0x4200000000000000000000000000000000000015',\n",
       "    'implementation_name': 'L1Block',\n",
       "    'is_contract': True,\n",
       "    'is_verified': True,\n",
       "    'metadata': None,\n",
       "    'name': 'Proxy',\n",
       "    'private_tags': [],\n",
       "    'public_tags': [],\n",
       "    'watchlist_names': []},\n",
       "   'tx_burnt_fee': None,\n",
       "   'max_fee_per_gas': None,\n",
       "   'result': 'success',\n",
       "   'hash': '0x972461471b09252d4fbdc8c91bd19d8f4a04c8addcbf9fb99d55a5baa76c1c3d',\n",
       "   'gas_price': '0',\n",
       "   'priority_fee': None,\n",
       "   'base_fee_per_gas': '50',\n",
       "   'from': {'ens_domain_name': None,\n",
       "    'hash': '0xDeaDDEaDDeAdDeAdDEAdDEaddeAddEAdDEAd0001',\n",
       "    'implementation_name': None,\n",
       "    'is_contract': False,\n",
       "    'is_verified': False,\n",
       "    'metadata': None,\n",
       "    'name': None,\n",
       "    'private_tags': [],\n",
       "    'public_tags': [],\n",
       "    'watchlist_names': []},\n",
       "   'token_transfers': None,\n",
       "   'tx_types': ['contract_call'],\n",
       "   'gas_used': '46877',\n",
       "   'created_contract': None,\n",
       "   'position': 0,\n",
       "   'nonce': 16668505,\n",
       "   'has_error_in_internal_txs': None,\n",
       "   'actions': [],\n",
       "   'decoded_input': {'method_call': 'setL1BlockValues(uint64 _number, uint64 _timestamp, uint256 _basefee, bytes32 _hash, uint64 _sequenceNumber, bytes32 _batcherHash, uint256 _l1FeeOverhead, uint256 _l1FeeScalar)',\n",
       "    'method_id': '015d8eb9',\n",
       "    'parameters': [{'name': '_number', 'type': 'uint64', 'value': '539108'},\n",
       "     {'name': '_timestamp', 'type': 'uint64', 'value': '1720702107'},\n",
       "     {'name': '_basefee', 'type': 'uint256', 'value': '295868966'},\n",
       "     {'name': '_hash',\n",
       "      'type': 'bytes32',\n",
       "      'value': '0xaf79b0a52089cc1aa873dc942ef92b3b6f870788c101ef1ba5c195f37ea70266'},\n",
       "     {'name': '_sequenceNumber', 'type': 'uint64', 'value': '58'},\n",
       "     {'name': '_batcherHash',\n",
       "      'type': 'bytes32',\n",
       "      'value': '0x00000000000000000000000000d97b2a26cb85252998fe7b4bd4ec2118bf6b6e'},\n",
       "     {'name': '_l1FeeOverhead', 'type': 'uint256', 'value': '188'},\n",
       "     {'name': '_l1FeeScalar', 'type': 'uint256', 'value': '684000'}]},\n",
       "   'token_transfers_overflow': None,\n",
       "   'raw_input': '0x015d8eb900000000000000000000000000000000000000000000000000000000000839e400000000000000000000000000000000000000000000000000000000668fd49b0000000000000000000000000000000000000000000000000000000011a29a26af79b0a52089cc1aa873dc942ef92b3b6f870788c101ef1ba5c195f37ea70266000000000000000000000000000000000000000000000000000000000000003a00000000000000000000000000d97b2a26cb85252998fe7b4bd4ec2118bf6b6e00000000000000000000000000000000000000000000000000000000000000bc00000000000000000000000000000000000000000000000000000000000a6fe0',\n",
       "   'value': '0',\n",
       "   'max_priority_fee_per_gas': None,\n",
       "   'revert_reason': None,\n",
       "   'confirmation_duration': [0, 2000.0],\n",
       "   'tx_tag': None},\n",
       "  {'timestamp': '2024-07-11T12:50:53.000000Z',\n",
       "   'fee': {'type': 'actual', 'value': '115637502312750'},\n",
       "   'gas_limit': '4000000',\n",
       "   'block': 16668506,\n",
       "   'status': 'ok',\n",
       "   'method': 'approve',\n",
       "   'confirmations': 58082,\n",
       "   'type': 2,\n",
       "   'exchange_rate': None,\n",
       "   'to': {'ens_domain_name': None,\n",
       "    'hash': '0x3390108E913824B8eaD638444cc52B9aBdF63798',\n",
       "    'implementation_name': None,\n",
       "    'is_contract': True,\n",
       "    'is_verified': True,\n",
       "    'metadata': None,\n",
       "    'name': 'OptimismMintableERC20',\n",
       "    'private_tags': [],\n",
       "    'public_tags': [],\n",
       "    'watchlist_names': []},\n",
       "   'tx_burnt_fee': '2312750',\n",
       "   'max_fee_per_gas': '100000000000',\n",
       "   'result': 'success',\n",
       "   'hash': '0x8d3a232721f4442bcb369909f71c9bf313a1511d4dbc58d2bf61a36cdbc969dc',\n",
       "   'gas_price': '2500000050',\n",
       "   'priority_fee': '115637500000000',\n",
       "   'base_fee_per_gas': '50',\n",
       "   'from': {'ens_domain_name': None,\n",
       "    'hash': '0x480140bbf095270611043e4186eDe7Ea3bA88D9a',\n",
       "    'implementation_name': None,\n",
       "    'is_contract': False,\n",
       "    'is_verified': False,\n",
       "    'metadata': None,\n",
       "    'name': None,\n",
       "    'private_tags': [],\n",
       "    'public_tags': [],\n",
       "    'watchlist_names': []},\n",
       "   'token_transfers': None,\n",
       "   'tx_types': ['contract_call'],\n",
       "   'gas_used': '46255',\n",
       "   'created_contract': None,\n",
       "   'position': 1,\n",
       "   'nonce': 20090,\n",
       "   'has_error_in_internal_txs': None,\n",
       "   'actions': [],\n",
       "   'decoded_input': {'method_call': 'approve(address spender, uint256 amount)',\n",
       "    'method_id': '095ea7b3',\n",
       "    'parameters': [{'name': 'spender',\n",
       "      'type': 'address',\n",
       "      'value': '0x2aacce8b9522f81f14834883198645bb6894bfc0'},\n",
       "     {'name': 'amount', 'type': 'uint256', 'value': '50000000000000000000'}]},\n",
       "   'token_transfers_overflow': None,\n",
       "   'raw_input': '0x095ea7b30000000000000000000000002aacce8b9522f81f14834883198645bb6894bfc0000000000000000000000000000000000000000000000002b5e3af16b1880000',\n",
       "   'value': '0',\n",
       "   'max_priority_fee_per_gas': '2500000000',\n",
       "   'revert_reason': None,\n",
       "   'confirmation_duration': [0, 2000.0],\n",
       "   'tx_tag': None}],\n",
       " 'next_page_params': None}"
      ]
     },
     "execution_count": 4,
     "metadata": {},
     "output_type": "execute_result"
    }
   ],
   "source": [
    "eth.get_block_transactions(block_number = \"16668506\")"
   ]
  },
  {
   "cell_type": "code",
   "execution_count": 5,
   "id": "6d2715e5-fe56-4d47-a671-70d8fa065cb3",
   "metadata": {},
   "outputs": [
    {
     "name": "stdout",
     "output_type": "stream",
     "text": [
      "url: https://explorer.rollux.com/api/v2/blocks/16668506\n"
     ]
    },
    {
     "data": {
      "text/plain": [
       "{'base_fee_per_gas': '50',\n",
       " 'burnt_fees': '4656600',\n",
       " 'burnt_fees_percentage': 4.026894309257811e-06,\n",
       " 'difficulty': '0',\n",
       " 'gas_limit': '30000000',\n",
       " 'gas_target_percentage': -99.37912,\n",
       " 'gas_used': '93132',\n",
       " 'gas_used_percentage': 0.31044,\n",
       " 'hash': '0xcdae6c3acf4a35d0d0f42c70a9b04be779b8b10c38cdfea136e12d76b5fac2ec',\n",
       " 'height': 16668506,\n",
       " 'miner': {'ens_domain_name': None,\n",
       "  'hash': '0x4200000000000000000000000000000000000011',\n",
       "  'implementation_name': None,\n",
       "  'is_contract': True,\n",
       "  'is_verified': None,\n",
       "  'metadata': None,\n",
       "  'name': None,\n",
       "  'private_tags': [],\n",
       "  'public_tags': [],\n",
       "  'watchlist_names': []},\n",
       " 'nonce': '0x0000000000000000',\n",
       " 'parent_hash': '0x2414d0ada76616fb71a2870bab7164bcb0b9ba2591c17c7e9c71393b2312597c',\n",
       " 'priority_fee': '115637500000000',\n",
       " 'rewards': [],\n",
       " 'size': 1056,\n",
       " 'timestamp': '2024-07-11T12:50:53.000000Z',\n",
       " 'total_difficulty': '0',\n",
       " 'tx_count': 2,\n",
       " 'tx_fees': '115637502312750',\n",
       " 'type': 'block',\n",
       " 'uncles_hashes': [],\n",
       " 'withdrawals_count': 0}"
      ]
     },
     "execution_count": 5,
     "metadata": {},
     "output_type": "execute_result"
    }
   ],
   "source": [
    "eth.get_block_info(block_number = \"16668506\")"
   ]
  }
 ],
 "metadata": {
  "kernelspec": {
   "display_name": "Python 3 (ipykernel)",
   "language": "python",
   "name": "python3"
  },
  "language_info": {
   "codemirror_mode": {
    "name": "ipython",
    "version": 3
   },
   "file_extension": ".py",
   "mimetype": "text/x-python",
   "name": "python",
   "nbconvert_exporter": "python",
   "pygments_lexer": "ipython3",
   "version": "3.10.0rc2"
  }
 },
 "nbformat": 4,
 "nbformat_minor": 5
}
